:020000040000FA
:10000000021C5BFFFFFFFFFFFFFFFF022818FFFF3F
:10001000FFFFFFFFFFFFFFFFFFFFFFFFFFFFFFFFF0
:10002000FFFFFFFFFFFFFFFFFFFFFF0239AEFFFFF4
:10003000FFFFFF02431EFFFFFFFFFFFFFFFFFFFF6A
:10004000FFFFFFFFFFFFFFFFFFFFFFFFFFFFFFFFC0
:10005000FFFFFFFFFFFFFFFFFFFFFF022BFCFFFF84
:10006000FFFFFFFFFFFFFFFFFFFFFF0243BCFFFF9C
:10007000FFFFFFFFFFFFFFFFFFFFFF022E31FFFF2C
:06008000FFFFFF02334AFE
:101C000000000080FB121C6AB90003021C55E47935
:101C1000217807B800028004F709D8FCE490F100AD
:101C2000786579048002F0A3D8FCD9FA90F464AA0C
:101C300082AB83901C6D782479018015E493A3AC6A
:101C400082AD838A828B83F0A3AA82AB838C828D40
:101C500083D8E9D9E7122FB5121C0075D000758121
:101C6000BF7518007519F1021C0579012291F10662
:101C70000606060606040000DFBE000720429A1C86
:101C8000471D471D471D471D4F1D04B80B0101018E
:101C900043AE010022FF43AE022212010002020005
:101CA00000205104A61609000102030109024300A5
:101CB0000201008064090400000102020100052401
:101CC000001001042402020524060001052401007D
:101CD000010705820340004009040100020A0000D8
:101CE00000070584024000010705040240000104CA
:101CF0000309042403540065007800610073002088
:101D00000049006E0073007400720075006D00657C
:101D1000006E00740073001E034300430031003165
:101D200000310031002000550053004200200043E4
:101D30000044004300120330003000300030003017
:101D400000300030003000B51C0000D81C0000C37B
:101D5000E7960809E7960809E7960809E796A2D2E8
:101D600065D03322C3E09608A3E09608A3E0960866
:101D7000A3E096A2D265D03322BB0102E722C08243
:101D8000C08389828A83BB0003E08002E493D0830E
:101D9000D08222BB000EC082C0838A838982F0D0A9
:101DA00083D08222BB0101F722E9799EC608CAC608
:101DB00008CBC608CCC6C370207996CACBCC7019A4
:101DC000798ECBCC70137986CC700EF9802ACA3309
:101DD000CACB33CBCC33CC331930E7F2CCCBCA33BC
:101DE00050147004EA30E00DE4CA3ACACB3BCBCCC5
:101DF0003CCC500209C3E913C6CC182313C6CB1838
:101E0000C6CA18C6F922121E4620F01430E72B74F9
:101E1000FFFCFBFA747F8022E4FCFBFA7480801ADA
:101E2000B48008BC00F2BB00EF800F50EBF9E4C3B4
:101E30009AFAE49BFBE49CFCE499C6CC18C6CB1848
:101E4000C6CA18C6F922E4C9C608CAC608CBC6D392
:101E5000330308CCC63392F0C3947F402E941840CD
:101E600019C9B90704CACBCC225025C309CA33CA41
:101E7000CB33CBCC33CC33D9F422F4600DC9CCC3F3
:101E800013CB13CBCA13CAD9F6CC22E4FCFBFA223B
:101E900014FCFBFA22E6C33318461846184622E71C
:101EA000C33319471947194722181818E608460876
:101EB000700AE608C3337005E633F42208221919C4
:101EC00019E7094709700AE709C3337005E733F4D6
:101ED000220922E6084608C3134608336002E633A7
:101EE000F422E7094709C3134709336002E733F4D3
:101EF00022121ED3601C121EE26017121E9570077C
:101F0000121E9F7001D322C0D0121E9F7006D0D027
:101F1000B322C32233D0D0501430E0F6C3E7960882
:101F200009E7960809E7960809E796B32220E0D565
:101F3000E6970809E6970809E6970809E697B322A5
:101F400000121ED3604F121EE26012E7548066F644
:101F5000121EA97011121E9F703B090909F4F61890
:101F6000F618F618F622121EBE7015121E950808F5
:101F70000860EAE6447FF618768018E4F618F62240
:101F8000121E956016121E9F7012E4F608F608F6EF
:101F900008E65480F609090918181822EAC0E0EB8F
:101FA000C0E0ECC0E0EDC0E0E687F0A4FBACF008D8
:101FB000E687F0A42CFCE435F0FA1809E687F0A4D3
:101FC0002C4B60027401CA35F0FCE433FB09E68750
:101FD000F0D2F7A42CCB35F0FC1908E687F0A42B3F
:101FE000CC35F0FBE433FD0819E687F0D2E7A42CEA
:101FF0004ACB35F0CD3400FC09E687F0D2E7A42DBA
:10200000CC35F0FDE433FA0918E687F0D2F7A42CBA
:10201000CD35F0CA3400FC08E687F0D2E7D2F7A449
:102020002ACC35F07A7E20E70B0ACB33CBCD33CDEB
:10203000CC33CC33CB3350147004ED30E00ED2F1FE
:10204000E4CD3DCDCC3CCC3B5005DA05C2F1EB54A0
:102050007FC63308E63392F0FBE73309E733C39AD0
:10206000502D2B70190C0D4C4D70151806E608C339
:1020700033700D20F10AA2F013F6E418800B40240F
:10208000E4F630F002768018F618F618F68024D3BD
:102090003B14501074FFA2F013F6187680E418F683
:1020A00018F6800FA2F013F618E63303F618ECF6D4
:1020B00018EDF6D0E0FDD0E0FCD0E0FBD0E0FA2255
:1020C000080808EAC0E0EBC0E086F0E7A4FA1809C7
:1020D00086F0E7A42AFA180986F0E7A42AFA180974
:1020E00086F0E7A42AFA1986F0E7A4FBE5F02AFABD
:1020F000190886F0E7A42BFBE5F03AFA190886F0F8
:10210000E7A42BFBE5F03AFA18180986F0E7A4C516
:10211000F02BFBE43AFA1908E7C5F0C6A426F6E569
:10212000F03BFBE43AFA1886F0E7A4F6E5F008265F
:10213000F6E43B08F6E43A08F6D0E0FBD0E0FA22F9
:10214000E4CFC0E0E4CEC0E0E4CDC0E0E4CCC0E049
:1021500075F020C3E633F608E633F608E633F608F2
:10216000E633F6181818EC33FCED33FDEE33FEEFD2
:1021700033FFC3EC9709ED9709EE9709EF9719190B
:1021800019400FFFEC97FC09ED97FD09EE97FE193A
:102190001906D5F0BEECF709EDF709EEF709EFF7F0
:1021A000191919D0E0FCD0E0FDD0E0FED0E0FF220C
:1021B0001222181818181221401222071919192270
:1021C000122207191919080808E618181820E7E05C
:1021D00012214012221818181822090909E71919A2
:1021E0001920E7DC080808E618181820E703022180
:1021F0004012221818181812214012221818181804
:1022000012220719191922E4C397F709E497F7096D
:10221000E497F709E497F722E4C396F608E496F604
:1022200008E496F608E496F6226016080808C6C385
:1022300013C618C613C618C613C618C613C6D5E0EB
:10224000EA227009080808226016181818C6C33355
:10225000C608C633C608C633C608C633C6D5E0EAC4
:1022600022E627F60809E637F60809E637F60809F0
:10227000E637F622E49326F60874019336F60874DE
:10228000029336F60874039336F622C3E697F608EF
:1022900009E697F60809E697F60809E697F622E0B8
:1022A000F608A3E0F608A3E0F608A3E0F622E4931C
:1022B000F608740193F608740293F608740393F613
:1022C00022E6F008A3E6F008A3E6F008A3E6F02271
:1022D000E0FAA3E0FBA3E0FCA3E0FD22CAC0E0E635
:1022E000F0A308DAFAD0E0FA22CAC0E0E0A3C5827F
:1022F000CCC582C583CDC583F0A3C582CCC582C5BC
:1023000083CDC583DAE6D0E0CA22CAC0E0E493A355
:10231000C582CCC582C583CDC583F0A3C582CCC59B
:1023200082C583CDC583DAE5D0E0CA22C3E498F83C
:10233000E499F912236D8026C3E49AFAE49BFBE941
:1023400020E7E912236DE498F8E499F922C3E498B0
:10235000F8E499F912236DE498F8E499F9C3E49A42
:10236000FAE49BFB22EB20E7CFE920E7E0B900107D
:10237000BB0008E88AF084F8AAF022E4FBC8FA223D
:10238000EB70227B10C833C8C933C9335007C39AD6
:10239000C3DBF280069A50012ADBEAC833F4C8C9CD
:1023A00033F4C9FA2275F008E4C833C8C933C93315
:1023B000C99AC99B5004C92AC93BD5F0ECFBC83364
:1023C000F4C8E4C9FA22600C08C6C313C618C613C1
:1023D000C6D5E0F422700422600D18C6C333C608C7
:1023E000C633C6D5E0F41822251810AF08F51840FA
:1023F0000215198008F51840021519D2AF22C0D075
:10240000251810AF08F518500205198008F5185066
:10241000020519D2AFD0D0222518F58210AF08F5E9
:1024200018400215198008F51840021519D2AF8519
:102430001983222518F582E43519F58322E47325E2
:1024400018C582C0E0E51934FFC583C0E0E518C3B4
:10245000958224F910AF0885831985821880088534
:102460008319858218D2AFCEF0A3E520F0A37808B7
:10247000E608F0A3DEFAEFF0A3E58124FBF8E60816
:10248000F0A3E608F0A30808E608F0A3E608F0A326
:1024900015811581D0E0FED0E0F815811581E8C0E6
:1024A000E0EEC0E022851983851882E0A3FEE0A358
:1024B000F5207808E0A3F608DFFAE0A3FFE0A3C068
:1024C000E0E0A3C0E0E0A3C0E0E0A3C0E010AF08FC
:1024D0008582188583198008858218858319D2AF73
:1024E000D083D08222C0D02518C582C0E0E519343F
:1024F000FFC583C0E0E518C3958224F310AF0885BB
:1025000083198582188008858319858218D2AFC8FF
:10251000F0A3E9F0A3EAF0A3EBF0A37908E709F050
:10252000A3D8FAECF0A3EDF0A3EEF0A3EFF0A3D064
:10253000E0F0A3D0E0F0A3D0E0F0A3E520F0A3E525
:10254000F0F0A322851983851882E0C0E0A3E0F9AA
:10255000A3E0FAA3E0FBA37808E0F608A3DFFAE023
:10256000FCA3E0FDA3E0FEA3E0FFA3E0C0E0A3E046
:10257000C0E0A3E0F5D0A3E0F520A3E0A3F5F010C0
:10258000AF0885831985821880088583198582188C
:10259000D2AFD082D083D0E0F8D0E0327403800490
:1025A00074028000C0E0F404122418D0E01222DC8F
:1025B0002274038000CCC0E0EDC0E0E518C39CCCE1
:1025C000AD1950011D10AF068C188D1980068C189E
:1025D0008D19D2AF1222E9D0E0FDD0E0FC227404C4
:1025E0008000CCC0E0EDC0E0E518C39CCCAD195034
:1025F000011D10AF068C188D1980068C188D19D20C
:10260000AF12230AD0E0FDD0E0FC22D083D082C5F7
:10261000F0E493A3C5F0C395F0F5F0E493A3C3955C
:10262000F04005E5F0048001E475F002A42582F590
:1026300082E5F03583F583E493A3C0E0E493C0E042
:1026400022D083D082ECC0E0EDC0E0E493A3FCE4B0
:1026500093A3FDED4C600D12268DEC24FFFCED34B0
:10266000FFFD80EFE493A3FCE493A3FDED4C600D2C
:102670001226CCEC24FFFCED34FFFD80EFD0E0FD12
:10268000D0E0FCE493A3C0E0E493C0E022C0E0C348
:10269000E49396087401939618400FE493667008CB
:1026A00008740193661870007019A3A3C3E493968D
:1026B000087401939618A3A3400DD0E0D0E0D0E0B9
:1026C00002267DA3A3A3A3A3A3D0E022C0E0C0F071
:1026D00088F0E4936670080874019366187000A887
:1026E000F0A3A3700BD0F0D0E0D0E0D0E002267DC4
:1026F000A3A3D0F0D0E0229B9999400000C84217D4
:10270000B7513B0096000000E1000000C20100004C
:10271000000000E8030000640000000A000000015F
:10272000000000456D62726163656C656420000A9B
:102730000D002D00FEFFFFFF6300000002000000FF
:1027400032000000050000003C00000043F301439C
:10275000F20143B43375B5B043A902D2A9D2AF5345
:10276000F4FE53FEFE53F3DF53FDDF438F2053F49B
:10277000FB43FE04C2922274F112243F43B443751A
:10278000B6B012280A8A088B09AE08AF091227CF03
:102790008A088B09EE5508F8EF5509F9E849601BDE
:1027A00090F100780812229F9026F7780C1222AE42
:1027B0007808790C121EF15002D2927F080224A5EB
:1027C000C082C08390F1001222D0D083D0822274C4
:1027D000F112243F90F100780812229F9026FB7896
:1027E0000C1222AE7808790C121F407808121E06CF
:1027F000C3E5089496E5099401A2D265D03340045C
:102800007A0080027A017B0080B1A28550057A00AF
:102810007B00227A017B0022C0E074EB1224E5E504
:10282000BAF508E5BBF509740478081223C6F50A61
:10283000F50B7808121DA99026FF780C1222AE78AD
:1028400008790C121F4090F10078081222C17F080D
:1028500002254453F4F753FEF722C082C083A293AB
:1028600090F104E04006C33344018002C313F0D06A
:1028700083D08222E5C65480F853BEFB53C6BFE521
:10288000C6A2E640FA88C6E5C66870FB43BE04E50A
:10289000C654C74410F5C653E4F375E200E5E454AA
:1028A000FC4401F5E42274F712243FE5E2F508E563
:1028B000E3FF8A828B83E0F8A3E0F9E508C398F888
:1028C000EF99F9C3EC98ED99500F8A828B83E02C35
:1028D000F0A3E03DF07901800279007F020224A597
:1028E00074F712243FC3EB9480500E8A828B83E0EE
:1028F000F508A3E0AA08FB80047A007B007F0202AF
:1029000024A5D2AF22C2AF22E5A8C2AFA2E7E4332A
:10291000FA7B0022EAA2E092AF22EBC313FBEA1398
:10292000FAC3EA9402EB9400401400000000000097
:1029300000000000EA24FFFAEB34FFFB80E322747E
:10294000F812243FEAFEEBFFEEF8EFF9E824FFFE71
:10295000E934FFFFE84960097AE87B0312291A800D
:10296000E77F010224A574F512243FE9FE7A057B76
:10297000F112534B7A487BF112534BEE24FC600565
:10298000146007800A90270380089027078003902F
:10299000270B78081222AEAA08AB09AC0AAD0B12BD
:1029A0004ADE90F3E57401F07F040224A574F3126B
:1029B000243F8A828B838C088D097E007F00800AE9
:1029C000880AEE250AFEEF3400FFC3EE9508EF9566
:1029D00009503AE5822EF50CE5833FF50DEEF8E55A
:1029E00008C398F50AF9AC0CAD0D7A487BF1125387
:1029F0007BE9F870CB7A057B0012293FA90AAC0C61
:102A0000AD0D7A487BF112537BE9F870B3EEFAEF23
:102A1000FB7F060224A50229ADC008ECF9EAFCEB15
:102A2000FD7A057BF112540A8908AA087B00D008B8
:102A300022C0087A057BF112548C80EC53F47F435A
:102A4000FE80D29753F4DF43FE20C29553F4EF5338
:102A5000FEEF53A9F743B90853A9EF43B91022C2B7
:102A60009743FE20022A78D29753FEDF53CBEFC262
:102A7000BB539AEF538DEF22C082C083D2BB90F13B
:102A80009FE4F090F18F122E2CF0538AEFC2EB43AB
:102A90009A10438D10438C028001F9D083D082229A
:102AA000C082C08390F19F7401F0539AEF538DEF71
:102AB00090F18EE4F090F18D122E21F075CD2775F6
:102AC000CB3E80D7C082C083A297401690F19DE094
:102AD000601090F19FE064016008122AA090F19DBF
:102AE000E4F080B7C082C083E9FC78007900800DF3
:102AF0008A828B83E028F8A3AA82AB8309E9C39C6E
:102B000040EE74FF6804022A9A74F412243F8A8209
:102B10008B83E08C828D83122BADAA82AB838C8257
:102B20008D83A38582088583098A828B83E085084B
:102B300082850983122BD4122BD4A3122BDF122BE4
:102B4000DF122BC4A3A882A9838A828B83E0F50CB1
:102B5000EC240BFAED3400FBEAFEEBFFEC240A1A3E
:102B6000ED3400FB8A0A8B0B850882850983E064BB
:102B70000A70098A828B83122BB880268C828D83FF
:102B8000A3A3A3A3A3A3122BB8122BEAA3A3A3125C
:102B90002BF4122BF4122BC4E0850A82850B8312CE
:102BA0002BADE08E828F83F07F050224A5122BB11E
:102BB00022F08A828B83A322E50CF0E8FAE9FB8AF3
:102BC000828B8322A3122BC922122BCD22122BB16E
:102BD0000AAB8322122BC9E08C828D83A3A322121D
:102BE0002BE322122BCD122BEA22E08C828D83A3C1
:102BF000A3A3A322122BE3A3A3A3A322C0E074F2F6
:102C00001224E590F19FE064016003022CC490F16E
:102C10008DE004F024FE602624FB602724FC602F56
:102C200024FB603424FB603724FC603A24FB603DC5
:102C300024FC604024FB604324F56046800CD29560
:102C4000022E0F122E14A2E050F4C295022E0F1283
:102C50002E14A2E140F480E6122E14A2E280F512B6
:102C60002E14A2E380EE122E14A2E480E7122E149A
:102C7000A2E580E0122E14A2E680D9122E14A2E75B
:102C800080D2E4F090F18EE004F090F192E0640ADA
:102C9000700478088002780C90F18EE0C39850168A
:102CA00090F464E02401F8A3E03400F990F464E8BF
:102CB000F0A3E9022E0E53CBEFE4122E21F0122ADC
:102CC00078022E0F53CBEF90F18FE4F090F18CE06F
:102CD0007003022E0F90F190E0603614604A146089
:102CE0005614606214606E14607A147003022D73BF
:102CF000147003022D82147003022DC71470030296
:102D00002DD5147003022DE3147003022DF1022E51
:102D10000D90F18BE090F1A0F064AA6003022E0FF9
:102D200090F1907401022E0E90F18BE090F1A112BF
:102D30002E2C7402022E0E90F18BE090F1A2122E36
:102D40002C7403022E0E90F18BE090F1A3122E2C26
:102D50007404022E0E90F18BE090F1A4122E2C74CC
:102D600005022E0E90F18BE090F1A5122E2C740628
:102D7000022E0E90F18BE090F1A6122E2C74070219
:102D80002E0E90F1A1E0640A90F18B702FE090F18B
:102D9000A7F079057AA17BF1122AE4E9F890F1A66F
:102DA000E06870117CAC7DF17AA07BF1122B099068
:102DB000F19E7401F090F190E4022CBDE090F1A737
:102DC000122E2C7408804790F18BE090F1A8122EFF
:102DD0002C7409803990F18BE090F1A9122E2C749B
:102DE0000A802B90F18BE090F1AA122E2C740B80AC
:102DF0001D90F18BE090F1ABF079097AA17BF11293
:102E00002AE4E9F890F1AAE06870AA8097E4F07FDC
:102E10000102254490F464E0F8A3E0F5838882E0A1
:102E200022F090F4647491F0A374F122F090F19088
:102E300022C0E0C0D0C082C083E58AA2E440030281
:102E40002EE5538AEFC2EB90F18FE0701975CDBA81
:102E500075CBBE90F18B74FFF090F18CF090F18FF8
:102E60007401F0022EF6E5CAC3941E500890F18B4F
:102E7000E0C2E080EDE5CAC39432500890F18BE0E7
:102E8000C2E180DEE5CAC39445500890F18BE0C2F0
:102E9000E280CFE5CAC39459500890F18BE0C2E3B9
:102EA00080C0E5CAC3946D500890F18BE0C2E48005
:102EB000B1E5CAC39480500890F18BE0C2E580A2CE
:102EC000E5CAC39493500890F18BE0C2E68093E585
:102ED000CAC394A7500890F18BE0C2E7808490F1B8
:102EE0008CE4022E62E58AA2E3500B538AF7C2EB10
:102EF00053BEFC43FE04D083D082D0D0D0E03275E4
:102F0000E51C75E61C75E71C75DBFF75DAFF75DDE2
:102F1000FF75DCFF75DFFF75DEFF53F1BF43F10383
:102F2000E5FF543F4480F5FF43F31C2274F812245C
:102F30003FEAF8EBF988828983E0FCA3E0FD888210
:102F40008983A3A3A3A3E0FAA3E0FB88828983A3D8
:102F5000A3E0F8A3E0F974FF6C700374FF6D7004D4
:102F60007CFE7DFF74FF68700374FF69700478FE57
:102F700079FF74FF6A700374FF6B70047AFE7BFF45
:102F8000ECF4FEEDF4FFEEFCEFFDE8F4FEE9F4FFF7
:102F9000EEF8EFF9EAF4FEEBF4FFEEFAEFFBEDF5F5
:102FA000DBECF5DAE9F5DDE8F5DCEBF5DFEAF5DE9B
:102FB0007F010224A590F1B87469F0A3E4F0A37432
:102FC000C8F0A3E4F01239BD12287412274C12285D
:102FD00053122EFF12302F122A3C79061229661244
:102FE00039B91251968003123AE07C887D177AB87D
:102FF0007BF11228A6E970EF7C407DBC7ABA7BF1A8
:103000001228A6E960051239BA80DF12380C123096
:103010001F80D753C9FCE5C954FB4408F5C922E514
:10302000C95408F874A048F5C9745048F5C922C0BD
:1030300082C08390DF2FE4F0A3F0A3F090DF02744E
:1030400020F090DF097412F0A37410F0A3E4F09064
:10305000DF1774C7F0A3E4F0A374B0F090DF03743B
:1030600004F0A37445F090DF077412F0A3E4F0902D
:10307000DF0C741DF0A37455F0A37417F0A3742330
:10308000F0A37411F0A37463F090DF137430F0A315
:103090007438F0A3741DF0A314F090DF1A74B6F026
:1030A00090DF1C74EAF0A3742AF0A3E4F0A3741F69
:1030B000F090DF237488F0A37431F0A37409F090CA
:1030C000DF2774C0F0A374C8F0A37484F0A3746005
:1030D000F0A3742CF0A37434F0A3741DF0A3740E49
:1030E000F043E10490DF3BE0541F640170F643E1DC
:1030F00001E0541F640170F990F20974DFF0A374C9
:10310000D9F074F1F8A3F079C0E9A3F0A37480F0CA
:10311000A37423F0A37413F0A314F0E890F211F059
:10312000E9A3F0A374DFF0A374D9F0A37420F0A393
:1031300004F0A37413F0A37442F043B90143A9014E
:10314000439140439180790412315112321202327C
:1031500032C082C08390DF1BE054F849F002323263
:10316000C082C08390F1BEE070030231F190F1C0E3
:10317000E0C394215006E090F206800590F20674B8
:1031800020F0E0F874C028F874F13400F9888289DE
:1031900083A3E090F208F0E824020808E912334122
:1031A000A2E790F207500474018001E4F08882895C
:1031B00083E4F0FC80238C82AA8274C12AF874F123
:1031C000123341C0E074E32AF58274F11232C4D0A4
:1031D000E0F088828983E4F00C90F206E0F8ECC31A
:1031E0009840D390F1BC7401F090F1BEE4F012323B
:1031F00012803FC082C08390F1BD7410F043D6802E
:1032000074F2F5D575D41143D60112323743E10378
:103210008020C082C08390F1BD7420F074F2F5D597
:1032200075D40943D60175E900539BFC123237432C
:10323000E102D083D08222439A01439110D2AF227F
:10324000C082C08390F1BCE0600A90F207E06004A5
:1032500079018002790080DAC082C08390F1BCE0FD
:103260006401705A90F206E0C0E0EA24231232C1F1
:10327000D0E0F090F207E0C0E0EA24241232C1D09E
:10328000E0F090F208E0C0E0EA24251232C1D0E07C
:10329000F07C00801A8C82A88274E328F58274F195
:1032A0001232C4E0C0E0EA281232C1D0E0F00C9043
:1032B000F206E0F8ECC39840DC90F1BCE4F0023296
:1032C00032F582EB3400F58322C082C08343D6807E
:1032D00090F1BEE4F043E104539AFE75E900539B7C
:1032E000FCC28902323274F812243F90F1BDE064CE
:1032F00020704790DF3BE06401600375E104EA243D
:1033000023F8EB12334190F1C0F07E00801A8E82D8
:10331000AC82EA2C1232C1E0C0E074C12CF5827498
:10332000F11232C4D0E0F00E88828983E0FCEEC353
:103330009C40DB1231F37901800279007F01022485
:10334000A53400F988828983E022C0E074F2122457
:10335000E553E9EF539BFC90F1BDE06420700590CC
:10336000F1BE800612321290F1BF7401F0E5E9540B
:1033700080F5E9600953E97F43E1041231F3E5E99F
:10338000A2E6500953E9BF43E1041232127F010261
:10339000254474E912243F74FF1223E8E98518825A
:1033A000851983F08A108B117418122433E0FAA364
:1033B000E0FB790E750E03750F00EA2423F512EB7E
:1033C0003400F513EA2407F516EB3400F517EA2468
:1033D00003F514EB3400F515EA2402FEEB3400FF8C
:1033E0008A828B83A385820C85830D85188285193B
:1033F00083E060331470030235C61470030236672D
:103400001470030236671470030236B61470030298
:1034100036C4147003023714147003023764147036
:103420000302378B02378E8A828B83740212380430
:1034300012229F741878081222291237FC12229F38
:10344000741078081222298E828F83123802122279
:103450009FE50985148285158312380412229F8AFC
:10346000828B83A3A3A3A3E508F0EC2404FEED3430
:1034700000FF8E828F83A31237A61237A01237A6C1
:10348000A31237B5E08516828517831237B5A3E0FE
:103490008A828B831237C51237D38C828D83A3A384
:1034A000A3A3A3A3A3A3A3E08A828B83A3A312371E
:1034B000C5A3A3E0C0E0EA240B123798D0E0F0ECFB
:1034C000240BFEED3400FF8E0A8F0B8E82F583A352
:1034D000E0C0E0EA240C123798D0E01237A0E0C038
:1034E000E0EA240D123798D0E0F07E007F00850AD4
:1034F00082850B83E0550EF508A3E0550FF509EE24
:10350000C33378081223C6E508F50C850E08850F2D
:1035100009740278081223D585080E85090FE50C79
:1035200070030235B075F003A404F5107800805DD7
:10353000888285820C8E088F09E50875F00AA4F54B
:103540000885F01175F00AE509A42511F509EC25A7
:1035500008F508ED3509F509E508250CF508E50934
:103560003400F509E508240DF582E50912379BE0E2
:10357000C0E08908E50C2508F508E43400F509EAFF
:103580002508F582EB3509F583D0E0F008E8C3950E
:1035900010409DE51029F9EE24010EEF3400FFC321
:1035A000EE9408EF9400A2D265D03350030234EEBB
:1035B0008908EA2508123798A37403F02985128236
:1035C00085138302378A8A828B837402123804122D
:1035D000229F741878081222291237FC12229F7435
:1035E0001078081222298E828F8312380212229FAD
:1035F000E50985148285158312380412229F8A8278
:103600008B831237EC12229F741878081222298AB1
:10361000828B831237EB12229F74107808122229B2
:103620008A828B83A31237EB12229FE509851682CB
:103630008517831237F212229F8A828B83A3A3A35A
:10364000A3A3A3A3A3E508F0E510245DF582E5118B
:1036500012379B1237D38A828B83A3A3A3A3A3120F
:1036600037DC740B02378A8A828B83740212380427
:1036700012229F741878081222291237FC12229FF6
:10368000741078081222298E828F83123802122237
:103690009FE50985148285158312380412229F8ABA
:1036A000828B83A3A3A3A3E508F08A828B831237BE
:1036B000DC740602378A8A828B8374021237A00474
:1036C000F00235BD8A828B8374D012380412229F97
:1036D000741878081222291237FC12229F7410786D
:1036E000081222298E828F8312380212229FE50946
:1036F00085148285158312380412229F8A828B8357
:10370000A3A3A3A3E508F08516828517831237E1EA
:10371000740880768A828B837402F0850C82850D12
:103720008374E012380412229F7418780812222938
:103730008E828F8312380212229F74107808122210
:103740002985148285158312380212229FE5098A81
:10375000828B83A3A3A3A312380412229F8A828B95
:1037600083A3809C8A828B837402F0850C82850DF2
:1037700083041237A0E4F08514828515837403F066
:103780008516828517831237E304F01232E674013E
:103790001223FE7F100224A5F582EB3400F583226C
:1037A000F08E828F83221237AA22E08A828B83A333
:1037B000A3A3A3A3221237B922F08C828D83A3A3E3
:1037C000A3A3A3A322A3A3A3A3A3A3A3A31237B931
:1037D000A3A3221237AAA3A3A3A3F022A3A3A3A364
:1037E000A37403F085128285138322A3A3A3A3A34A
:1037F000E508F0851082851183780822850C828582
:103800000D83E508F08C828D83780822C082C08306
:1038100090F219E0F8740128F0E8601114601314B4
:10382000601514601714601914601BE4F012316005
:10383000801712285A8012122777800D124B22808F
:1038400008122AC480031252A7D083D0822274F7B0
:1038500012243F74FE1223E8E5D5C0E0740112245F
:1038600033D0E01239A38A088B0974057808122333
:10387000D5E58DA2E490F21A50087401F0122A677F
:103880008002E4F090DF1BE090F21CF01232C9E5F8
:10389000F390F21BF075F30053FEFBC2A053BE7F02
:1038A000439A10538AF7438D08C2C753A1FE43A120
:1038B00010D2ADD2AF53BEFBE5BEA2E550FAE5C6CD
:1038C00054F84441F5C6E5C6A2E650FA43BE0443A7
:1038D000C680E5D5C0E07401122433D0E01239A3CC
:1038E00043D68174F490F46DF0A37466F074F4F52B
:1038F000D575D46D75D601E5A254FC4402F5A243FA
:10390000A204E5A5F8E5A56860FBE5A5F8E5A568CE
:1039100060FBE509F5A4E508F5A343C70275BE06FB
:10392000000000E5BE5403600875D701004387011D
:103930000053C7FD7401122433E0F5D58518828544
:103940001983E0F5D475D60153BEFCE5BEA2E5505F
:10395000FA7A017B0012293F53C6BFE5C6A2E640B2
:10396000FA53C6F843BE0490F21BE0F5F390F21A46
:10397000E064017003122A5FE5FEA2E250047E01BA
:10398000800543FE047E0012302F90F21CE090DF91
:103990001BF07906122966EEF974021223FE7F02EB
:1039A0000224A5F0E5D4851882851983F022C2C7C8
:1039B00053A1FE53BEFCC2AD3222023D97C082C06D
:1039C000837B05EB75F006A4F8A9F0741F28F58237
:1039D00074F239F583E4F01BEB70E88012C082C00A
:1039E00083EA4B600A8A828B83A3A3E054FBF0D066
:1039F00083D0822274F112243FE9FE740F12243323
:103A0000780812229FEA4B6048EE14601014600898
:103A100014700F902713800D902717800890271B94
:103A2000800390271F780C1222AEE508850CF0A4C5
:103A3000C508A8F0850DF0A428F8850CF0E509A4C8
:103A400028F5098A828B83E508F0A3E509F012398D
:103A5000DD7F080224A5C082C083EA4B60118A8200
:103A60008B83E0F8A3E0F9E84960047900800279EB
:103A7000010239EF74F512243F89087E067A1D7B16
:103A8000F2EA2402F8EB3400F988828983E05408D2
:103A90007039E054087004E04408F0E054F8FCA3E6
:103AA000E0FD85080AE50A5403FEEC4E44108882C6
:103AB0008983F0A3EDF08A828B83E4F0A3F08A82FD
:103AC0008B83A3A3A3A3F0A3F08010EA2406FAEB50
:103AD0003400FB1EEE70AA7A007B007F040224A54E
:103AE00074F812243F7E1D7FF27508068E828F8344
:103AF000A3A3E0F8540C64087053E854038E828F3B
:103B0000837041E0F8A3E0F9E849600E8E828F836C
:103B1000E024FFF0A3E034FF8032EE2404F8EF3419
:103B200000F9E8FAE9FB8A828B83E0F8A3E0F98ADE
:103B3000828B83E4F0A3F0E84960128882898312C3
:103B4000243D8009E02401F0A3E03400F0EE2406D7
:103B5000FEEF3400FF1508E50870917F010224A5EF
:103B6000C082C08390F3C5E0F8742268701D90F3A2
:103B7000B2E0703390F3C6E0F8A3E0F990F3E3E825
:103B8000F0A3E9F090F3B27402801B74206890F304
:103B9000B27011E0701190F3BF74DCF0A374F3F015
:103BA000A3E480DF7404F0803FC082C08390F3C53B
:103BB000E0642190F3B2701DE0701D90F3BF74DCDF
:103BC000F0A374F3F0A3E4F0A37407F0A3E4F0907F
:103BD000F3B20480027404F0800E80028000C08280
:103BE000C08390F3B27404F0D083D0822280EF229D
:103BF000221223FE7F080224A5F0C3940AE0227457
:103C0000F112243F74FE1223E87C0C7D007A237BA2
:103C100027123D547A127B031228E08B097A127B1B
:103C2000031228E08A0C7A107B031228E0AE098E7A
:103C300008E4F509F50AF50B74087808122242F534
:103C40000DF50EF50F7808790C12226174087808CA
:103C5000122242EBFA8A0C7808790C12226174085D
:103C600078081222427A107B031228E08A0C780826
:103C7000790C1222617E037F0085080C85090D8571
:103C80000A0E850B0FEE33333354F8780C122229C9
:103C9000123D5B5004243080022437F0740F58C06A
:103CA000E07401122433D0E0123BF9500424308038
:103CB000022437123D6D50C1750832750927123D37
:103CC0004C90F4617402F0A374FFF07E017F0075E4
:103CD0000C02750DFF750E00750F00EE3333335473
:103CE000F8780C122229123D5B5004243080022403
:103CF00037F0740F58C0E07401122433D0E0123B47
:103D0000F95004243080022437123D6D50C1123D19
:103D10004C90F463E0F8123D5E500424308002249D
:103D200037F0740F58C0E07401122433D0E0123B16
:103D3000F95004243080022437123D847C027D0037
:103D40007A2F7B27123D547402023BF17C017D00E7
:103D5000AA08AB09122A16124B2222A80CE8C45456
:103D60000F851882851983F0C3940AE022123D84DE
:103D7000124B22EE24FF1EEF34FFFFC39400A2D2A9
:103D800065D03322F07C027D00851882851983AAD4
:103D900082AB83122A162274ED12243F122A318B31
:103DA00009EA45097003023E80122A318A0C8B0D04
:103DB0008A088B09AC08AD097A417BF2122A19E511
:103DC0000824FEFE90F2E4F090F241E06469700392
:103DD000123BFFA3E024FE600C1460161470030273
:103DE0003E75023E8090F244E05407F912315102D0
:103DF0003E807A0080218A82A882744328F58274EA
:103E0000F23400F583E0C0E074C128F58274F23426
:103E100000F583D0E0F00A8A10E4F511F512F513ED
:103E2000850C08850D09F50AF50B902734780812E2
:103E3000227478087910121D4F40BBEE90F2E4F026
:103E40007508C17509F278081225A079087CE57D0E
:103E5000F27A477BF312339274021223FE7C017DC7
:103E6000007AE47BF2122A1690F2E4E0FC7D007AFC
:103E7000C17BF280087C017D007A427BF2122A1617
:103E80007F0C0224A5D083D08222C082C083E9FCAB
:103E9000EAFD7A007B0080081890F3AAE0123EE168
:103EA00090F3A9E0F8A3E0F990F477E0687003A339
:103EB000E069602B90F3A9E0240108A3E03400F945
:103EC00088828983E4936C700E90F3A9E0FAA3E0F2
:103ED000FB18123EE18008E4936D70BCED60B98080
:103EE000A4F5838882E493F890F3A9E028F8A3E08E
:103EF0003400F990F3A9E8F0A3E9F022C082C0836E
:103F0000123F457A007901123E8A023E8574F7120B
:103F1000243FE9FEEAFF123F457A007902123E8A09
:103F2000EA4B601CEE60108A828B83A3A3A3A3A339
:103F3000E4936E70E48009EFF874FF281F0470D9D1
:103F40007F020224A590F475E0F8A3E0F990F3A9AC
:103F5000E8F0A3E9F02274F512243FEAFF8B087A17
:103F600000123F0D7A027904123E8AEA4B60188AE9
:103F7000828B83A3A3E4936F70EA8A828B83A3A3CB
:103F8000A3E493650870DD7F040224A574F712246E
:103F90003FE9FE123F457A007903123E8AEEF8743B
:103FA000FF281E0470F08098C082C0837A007901D7
:103FB000123F0D8A828B83A3A3A3A3A3A3A3E4939D
:103FC000A2E690F3BE500474018001E4F090F3BDCA
:103FD000E4F043BE80D2BDD083D08222C082C083B1
:103FE00090F3AB7402F0A3E4F090F3B2F079031213
:103FF000423075210075220080DD74F612243F9056
:10400000DE0EE0FEE4F090DE11E0F50AA2E4501DC1
:104010007480F090F3B27407F0E5214522600985C1
:10402000218285228312243D90F3B2E4F0E50AA2B6
:10403000E2500B90DE11E4F090F3B2F0807890F350
:10404000B2E0F8740268705790DE16E0FF90F3BF9C
:104050001225B1EFF97A207BDE1242687403122335
:10406000FE8F0890F3C2124205124210E0F8A3E05E
:10407000F9E849600474408002744890DE11F0E869
:10408000497014E521452260098521828522831229
:10409000243D90F3B2E4F0EE90DE0EF00242AE74F6
:1040A0000668700985218285228312243D90F3B22F
:1040B000E0600302419CE50AA2E050DB7508C4758C
:1040C00009F3750A00780812259C79087A207BDEAE
:1040D00012426874031223FE75210075220090F3CA
:1040E000C4E054E0601C24E0700302417624E060E8
:1040F0006F24C0604524E0700302418124E0606BBE
:104100008030A3E014601C24FE601324FE600A24A7
:10411000FC601524FE601680191245B8806C1245AB
:10412000AC80671245A0806212491E805D124A4C25
:10413000805890F3B27404F08058A3E0600E24FA23
:10414000600F24FE601024FE601180E61243DE80C2
:104150003912460080341248EE802F1249EC802A32
:104160007521DA75223B123BDA801F7521DC75223E
:104170003B123BDC801475216075223B123B608052
:10418000097521A975223B123BA990F3B2E06404A2
:10419000700474608002744090DE11F090F3B2E01D
:1041A000F8740168704B750A0290F3C2E0F8A3E05E
:1041B000F9C3E89420E994005007E8FF750A0A80E3
:1041C000027F2090F3BF1225B1EFF97A207BDE1237
:1041D000428C74031223FE8F08124210124205E52E
:1041E0000A90DE11F0EFC394204003024097024092
:1041F00083740568600302409785218285228312BB
:10420000243D024097C3E09508F0A3E09400F0221B
:1042100090F3BFE0F9A3E0FAA3E0FBE92508F9EA8F
:104220003400FA90F3BFE9F0A3EAF0A3EBF0A32285
:1042300074F712243F7800880874B32508F5827457
:10424000F312425C40F17800880874B82508F582C2
:1042500074F312425C40F17F020224A53400F5831E
:10426000E9F008E8C394052274F612243FEAFCEB57
:10427000FDE9F8740A1224331242BE600D8C828D5F
:1042800083E0121D931242B370F3802274F612245D
:104290003FEAFCEBFDE9F8740A1224331242BE60D7
:1042A0000D121D798C828D83F01242B370F37F035F
:1042B0000224A5E9240109EA3400FA18E822E0F50D
:1042C00008A3E0F509A3E0A908AA09FBE82274F70E
:1042D00012243F7523007524007525008A268B273C
:1042E000EA90DE0BF08A088B09740478081223C662
:1042F000E50890DE07F08A088B0974097808122314
:10430000C6E508543E90DE09F0438C10758900C262
:10431000C5758B00C2E8439A027F020224A5C0E063
:1043200074F11224E5E5BEA2E650FA90DE06E0FA4A
:10433000A2E25035A826E890DE0BF0F508852709A3
:10434000740478081223C6E50890DE07F085260875
:10435000852709740978081223C6E508543E90DEC3
:1043600009F090DE01E0D2E0F07823EA46F690DE34
:1043700002E0F508750900740478081223D5782343
:10438000E50846F608E50946F690DE04E0F508750E
:104390000900740978081223D57824E50946F6EA5D
:1043A000A2E0500375250174065A600375250012BA
:1043B0003BF0758B00C2E87F02022544C0E074F236
:1043C0001224E5E5BEA2E650FAE589A2E75005C24F
:1043D000BD124ACD758900C2C57F0102254474F71C
:1043E00012243F1249E17011A3E0F8A3E0700AA380
:1043F000E064027002A3E0600890F3B27404024427
:10440000B190F3C4E02480600814602A14603780FF
:10441000E8E870E590F3BEE060047801800278007F
:1044200090F3CCE8F0A3E4F090F3BDE0606890F383
:10443000CCE04402805C90F3ABE0640470BB90F38A
:10444000CCE4F0A3804FE8547FF50890F3ABE06430
:104450000470A6E508C39406509F74AB2508F58246
:1044600074F33400F583E854806010A3A3A3A3A3DE
:10447000A3A3E06403701578018013E582240CF592
:1044800082E5833400F583E0640360EB780090F309
:10449000CCE8F0A3E4F090F3B2E06404601490F38D
:1044A000BF74CCF0A374F3F0A3E4F0A37402124A37
:1044B00043F0024AC374F712243FE9FE90F3CA1294
:1044C00049E4701090F3ABE06404601090F3C812FC
:1044D00049E4600890F3B2740402459A90F3C4E092
:1044E000541F600814600D14602480E890F3C6E047
:1044F00064016005790002459DEE90F3BDF0600413
:104500007905800279067A00123BEF02459B90F311
:10451000C8E0547FFA90F3C6E070D9EAC39406501D
:10452000B3EA90DE0EF08A0874AB2508F874F33411
:1045300000F990F3C8E05480602CEE6004741080A1
:1045400002744090DE11F0EE600474038001E48890
:10455000828983A3A3A3A3A3A3A3F0EE6004790895
:1045600080317907802DEE60047420800274809081
:10457000DE14F0EE600474038001E4C0E0E8240C73
:10458000F582E93400F583D0E0F0EE6004790A802A
:10459000027909123BEF90DE0EE4F07901024AC382
:1045A00079001244B5E97003123BDE22790112440E
:1045B000B5E97003123BED22C082C08390F3C812AC
:1045C00049E47015A31249E4700F90F3C6124785B1
:1045D0005480FAE9FBEA4B600790F3B27404801A46
:1045E000E890DE00F090F3AB6009E06402700C74B8
:1045F000038007E0640370037402F0D083D082224A
:1046000074F312243F90F3C6E0FAA3E01460081498
:104610006019146047804C123EFC124766A37B80F1
:10462000121D79A3F0A3E4F00247207900123F0D98
:104630001247667B80E924020909EA3400FA121D58
:1046400079FC1919E0FAA3E92403090909EA3400FD
:10465000FA121D79F9ECA3F0A3E980CBEAF9123F35
:104660008C80B790F3BFE4F0A3F0A3F0F50B90F4C7
:1046700079E0FAA3E0FB0246FB75090074037808B1
:104680001223D5EA2508F8EB3509F990F3C612474D
:104690007BE493C0E0EFFCD0E06C705DA3E4936E2C
:1046A000705790F3C812477BA3A3E493C0E0EFFCDC
:1046B000D0E06C704488828983A3A3A3E4936E70D6
:1046C0003888828983A3A3A3A3E493F50874019394
:1046D000F50990F3BFE508F0A3E509F0A37480F0B5
:1046E00088828983A3A3A3A3A3A3E493F87401936B
:1046F000F990F3C2E8F0A3E9F0050B850B0890F4FC
:104700007B124785C39AF50CE99BF50D7403780C71
:104710001223C6C3E508950CE4950D5003024679B3
:1047200090F3BFE0FCA3E0FDA3E0FEEC4D4E90F360
:10473000B2700474048029E06404602590F3CAE038
:10474000FAA3E0FB90F3C2E0F8A3E0F9C3EA98EB28
:1047500099500890F3C2EAF0A3EBF090F3B2740121
:10476000F07F060224A590F3BFEAF0A3EBF0A37458
:1047700080F090F3BFE0F9A3E0FA22E0FEA3E0FFAF
:104780008882898322E0F8A3E0F9E82274EE1224FB
:104790003FEA2404F8EB3400F9880889098882F597
:1047A00083E493602590F47D124785FEE98007EE4F
:1047B0002404FEEF3400FF8E828F83E493F87401AB
:1047C00093F9EA687002EB6970E5750C008040901F
:1047D000DE147490F074101248E27003750D408E70
:1047E000828F83A3A3A3E49355106006E50DD2E066
:1047F000F50DE50D90DE15F0EA90DE13F0EC240CDB
:10480000F582ED3400F583E4F090DE0EF0050C85C2
:104810000882850983E493F8E50CC39840030248B5
:10482000DD7A007905123E8A8A0E8B0FEA450F6009
:10483000DCEA2402F8EB3400F9880A890B8882F557
:1048400083E493540FF51290DE0EF0750D008A820A
:104850008B83A3A3A3A3E4932407F510A3E49334C9
:1048600000F511740378101223C6AA108512107473
:10487000AB2510F874F33400F9E8FCE9FD7510017C
:10488000751100E51278101223D5E50E2403F8EB1C
:104890003400F9850A82850B83E493A2E740030282
:1048A00047CF90DE117448F074081248E270037527
:1048B0000D408E828F83A3A3E49355106006E50D0F
:1048C000D2E0F50DE50D90DE12F0EA90DE10F08CEE
:1048D000828D83A3A3A3A3A3A3A30248077F0B02F4
:1048E00024A5F088828983E4935403640122C08262
:1048F000C0831249E17010A31249E4700AA3E06476
:10490000017002A3E0600790F3B27404800C90F38E
:10491000BF74ACF0A374F3124A39F00245FB74F48F
:1049200012243F90F3ABE06402601490F3C8124984
:10493000E4700CA31249E4700690F3C7E06009909C
:10494000F3B27404F00249DC7A007901123BEF9073
:10495000F3C6E060727A00F9123F0D8A088B09EA0B
:104960004509605B90F3AB7404F090F3C6E090F3FC
:10497000ACF0750C00850882850983A3A3A3A3E48A
:1049800093F8E50CC398504D850C0A74AD250AF8D0
:1049900074F33400F9E8FEE9FF8E828F83E4F07A45
:1049A000007904123E8A8A828B83A3A3A3E493F83E
:1049B0008E828F83E06870E712478C050C80B6907A
:1049C000F3B27404F0800E90F3ACF090F3AB740388
:1049D000F0F91242307A007902123BEF7F0502248F
:1049E000A590F3C6E0F8A3E0F9E8492274F6122492
:1049F0003F90F3ABE06404701990F3C4E0648170FD
:104A0000111249E1700C90F3CAE064017002A3E056
:104A1000600790F3B27404801A90F3C8E024ADF5F7
:104A200008A3E034F3F50990F3BFE508F0A3E50926
:104A3000124A39F07F030224A5F0A3E4F0A3041284
:104A40004A4322F0A3E4F090F3B2042274F7122454
:104A50003F90F3ABE06404701090F3C4E064017025
:104A60000890F3CA1249E4600890F3B27404F0802D
:104A70005290F3C6E0FB90F3C8E0FA90F3ACE0F993
:104A8000123F568A088B09AE08AF09EE4F60DA90E4
:104A9000F3C8E0FA7903123BEF90F3C6E0C0E09070
:104AA000F3C8E024ADF8A3E034F3F988828983D019
:104AB000E0F0EEFAEFFB12478C90F3C8E0FA7904CD
:104AC000123BEF7F020224A5D083D08222C082C095
:104AD0008390F3D3E4F0A3F0A3F0A3F080EA74F59D
:104AE00012243F8A088B098C0A8D0B90F3DC78081E
:104AF0001222C1A3E4F0A3F0A37408F090F3E3E45E
:104B0000F0A3F090F3E504F0123FA87AFF7BFF12C8
:104B100042CE53F5FED2A043FF011229027F0402C8
:104B200024A574F212243FA823E8540460097823D2
:104B3000E654FBF6123FDCA823E854106009782302
:104B4000E654EFF6123FFAA823E8A2E0500E7823CD
:104B500054FEF612280A7823E654FDF690F3E5E0B9
:104B60007003024C3C90F3E3E0F8A3E0F9E84970ED
:104B700003024C3C12290590DE0E124C5B750CE6CC
:104B8000750DF3750E0090DE14E0A2E0505C90DE2F
:104B900016E0F8A3E08808124C41F895E0F9850882
:104BA0000AC3E8950AE99400A2D265D033500612F0
:104BB0004C41FE8002AE08EE6030780C12259CEE6F
:104BC000F97A287BDE12426874031223FEEEF97C28
:104BD000E67DF37A057BF112537BEE6508700B904E
:104BE000DE0E7404F090DE14E4F0124C4F1229052E
:104BF000124C5B90DE11E0A2E0403E7A487BF1125D
:104C0000548CE9FF6033C3944140027F40EFF97C4C
:104C1000E67DF37A487BF112540A780C12259CEF5A
:104C2000F97A287BDE12428C74031223FE90DE0E8A
:104C30007404F090DE117401F0124C4F7F070224CF
:104C4000A57A057BF112548CE9F87440C398229040
:104C5000F426E090DE0EF012290222E090F426F015
:104C600090DE0E7404F022F50D3395E0F50EF50F8D
:104C70002274ED12243F74FA1223E8E9FE8A088BAD
:104C8000098C0A8D0B780A122641000002000100EF
:104C90009D4CFF00A34D984CAF08024E0E124FDD05
:104CA000124FEC7583F4758282C3E098A3E09950AB
:104CB0001190270F1225DE790090F42F12529312D3
:104CC00023FE124FDDC082C083124FE97A027B00BF
:104CD000122365880A890BD083D082E0C3950AFA33
:104CE000A3E0950BFB12549F8A0C8B0DEB124C69C1
:104CF000124FE97A047B001223658810E9F511331D
:104D000095E0F512F513780C791012228B74017866
:104D10000C12224290F45A780C1222C190270F787C
:104D20000C1222AE7583F475825A780C121D6450F1
:104D30001090270F780C1222AE90F45A780C1222A1
:104D4000C190F45A781012229F902738780C1222C2
:104D5000AE7810790C1220C090F482E0F50CA3E03C
:104D6000124C677810790C1221DAE5093395E0F5D9
:104D70000AF50B781079081220C0740178101222FD
:104D80004290271778081222AE781079081221DA9B
:104D900090F45A78101222C190F45A780812229F87
:104DA000024C9890F484E060477F051251851222EE
:104DB000AE7808790C121F407808121E06A808A9C0
:104DC00009C3E89468E9940150047E00800E7E04D3
:104DD000C3E89490E9940140031E1E1E124FF26036
:104DE0002D90F484E4F090271B1225DE79038015C2
:104DF0007F00124FF2601790F4847401F09027172F
:104E00001225DE790090F4311252931223FEEE1235
:104E1000260B0010554F384E464E5D4E744E7E4E5A
:104E20008B4E9D4EAD4EBD4ED54EE34EED4EFE4EDD
:104E30000F4FFE4E284F394F85188285198374FF16
:104E4000F0A3E4024F42851882851983E4F0A3F0B1
:104E5000740212243374FFF0A3E4024F4B12502368
:104E6000122433E4F0A3F0740412243374FFF0A38B
:104E7000E4024F54125030122433741E80D9125061
:104E80003012243374FFF0A3E480DB125023122489
:104E900033746412501512243374FF80D1125030D1
:104EA00012243312501C122433742380C112503048
:104EB00012243312501C122433745080B18518828E
:104EC000851983749612503812243312501C122400
:104ED0003374CD809985188285198374FFF0A3E41B
:104EE000024E4F85188285198374C880F0125023B2
:104EF000122433125013122433740F024E6E1250C8
:104F00002312243312501312243374AF024E6E85D1
:104F10001882851983749612503812243312501C4B
:104F20001224337496024E6E125023122433125000
:104F30001C12243374FE024E6E851882851983E498
:104F4000F0A3F07402122433E4F0A3F074041224EA
:104F500033E4F0A3F08F82AC828518828519831226
:104F60004FFA12236D8808ECF88508F0A4C8AAF05F
:104F700089F0A42AF9851882851983E8F0A3E9F05D
:104F80007402122433124FFA12236D8808ECF8854C
:104F900008F0A4C8AAF089F0A42AF97402122433F4
:104FA000E8F0A3E9F07404122433124FFA12236DCF
:104FB000EC88F0A4CCA8F089F0A428FD7404122495
:104FC00033ECF0A3EDF0851882851983AA82AB83B8
:104FD000122F2C74061223FE7F0C0224A590F42FAE
:104FE000E0F8A3E0F58388822290F482E0F8A3E061
:104FF000F92290F431125338E922E0F8A3E0F9E8FD
:1050000075F0FFA4F8AAF075F0FFE9A42AF97A6414
:105010007B002274FFF0A3E4F0740422E4F0A3F018
:10502000740422851882851983E4F0A3F0740222A7
:1050300085188285198374FFF0A3E4F0740222744A
:10504000F712243F90F485740BF090F45FE0600F4A
:105050001460291460361470030251010251381291
:105060005149F090273C1225DE790390F431125219
:10507000931223FE90F45F7401025137124FF270C5
:105080000302513890F45F7402025137125149748F
:1050900010F07C007D007A057B00F9124C717A0FCC
:1050A0007B0012384EE9601D12514904F090271B15
:1050B0001225DE790290F4311252931223FE90F4FD
:1050C0005F7403807212277790F482E4F0A3F012E9
:1050D000513D12280A8B09EA450960151227CF8B2A
:1050E00009EA450990F48160047403800874018022
:1050F0000490F481E4F09027401225DE79000250FC
:105100006B124FF2603290F45E74FFF090274412FD
:1051100025DE12528E1223FE9027481225DE7903D7
:1051200090F42B1252931223FE90F4857401F090A8
:10513000F460E4F090F45FF07F020224A590F4594B
:105140007405F090F45EE4F02212513D90F4812257
:1051500074F112243F1251851222AE7808790C1294
:105160001F407808121E06C3E5089468E5099401FB
:10517000A2D265D0335009740A4428700312503FFC
:105180007F080224A51227C08A088B098C0A8D0B80
:105190009026FB780C2274F112243F123013122750
:1051A000777900123A7490F429EAF0A3EBF0902793
:1051B000441225DE12528E1223FE7900123A7490A8
:1051C000F42BEAF0A3EBF09027481225DE79039048
:1051D000F42B1252931223FE7900123A7490F427A2
:1051E000EAF0A3EBF07900123A7490F43112529E77
:1051F0001225DE790390F4311252931223FE7901C5
:10520000123A7490F42D12529E1225DE790090F419
:105210002D1252931223FE7901123A7490F42F1238
:10522000529E1225DE790090F42F1252931223FE23
:105230007907123151122A6790F4867401F090F4C4
:1052400085E4F01251851222AE7808790C121F40C5
:105250007808121E06C3E5089491E5099401A2D2CC
:1052600065D03390F481400E7404125341FCFD7AF2
:1052700064FB790480127410F090F459E4F090F417
:105280005EF0FCFDFAFB7910124C7102518079033B
:1052900090F429E0FAA3E0FB1239F4740422EAF056
:1052A000A3EBF090271F22C082C08312515012320C
:1052B00040E960467A337BF412325890F457E0604C
:1052C00039A3E0C0E090F456E0F8743328F5827416
:1052D000F43400F583D0E0F090F456E02401FCE4CF
:1052E0003400FD7A337BF4122A1690F481E06402D4
:1052F0007003E48002740212534190F4857401F04B
:1053000090F429124FF5600C9027441225DE1252BA
:105310008E1223FE122A3190F43112533890F45E2B
:10532000E0FC7D0090F459E0FA7B0090F481E0F914
:10533000124C71D083D08222E0FAA3E0FB123A56DD
:1053400022F090F45974641251422274F712243FEF
:10535000EAFEEBFF122908EE2440125371EE2441BD
:10536000125371EE24421253711229147F02022447
:10537000A5F582EF3400F583E4F02274F312243FA4
:10538000EAFEEBFF8C088D09890A122908EE2440F9
:10539000F8EF3400F988828983E0850A0C250CFC3B
:1053A000E43400FDEC9440ED9400C365D033750BFC
:1053B00000504DEE2442FCEF3400FD8034850B0C90
:1053C000E508250CF582E509125486C0E08C828D33
:1053D00083E0F50CEE250CF582EF3400F583D0E088
:1053E000F08C828D83E004F0E064407002E4F0050C
:1053F0000BE50BC3950A40C588828983E0250BF035
:10540000122914A90B7F060224A574F312243FEA83
:10541000FEEBFF8C088D09890A122908750B00EE36
:105420002441F8EF3400F9EE2440FCEF3400FD8015
:105430003188828983E0F50CEE250C125483C0E09C
:10544000850B0CE508250CF582E5093400F583D0C1
:10545000E0F088828983E004F0E064407002E4F0C8
:10546000050BE50BC3950A500E8C828D83E0F50C7D
:10547000E50BC3950C40BA8C828D83E0C3950BF08D
:10548000025400F582EF3400F583E022C082C0832D
:10549000EA2440F582EB125486F9D083D08222C3ED
:1054A000EB9400A2D265D0334005EAF8EB8006C346
:1054B000E49AF8E49BF9E8FAE9FB22FFFFFFFFFF1B
:1054C000FFFFFFFFFFFFFFFFFFFFFFFFFFFFFFFFEC
:1054D000FFFFFFFFFFFFFFFFFFFFFFFFFFFFFFFFDC
:1054E000FFFFFFFFFFFFFFFFFFFFFFFFFFFFFFFFCC
:1054F000FFFFFFFFFFFFFFFFFFFFFFFFFFFFFFFFBC
:0400000500001C5B80
:00000001FF
