:020000040000FA
:10000000021C5BFFFFFFFFFFFFFFFF0228B6FFFFA1
:10001000FFFFFFFFFFFFFFFFFFFFFFFFFFFFFFFFF0
:10002000FFFFFFFFFFFFFFFFFFFFFF023CFAFFFFA5
:10003000FFFFFF024BDBFFFFFFFFFFFFFFFFFFFFA5
:10004000FFFFFFFFFFFFFFFFFFFFFFFFFFFFFFFFC0
:10005000FFFFFFFFFFFFFFFFFFFFFF023045FFFF36
:10006000FFFFFFFFFFFFFFFFFFFFFF024C79FFFFD6
:10007000FFFFFFFFFFFFFFFFFFFFFF023331FFFF27
:06008000FFFFFF0238281B
:101C000000000080FB121C6AB90003021C55E47935
:101C1000217807B800028004F709D8FCE490F100AD
:101C20007897790A8002F0A3D8FCD9FA90FA96AA9C
:101C300082AB83901C6D781779018015E493A3AC77
:101C400082AD838A828B83F0A3AA82AB838C828D40
:101C500083D8E9D9E71234B5121C0075D00075811C
:101C6000BF7518007519F1021C057901229CF18ECF
:101C70001C3B1D3B1D3B1D3B1D431D040AB80B01B6
:101C800001FFFFFF43AE010022FF43AE022212011B
:101C90000002020000205104A616090001020301FF
:101CA0000902430002010080190904000001020238
:101CB000010005240010010424020205240600018D
:101CC00005240100010705820340004009040100CA
:101CD000020A000000070584024000010705040213
:101CE00040000104030904240354006500780061E6
:101CF000007300200049006E0073007400720075CC
:101D0000006D0065006E00740073001E0343004305
:101D100000310031003100310020005500530042F5
:101D20000020004300440043001203300030003024
:101D30000030003000300030003000A91C0000CC22
:101D40001C0000C3E09608A3E09608A3E09608A351
:101D5000E096A2D265D03322BB0102E722C082C046
:101D60008389828A83BB0003E08002E493D083D01E
:101D70008222BB000EC082C0838A838982F0D08316
:101D8000D08222BB0101F722E9799EC608CAC608A3
:101D9000CBC608CCC6C370207996CACBCC70197953
:101DA0008ECBCC70137986CC700EF9802ACA33CAD8
:101DB000CB33CBCC33CC331930E7F2CCCBCA335056
:101DC000147004EA30E00DE4CA3ACACB3BCBCC3CF9
:101DD000CC500209C3E913C6CC182313C6CB18C6CE
:101DE000CA18C6F922121E2520F01430E72B74FF02
:101DF000FCFBFA747F8022E4FCFBFA7480801AB446
:101E00008008BC00F2BB00EF800F50EBF9E4C39AEE
:101E1000FAE49BFBE49CFCE499C6CC18C6CB18C63C
:101E2000CA18C6F922E4C9C608CAC608CBC6D33345
:101E30000308CCC63392F0C3947F402E9418401907
:101E4000C9B90704CACBCC225025C309CA33CACBAF
:101E500033CBCC33CC33D9F422F4600DC9CCC313CB
:101E6000CB13CBCA13CAD9F6CC22E4FCFBFA22145A
:101E7000FCFBFA22E6C33318461846184622E7C38D
:101E80003319471947194722181818E608460870E9
:101E90000AE608C3337005E633F42208221919193B
:101EA000E7094709700AE709C3337005E733F422ED
:101EB0000922E6084608C3134608336002E633F4F5
:101EC00022E7094709C3134709336002E733F422C5
:101ED000121EB2601C121EC16017121E747007120F
:101EE0001E7E7001D322C0D0121E7E7006D0D0B3E9
:101EF00022C32233D0D0501430E0F6C3E79608094D
:101F0000E7960809E7960809E796B32220E0D5E6A8
:101F1000970809E6970809E6970809E697B32200AB
:101F2000121EB2604F121EC16012E7548066F61294
:101F30001E887011121E7E703B090909F4F618F60E
:101F400018F618F622121E9D7015121E7408080845
:101F500060EAE6447FF618768018E4F618F6221256
:101F60001E746016121E7E7012E4F608F608F6085B
:101F7000E65480F609090918181822EAC0E0EBC0F7
:101F8000E0ECC0E0EDC0E0E687F0A4FBACF008E6D2
:101F900087F0A42CFCE435F0FA1809E687F0A42CAD
:101FA0004B60027401CA35F0FCE433FB09E687F0AC
:101FB000D2F7A42CCB35F0FC1908E687F0A42BCC83
:101FC00035F0FBE433FD0819E687F0D2E7A42C4A8C
:101FD000CB35F0CD3400FC09E687F0D2E7A42DCC58
:101FE00035F0FDE433FA0918E687F0D2F7A42CCDDA
:101FF00035F0CA3400FC08E687F0D2E7D2F7A42A0D
:10200000CC35F07A7E20E70B0ACB33CBCD33CDCC69
:1020100033CC33CB3350147004ED30E00ED2F1E406
:10202000CD3DCDCC3CCC3B5005DA05C2F1EB547F25
:10203000C63308E63392F0FBE73309E733C39A501F
:102040002D2B70190C0D4C4D70151806E608C33376
:10205000700D20F10AA2F013F6E418800B4024E47E
:10206000F630F002768018F618F618F68024D33B86
:1020700014501074FFA2F013F6187680E418F618C6
:10208000F6800FA2F013F618E63303F618ECF618F4
:10209000EDF6D0E0FDD0E0FCD0E0FBD0E0FA220885
:1020A0000808EAC0E0EBC0E086F0E7A4FA18098669
:1020B000F0E7A42AFA180986F0E7A42AFA18098694
:1020C000F0E7A42AFA1986F0E7A4FBE5F02AFA194A
:1020D0000886F0E7A42BFBE5F03AFA190886F0E74A
:1020E000A42BFBE5F03AFA18180986F0E7A4C5F02E
:1020F0002BFBE43AFA1908E7C5F0C6A426F6E5F08A
:102100003BFBE43AFA1886F0E7A4F6E5F00826F679
:10211000E43B08F6E43A08F6D0E0FBD0E0FA22E42B
:10212000CFC0E0E4CEC0E0E4CDC0E0E4CCC0E075D8
:10213000F020C3E633F608E633F608E633F608E6A1
:1021400033F6181818EC33FCED33FDEE33FEEF33A5
:10215000FFC3EC9709ED9709EE9709EF9719191945
:10216000400FFFEC97FC09ED97FD09EE97FE19195A
:1021700006D5F0BEECF709EDF709EEF709EFF71910
:102180001919D0E0FCD0E0FDD0E0FED0E0FF221233
:1021900021F718181812211F1221E61919192212F5
:1021A00021E6191919080808E618181820E7E0129E
:1021B000211F1221F718181822090909E7191919FE
:1021C00020E7DC080808E618181820E70302211F9A
:1021D0001221F718181812211F1221F718181812B7
:1021E00021E619191922E4C397F709E497F709E4DE
:1021F00097F709E497F722E4C396F608E496F60801
:10220000E496F608E496F6226016080808C6C3139A
:10221000C618C613C618C613C618C613C6D5E0EA34
:10222000227009080808226016181818C6C333C699
:1022300008C633C608C633C608C633C6D5E0EA2288
:10224000E627F60809E637F60809E637F60809E64C
:1022500037F622C3E697F60809E697F60809E697E7
:10226000F60809E697F622E0F608A3E0F608A3E0F0
:10227000F608A3E0F622E493F608740193F60874D6
:102280000293F608740393F622E6F008A3E6F0083A
:10229000A3E6F008A3E6F022E0FAA3E0FBA3E0FC4B
:1022A000A3E0FD22EAF0A3EBF0A3ECF0A3EDF02213
:1022B000CAC0E0E6F0A308DAFAD0E0FA22CAC0E029
:1022C000E0A3C582CCC582C583CDC583F0A3C582FA
:1022D000CCC582C583CDC583DAE6D0E0CA22CAC0A8
:1022E000E0E493A3C582CCC582C583CDC583F0A3AA
:1022F000C582CCC582C583CDC583DAE5D0E0CA22CC
:10230000C3E498F8E499F91223418026C3E49AFAC9
:10231000E49BFBE920E7E9122341E498F8E499F90A
:1023200022C3E498F8E499F9122341E498F8E49977
:10233000F9C3E49AFAE49BFB22EB20E7CFE920E71C
:10234000E0B90010BB0008E88AF084F8AAF022E4A3
:10235000FBC8FA22EB70227B10C833C8C933C933DB
:102360005007C39AC3DBF280069A50012ADBEAC801
:1023700033F4C8C933F4C9FA2275F008E4C833C885
:10238000C933C933C99AC99B5004C92AC93BD5F07E
:10239000ECFBC833F4C8E4C9FA22600D08C6A2E712
:1023A00013C618C613C6D5E0F322600C08C6C313C3
:1023B000C618C613C6D5E0F422700422600D18C6F4
:1023C000C333C608C633C6D5E0F41822251810AFAB
:1023D00008F518400215198008F51840021519D2A1
:1023E000AF22C0D0251810AF08F51850020519808B
:1023F00008F51850020519D2AFD0D0222518F58261
:1024000010AF08F518400215198008F5184002159C
:1024100019D2AF851983222518F582E43519F58381
:1024200022E4732518C582C0E0E51934FFC583C0D6
:10243000E0E518C3958224F910AF088583198582D9
:10244000188008858319858218D2AFCEF0A3E520C5
:10245000F0A37808E608F0A3DEFAEFF0A3E5812404
:10246000FBF8E608F0A3E608F0A30808E608F0A3E6
:10247000E608F0A315811581D0E0FED0E0F81581C3
:102480001581E8C0E0EEC0E022851983851882E05E
:10249000A3FEE0A3F5207808E0A3F608DFFAE0A3A6
:1024A000FFE0A3C0E0E0A3C0E0E0A3C0E0E0A3C081
:1024B000E010AF0885821885831980088582188509
:1024C0008319D2AFD083D08222C0D02518C582C054
:1024D000E0E51934FFC583C0E0E518C3958224F315
:1024E00010AF088583198582188008858319858235
:1024F00018D2AFC8F0A3E9F0A3EAF0A3EBF0A379F8
:1025000008E709F0A3D8FAECF0A3EDF0A3EEF0A3EE
:10251000EFF0A3D0E0F0A3D0E0F0A3D0E0F0A3E58B
:1025200020F0A3E5F0F0A322851983851882E0C08E
:10253000E0A3E0F9A3E0FAA3E0FBA37808E0F60843
:10254000A3DFFAE0FCA3E0FDA3E0FEA3E0FFA3E02D
:10255000C0E0A3E0C0E0A3E0F5D0A3E0F520A3E055
:10256000A3F5F010AF08858319858218800885834C
:1025700019858218D2AFD082D083D0E0F8D0E03273
:102580007403800474028000C0E0F4041223FCD0C1
:10259000E01222B02274038000CCC0E0EDC0E0E580
:1025A00018C39CCCAD1950011D10AF068C188D19A5
:1025B00080068C188D19D2AF1222BDD0E0FDD0E07C
:1025C000FC2274048000CCC0E0EDC0E0E518C39CA0
:1025D000CCAD1950011D10AF068C188D1980068CDA
:1025E000188D19D2AF1222DED0E0FDD0E0FC22D04F
:1025F00083D082C5F0E493A3C5F0C395F0F5F0E471
:1026000093A3C395F04005E5F0048001E475F00262
:10261000A42582F582E5F03583F583E493A3C0E039
:10262000E493C0E022D083D082ECC0E0EDC0E0E4CF
:1026300093A3FCE493A3FDED4C600D122671EC24F2
:10264000FFFCED34FFFD80EFE493A3FCE493A3FDD6
:10265000ED4C600D1226B0EC24FFFCED34FFFD8044
:10266000EFD0E0FDD0E0FCE493A3C0E0E493C0E051
:1026700022C0E0C3E49396087401939618400FE4D7
:102680009366700808740193661870007019A3A30C
:10269000C3E49396087401939618A3A3400DD0E069
:1026A000D0E0D0E0022661A3A3A3A3A3A3D0E0229D
:1026B000C0E0C0F088F0E493667008087401936687
:1026C000187000A8F0A3A3700BD0F0D0E0D0E0D039
:1026D000E0022661A3A3D0F0D0E0229B99994000AC
:1026E00000C84217B7513B0096000000E10000000F
:1026F000C2010000000000E8030000640000000ABE
:1027000000000001000000456D62726163656C6548
:102710006420004261747465727920737461747509
:1027200073200052616D206572617365204F4B0A02
:102730000D00466C617368206572617365204F4BB4
:102740000A0D00426C6F636B2072656164204F4B11
:102750000A0D00426C6F636B207772697465204FBD
:102760004B0A0D00426C6F636B20696E76616C6979
:10277000640A0D000A0D426C6F636B206C6F61641C
:10278000204F4B0A0D0042756666657220696E76B1
:10279000616C69640A0D00537461727420626F6F1A
:1027A000746C6F616465720A0D00436F6D6D756EB8
:1027B000636174696F6E2074696D656F75740A0D5D
:1027C000000A0D00202D204368617267696E670A58
:1027D0000D00202D2046756C6C0A0D002D00630045
:1027E000000014000000FEFFFFFF43F30143F2016D
:1027F00043B43375B5B043A902D2A9D2AF53F4FEA6
:1028000053FEFE53F3DF53FDDF438F2053F4FB43AE
:10281000FE04C2922274F112242343B44375B6B06D
:102820001228A88A088B09AE08AF0912286D8A08F9
:102830008B09EE5508F8EF5509F9E849601B90F14E
:102840000078081222679026DB780C12227678082E
:10285000790C121ED05002D2927F08022489C082C5
:10286000C08390F100122298D083D0822274F1129A
:10287000242390F10078081222679026DF780C124A
:1028800022767808790C121F1F7808121DE5C3E51F
:10289000089496E5099401A2D265D03340047A00E9
:1028A00080027A017B0080B1A28550057A007B000E
:1028B000227A017B0022C0E074EB1224C9E5BAF54C
:1028C00008E5BBF509740478081223AAF50AF50B8C
:1028D0007808121D889026E3780C12227678087901
:1028E0000C121F1F90F10078081222897F08022520
:1028F0002853F4F753FEF722C082C083A29390F1CD
:1029000004E04006C33344018002C313F0D083D0F7
:102910008222E5C65480F853BEFB53C6BFE5C6A26B
:10292000E640FA88C6E5C66870FB43BE04E5C654B7
:10293000C74410F5C653E4F375E200E5E454FC44E3
:1029400001F5E42274F7122423E5E2F508E5E3FF3C
:102950008A828B83E0F8A3E0F9E508C398F8EF9941
:10296000F9C3EC98ED99500F8A828B83E02CF0A389
:10297000E03DF07901800279007F0202248974F73A
:10298000122423122A034005122A0D500E8A828B2C
:1029900083E0F508A3E0AA08FB80047A007B007FAF
:1029A0000202248974F51224238A088B09122A034F
:1029B0004005122A0D5047ED90F106F0EC90F1051C
:1029C000F0122A62E5AEA2E740FA75AB1185080A5B
:1029D00085090B7409780A12239AE50AF5AD74018A
:1029E000780812239AE508F5AC43D602121C8AE552
:1029F000D1A2E150FAE5AE54C070FA53D1FD7F0484
:102A0000022489EA2400EB34E4C3946422EA24F02B
:102A1000F8EB34FCF9C3E89410E994002274F51241
:102A20002423E9FE8E0A750B00740A780A1223B972
:102A3000F508850B092400E50934E4C394645020AB
:102A4000E5AEA2E740FA740978081223AAE508F572
:102A5000AD75AC0075AB11121C84E5AEA2E740FA6F
:102A6000809CC082C08374F190F107F0A37405F0DC
:102A7000A374DFF0A374AFF0A3E4F0A37402F0A397
:102A80007412F0A37442F074F1F5D375D207D083B9
:102A9000D08222D2AF22C2AF22E5A8C2AFA2E7E421
:102AA00033FA7B0022EAA2E092AF22EBC313FBEAE7
:102AB00013FAC3EA9402EB940040140000000000F3
:102AC0000000000000EA24FFFAEB34FFFB80E32261
:102AD00074F8122423EAFEEBFFEEF8EFF9E824FF86
:102AE000FEE934FFFFE84960097AE87B03122AAB6C
:102AF00080E77F0102248974F5122423E9FE7A0F0E
:102B00007BF1125C0A7A527BF1125C0AEE24FC60C3
:102B100005146007800A9026E780089026EB800362
:102B20009026EF7808122276AA08AB09AC0AAD0B02
:102B300012539B90F3D67401F07F0402248974F33E
:102B40001224238A828B838C088D097E007F00806B
:102B50000A880AEE250AFEEF3400FFC3EE9508EF5F
:102B60009509503AE5822EF50CE5833FF50DEEF818
:102B7000E508C398F50AF9AC0CAD0D7A527BF11259
:102B80005C3AE9F870CB7A057B00122AD0A90AAC2E
:102B90000CAD0D7A527BF1125C3AE9F870B3EEFAA3
:102BA000EFFB7F06022489022B3EC008ECF9EAFC09
:102BB000EBFD7A0F7BF1125CC98908AA087B00D073
:102BC0000822C0087A0F7BF1125D4B80EC53F47F32
:102BD00043FE80D29753F4DF43FE20C29553F4EFB7
:102BE00053FEEF53A9F743B90853A9EF43B9102295
:102BF000C29743FE20022BF8C082C083D2BB90F163
:102C0000B4E4F090F19A12332CF0538AEFC2EB4304
:102C10009A10438D10438C028001F9D083D0822218
:102C2000C082C08390F1B47401F0539AEF538DEFDA
:102C300090F199E4F090F198123315F075CD277565
:102C4000CB3E80D7C082C083A297401690F1B2E0FD
:102C5000601090F1B4E064016008122C2090F1B291
:102C6000E4F080B7C082C08390F1B3E080AC74F52B
:102C7000122423EAFEEBFF90F1B3E064016003024B
:102C80002D2390F1CBE08E828F83F0A3858208857F
:102C9000830990F1CCE0850882850983F090F1CD1D
:102CA000EE2402FCEF3400FD74041222BD750A0A02
:102CB000F50B780A1225847CD77DF1EE240CFAEF0F
:102CC0003400FB125D7A74021223E2EE2406FCEF5C
:102CD0003400FD850882850983E0640B700A90F159
:102CE000D174041222BD80119026F3780812227646
:102CF0008C828D83780812228990F1D5E08E828FA4
:102D000083A3A3A3A3A3A3A3A3A3A3F090F1D6E0BB
:102D1000C0E0EE240BF582EF122FF0D0E0F090F13E
:102D2000B3E4F07F0402248974F412242390F1B2F6
:102D3000E06003022E59A2975003022E598A828B1B
:102D400083E090F19C122FF5A882A983E090F19D79
:102D5000122FF5A3E090F19E122FF5A3A3E090F1BE
:102D60009F122E80E090F1A0122E80A3E090F1A19E
:102D7000F088828983E0F50CEA240BF8EB3400F943
:102D8000E8FEE9FFEA240A18EB3400F9880889090B
:102D9000EA240918EB3400F9EA2408FCEB3400FDBE
:102DA000EA2407F50AEB3400F50B740B650C70147C
:102DB000122E877909122E6090F1A6122E7990F1C9
:102DC000A7022E4F740C650C7077122E87EA240C24
:102DD000122E7090F1A6F0EA240D122E7090F1A739
:102DE000F0EA240E122E7090F1A8F0EA240F122EB1
:102DF0007090F1A9F0EA2410122E7090F1AAF0EA76
:102E00002411122E7090F1ABF0EA2412122E709061
:102E1000F1ACF0EA2413122E7090F1ADF0EA241414
:102E2000122E7090F1AEF0EA2415122E7090F1AFD0
:102E3000F07913122E6090F1B0122E7990F1B180DA
:102E40000E7905122E6090F1A2122E7990F1A3F066
:102E500090F1B27401F0F9800279007F05022489B3
:102E60007A9D7BF1122EB4E9850882850983F022D0
:102E7000F582EB3400F583E022F08E828F83E0222E
:102E8000122FF9A3A3A3228A828B83A3A3A3A3A3B4
:102E9000A3E090F1A2F0850A82850B83E090F1A374
:102EA000F08C828D83E090F1A4F088828983E09099
:102EB000F1A5F022C082C083E9FC78007900800D82
:102EC0008A828B83E028F8A3AA82AB8309E9C39C9A
:102ED00040EE74FF6804022C1A74F81224238A82CC
:102EE0008B83E08C828D83122FF5AA82AB838C8238
:102EF0008D83A3A882A9838A828B83E088828983B9
:102F000012301F12301FA312300C8C828D831230AE
:102F100029123000640A7003022FC68A828B83E074
:102F20008C828D83A3A3123029A3A312303E1230CA
:102F30003EA3123000640C6003022FC68A828B838A
:102F4000E0C0E0EC240C122FEDD0E012300CC0E019
:102F5000EC240D122FEDD0E012300CC0E0EC240E6A
:102F6000122FEDD0E012300CC0E0EC240F122FED48
:102F7000D0E012300CC0E0EC2410122FEDD0E012A3
:102F8000300CC0E0EC2411122FEDD0E012300CC058
:102F9000E0EC2412122FEDD0E012300CC0E0EC2453
:102FA00013122FEDD0E012300CC0E0EC2414122FDD
:102FB000EDD0E012300CC0E0EC2415122FEDD0E083
:102FC000122FF50AAB838A828B83E08C828D83A3D8
:102FD000A3A3A3A3A3A3A3A3A3122FF5E0C0E0EC94
:102FE000240B122FEDD0E0F07F01022489F582ED51
:102FF0003400F58322122FF922F08A828B83A322D8
:10300000122FF90AAB8388828983E02212301022C2
:1030100012301422F08A828B83A30AAB83E022123F
:1030200030108C828D83A3A322A3A3A3A3123031DB
:10303000221230148C828D83A3A3A3A3A322123067
:1030400031A3A3A322C0E074F21224C990F1B4E02A
:103050006401600302310D90F198E004F024FE60F9
:103060002624FB602724FC602F24FB603424FB60B3
:103070003724FC603A24FB603D24FC604024FB6064
:103080004324F56046800CD295023303123308A224
:10309000E050F4C295023303123308A2E140F480F9
:1030A000E6123308A2E280F5123308A2E380EE12A2
:1030B0003308A2E480E7123308A2E580E012330867
:1030C000A2E680D9123308A2E780D2E4F090F19909
:1030D000E004F090F19DE0640A70047808800278C2
:1030E0001690F199E0C398501690FA96E02401F8F2
:1030F000A3E03400F990FA96E8F0A3E90233025312
:10310000CBEFE4123315F0122BF802330353CBEF5D
:1031100090F19AE4F090F197E0700302330390F19C
:10312000B6E0F890F19BE01225EF0015FE325A311F
:10313000713180318F319E31AD31BC31CB310E32A6
:103140001D322C323B326832773285329332A132D3
:10315000AF32BD32CB32D932E73290F196E090F106
:10316000B5F064AA600302330390F19B740102334B
:103170000290F196E090F1B612332C740202330201
:1031800090F196E090F1B712332C74030233029061
:10319000F196E090F1B812332C740402330290F1EE
:1031A00096E090F1B912332C740502330290F19637
:1031B000E090F1BA12332C740602330290F196E0DB
:1031C00090F1BB12332C7407023302740A6890F139
:1031D00096702FE090F1BCF079057AB67BF1122E53
:1031E000B4E9F890F1BBE06870117CCB7DF17AB561
:1031F0007BF1122ED990F1B37401F090F19BE402AF
:103200003106E090F1BC12332C740802330290F1C5
:1032100096E090F1BD12332C740902330290F196BE
:10322000E090F1BE12332C740A02330290F196E062
:1032300090F1BF12332C740B023302740B6890F1BF
:10324000967019E090F1C0F079097AB67BF1122EF0
:10325000B4E9F890F1BFE06870A1808EE090F1C011
:1032600012332C740C02330290F196E090F1C112EB
:10327000332C740D02330290F196E090F1C21233B8
:103280002C740E807D90F196E090F1C312332C7473
:103290000F806F90F196E090F1C412332C7410807F
:1032A0006190F196E090F1C512332C741180539027
:1032B000F196E090F1C612332C7412804590F1968D
:1032C000E090F1C712332C7413803790F196E090A0
:1032D000F1C812332C7414802990F196E090F1C952
:1032E00012332C7415801B90F196E090F1CA1233C2
:1032F0002090F195123320F890F1C902325690F1E6
:103300009BE4F07F0102252890FA96E0F8A3E0F50F
:10331000838882E022F090FA96749CF0A374F122E4
:10332000F079137AB67BF1122EB4E922F090F19B7A
:1033300022C0E0C0D0C082C083E58AA2E44003027C
:1033400033E5538AEFC2EB90F19AE0701975CDBA6C
:1033500075CBBE90F19674FFF090F197F090F19AD2
:103360007401F00233F6E5CAC3941E500890F1963A
:10337000E0C2E080EDE5CAC39432500890F196E0D7
:10338000C2E180DEE5CAC39445500890F196E0C2E0
:10339000E280CFE5CAC39459500890F196E0C2E3A9
:1033A00080C0E5CAC3946D500890F196E0C2E480F5
:1033B000B1E5CAC39480500890F196E0C2E580A2BE
:1033C000E5CAC39493500890F196E0C2E68093E575
:1033D000CAC394A7500890F196E0C2E7808490F1A8
:1033E00097E4023362E58AA2E3500B538AF7C2EBFB
:1033F00053BEFC43FE04D083D082D0D0D0E03275DF
:10340000E51C75E61C75E71C75DBFF75DAFF75DDDD
:10341000FF75DCFF75DFFF75DEFF53F1BF43F1037E
:10342000E5FF543F4480F5FF43F31C2274F8122457
:1034300023EAF8EBF988828983E0FCA3E0FD888227
:103440008983A3A3A3A3E0FAA3E0FB88828983A3D3
:10345000A3E0F8A3E0F974FF6C700374FF6D7004CF
:103460007CFE7DFF74FF68700374FF69700478FE52
:1034700079FF74FF6A700374FF6B70047AFE7BFF40
:10348000ECF4FEEDF4FFEEFCEFFDE8F4FEE9F4FFF2
:10349000EEF8EFF9EAF4FEEBF4FFEEFAEFFBEDF5F0
:1034A000DBECF5DAE9F5DDE8F5DCEBF5DFEAF5DE96
:1034B0007F0102248990F1E17469F0A3E4F0A37420
:1034C000C8F0A3E4F0123D091229121227EA1228CB
:1034D000F11233FF12353A122BCD7904122AF7126A
:1034E0003D051259548003123E2C7C887D177AE1E9
:1034F0007BF1122944E970EF7C407DBC7AE37BF1DB
:10350000122944E96005123D0680DF123CB81235ED
:103510002A80D753C9FCE5C954FB4408F5C92243A6
:10352000C90353C9FB43C90880FEE5C95408F874B0
:10353000A048F5C9745048F5C922C082C08390DF05
:103540002FE4F0A3F0A3F090DF027478F090DF098D
:103550007412F0A37410F0A3E4F090DF1774C7F0B6
:10356000A3E4F0A374B0F090DF037404F0A37445F7
:10357000F090DF077412F0A3E4F090DF0C741DF0FC
:10358000A37455F0A37417F0A37423F0A37411F07F
:10359000A37463F090DF137430F0A37438F0A37455
:1035A0001DF0A314F090DF1A74B6F090DF1C74EADB
:1035B000F0A3742AF0A3E4F0A3741FF090DF237447
:1035C00088F0A37431F0A37409F090DF2774C0F081
:1035D000A374C8F0A37484F0A37460F0A3742CF0F7
:1035E000A37434F0A3741DF0A3740EF043E10490AF
:1035F000DF3BE0541F640170F643E101E0541F64B7
:103600000170F990F2E274DFF0A374D9F074F1F86C
:10361000A3F079E9E9A3F0A37480F0A3747BF0A38D
:103620007413F0A314F0E890F2EAF0E9A3F0A374A5
:10363000DFF0A374D9F0A37420F0A37479F0A3741D
:1036400013F0A37442F043B90143A90143914043ED
:103650009180790412365D12370D02372DC082C079
:103660008390DF1BE054F849F002372DC082C083FD
:1036700090F1E7E0607690F1E9E090F2DFF0F87425
:10368000E928F874F13400F988828983A3E090F284
:10369000E1F0E824020808E912381FA2E790F2E0FE
:1036A000500474018001E4F088828983E4F0FC8096
:1036B000238C82AA8274EA2AF874F112381FC0E0BF
:1036C00074642AF58274F21237BFD0E0F0888289E0
:1036D00083E4F00C90F2DFE0F8ECC39840D390F173
:1036E000E57401F090F1E7E4F012370D803FC082FD
:1036F000C08390F1E67410F043D68074F2F5D5756E
:10370000D4EA43D60112373243E1038020C082C09D
:103710008390F1E67420F074F2F5D575D4E243D6C7
:103720000175E900539BFC12373243E102D083D08C
:103730008222439A01439110D2AF22C082C083906B
:10374000F1E5E0600A90F2E0E0600479018002793E
:103750000080DAC082C08390F1E5E06401705A9085
:10376000F2DFE0C0E0EA247B1237BCD0E0F090F258
:10377000E0E0C0E0EA247C1237BCD0E0F090F2E157
:10378000E0C0E0EA247D1237BCD0E0F07C00801A73
:103790008C82A882746428F58274F21237BFE0C06C
:1037A000E0EA281237BCD0E0F00C90F2DFE0F8EC51
:1037B000C39840DC90F1E5E4F002372DF582EB345C
:1037C00000F5832274F812242390F1E6E06420705F
:1037D0004790DF3BE06401600375E104EA247BF875
:1037E000EB12381F90F1E9F07E00801A8E82AC82D5
:1037F000EA2C1237BCE0C0E074EA2CF58274F112B6
:1038000037BFD0E0F00E88828983E0FCEEC39C4095
:10381000DB1236EE7901800279007F0102248934BF
:1038200000F988828983E022C0E074F21224C9532F
:10383000E9EF539BFC90F1E6E06420700590F1E71E
:10384000800612370D90F1E87401F0E5E95480F537
:10385000E9600953E97F43E1041236EEE5E9A2E6A7
:10386000500953E9BF43E10412370D7F01022528B7
:1038700074E912242374FF1223CCE9851882851978
:1038800083F08A108B117418122417E0FAA3E0FB5E
:10389000790E750E03750F00EA247BF512EB3400E8
:1038A000F513EA2404F516EB3400F517EA2403F5C2
:1038B00014EB3400F515EA2402FEEB3400FF8A8293
:1038C0008B83A385820C85830D851882851983E0FF
:1038D000602E147003023A99147003023B3F147077
:1038E00003023B3F147003023B8C147003023B9CA9
:1038F000147003023BDC24FE7003023C39023C3CA2
:103900008A828B837402123CB01222677418780882
:10391000122208123CA8122267741078081222089A
:103920008E828F83123CAE122267E5098514828550
:103930001583123CB0122267851682851783E5082D
:10394000F0EC2404FEED3400FF8E828F83123C4E97
:10395000A3A3A3A3F08E828F83123C54123C6B125C
:103960003C4F123C6BA3123C54123C81123C898C9C
:10397000828D83A3A3A3A3A3A3A3A3123C4EA3124C
:103980003C81A3A3E0C0E0EA240B123C46D0E0F067
:10399000EC240BFEED3400FF8E0A8F0B8E82F58334
:1039A000A3E0C0E0EA240C123C46D0E0F08E828F07
:1039B00083E0C0E0EA240D123C46D0E0F07E007FB8
:1039C00000850A82850B83E0550EF508A3E0550FAC
:1039D000F509EEC33378081223AAE508F50C850E25
:1039E00008850F09740278081223B985080E850925
:1039F0000FE50C7003023A8375F003A404F5107808
:103A000000805D888285820C8E088F09E50875F03C
:103A10000AA4F50885F01175F00AE509A42511F549
:103A200009EC2508F508ED3509F509E508250CF53B
:103A300008E5093400F509E508240DF582E50912C9
:103A40003C49E0C0E08908E50C2508F508E43400AD
:103A5000F509EA2508F582EB3509F583D0E0F00891
:103A6000E8C39510409DE51029F9EE24010EEF34CE
:103A700000FFC3EE9408EF9400A2D265D033500348
:103A80000239C18908EA2508123C46A37403F029CB
:103A9000851282851383023C388A828B83740212DA
:103AA0003CB012226774187808122208123CA8123F
:103AB0002267741078081222088E828F83123CAE1F
:103AC000122267E509851482851583123CB0122203
:103AD00067851682851783123C9C122267741878BA
:103AE000081222088A828B83123C97122267741074
:103AF00078081222088A828B83A3123C97122267CD
:103B0000E5098A828B83A3A3A3A3A3A3A3123C9E4C
:103B10001222678A828B83A3A3A3A3A3A3A3A3E5F3
:103B200008F0E510245DF582E511123C49123C894C
:103B30008A828B83A3A3A3123C5A740B023C388A5B
:103B4000828B837402123CB01222677418780812B8
:103B50002208123CA8122267741078081222088EDC
:103B6000828F83123CAE122267E509851482851587
:103B700083123CB0122267851682851783E508F010
:103B80008A828B83123C5C7406023C388A828B8367
:103B90007402F08E828F8304F0023A908A828B83C3
:103BA00074D0123CB01222677418780812220812DE
:103BB0003CA8122267741078081222088E828F8324
:103BC000123CAE122267E509851482851583123CEA
:103BD000B012226785168285178380508A828B8374
:103BE0007402F0850C82850D8374E0123CB01222C1
:103BF00067741878081222088E828F83123CAE12E6
:103C000022677410780812220885148285158312A1
:103C10003CAE122267E509851682851783123CB0F7
:103C20001222678A828B83A3A3A3A3A3E508F08A49
:103C3000828B83123C5A7408F01237C47401122329
:103C4000E27F10022489F582EB3400F58322A3126F
:103C50003C54A322E08A828B8322A3A3A3A3A3A321
:103C6000A37403F085128285138322123C6F22A372
:103C7000A3A3A3A3A3F08C828D83A3A3A3A3A3A335
:103C800022A3A3123C6FA3A322123C54A3A3A3A379
:103C9000A3A3A3A3A3F022A3A3A3A3A3E508F08552
:103CA0001082851183780822850C82850D83E508B2
:103CB000F08C828D83780822C082C08390F2F2E07B
:103CC000F8740128F0E86011146013146015146092
:103CD0001714601914601BE4F012366C8017122858
:103CE000F88012122815800D1253DF8008122C4420
:103CF00080031259BFD083D08222C2C753A1FE5382
:103D0000BEFCC2AD322202425EC082C0837B05EBA4
:103D100075F006A4F8A9F074F528F58274F239F567
:103D200083E4F01BEB70E88012C082C083EA4B6032
:103D30000A8A828B83A3A3E054FBF0D083D0822233
:103D400074F1122423E9FE740F122417780812224A
:103D500067EA4B6048EE14601014600814700F900E
:103D600026F7800D9026FB80089026FF8003902781
:103D700003780C122276E508850CF0A4C508A8F09B
:103D8000850DF0A428F8850CF0E509A428F5098A2A
:103D9000828B83E508F0A3E509F0123D297F080234
:103DA0002489C082C083EA4B60118A828B83E0F849
:103DB000A3E0F9E8496004790080027901023D3B03
:103DC00074F512242389087E067AF37BF2EA240232
:103DD000F8EB3400F988828983E054087039E054A4
:103DE000087004E04408F0E054F8FCA3E0FD850806
:103DF0000AE50A5403FEEC4E441088828983F0A33E
:103E0000EDF08A828B83E4F0A3F08A828B83A3A3F4
:103E1000A3A3F0A3F08010EA2406FAEB3400FB1E03
:103E2000EE70AA7A007B007F0402248974F81224C1
:103E3000237EF37FF27508068E828F83A3A3E0F8BA
:103E4000540C64087053E854038E828F837041E0F1
:103E5000F8A3E0F9E849600E8E828F83E024FFF03A
:103E6000A3E034FF8032EE2404F8EF3400F9E8FADE
:103E7000E9FB8A828B83E0F8A3E0F98A828B83E4F2
:103E8000F0A3F0E849601288828983122421800916
:103E9000E02401F0A3E03400F0EE2406FEEF34004D
:103EA000FF1508E50870917F01022489C082C08354
:103EB00090F3B6E0F8742268701D90F3A3E07033BD
:103EC00090F3B7E0F8A3E0F990F3D4E8F0A3E9F0B9
:103ED00090F3A37402801B74206890F3A37011E028
:103EE000701190F3B074CDF0A374F3F0A3E480DF0D
:103EF0007404F0803FC082C08390F3B6E0642190E8
:103F0000F3A3701DE0701D90F3B074CDF0A374F3B3
:103F1000F0A3E4F0A37407F0A3E4F090F3A304800B
:103F2000027404F0800E80028000C082C08390F38F
:103F3000A37404F0D083D0822280EF222274F8127E
:103F4000242374FD1223CCE9FE12422550042430B0
:103F500080022437F0740F5EC0E07401122417D081
:103F6000E01240C05004243080022437F074021262
:103F700024177420F07C037D00851882851983AA9C
:103F800082AB83122BA790F317E004F0C394104088
:103F90000CE4F07C02FD7AC17B27122BA71253DFC1
:103FA00074031223E27F01022489E9FC123FCE5000
:103FB00003EC800374C92CC454F0FCEC2AFBEA1215
:103FC0003FCE500574D02BF92274C92BF92224D08E
:103FD000F8E434FFF9C3E8940AE99400A2D265D06A
:103FE000332274F112242374FB1223CC7C107D0045
:103FF0007A137B2712421B12285E8A088B098C0ACF
:104000008D0B9026DF780C1222767808790C121F1F
:104010001F7808121DE5AC08AD09ECF8EDF97A64DB
:104020007B00122339E88518828519831240C0501D
:1040300004243080022437F07401122417742EF007
:10404000ECF8EDF97A647B00122339EAF875F00A8E
:1040500084C0E07402122417D0E01240C05004243F
:104060003080022437F0E875F00A847403122417B4
:10407000E5F01240C05004243080022437F074046C
:104080001224177456F07C057D00851882851983EB
:10409000AA82AB8312421B12286D8B09EA45096084
:1040A0000A7C0D7D007AC47B2780087C097D007A1C
:1040B000D27B2712421B74051223E27F0802248957
:1040C000F0C3940AE02274F112242374FE1223CC6C
:1040D0007C0C7D007A077B2712421B7A127B03122D
:1040E000297E8B097A127B0312297E8A0C7A107B37
:1040F0000312297EAE098E08E4F509F50AF50B7462
:10410000087808122221F50DF50EF50F7808790CC4
:1041100012224074087808122221EBFA8A0C7808DF
:10412000790C122240740878081222217A107B033D
:1041300012297E8A0C7808790C1222407E037F00B7
:1041400085080C85090D850A0E850B0FEE33333378
:1041500054F8780C122208124222500424308002B3
:104160002437F0740F58C0E07401122417D0E01205
:1041700040C0500424308002243712423450C175AC
:1041800008DC75092712421390FAAA7402F0A3748E
:10419000F0F07E017F00750C02750DF0750E007554
:1041A0000F00EE33333354F8780C122208124222F7
:1041B0005004243080022437F0740F58C0E074019A
:1041C000122417D0E01240C050042430800224375B
:1041D00012423450C112421390F614E0F8124225F4
:1041E0005004243080022437F0740F58C0E074016A
:1041F000122417D0E01240C050042430800224372B
:1042000012424B7C027D007AC17B2712421B740252
:104210000240B87C017D00AA08AB09122BA71253FB
:10422000DF22A80CE8C4540F851882851983F0C3D7
:10423000940AE02212424B1253DFEE24FF1EEF34A9
:10424000FFFFC39400A2D265D03322F07C027D0030
:10425000851882851983AA82AB83122BA72274F159
:1042600012242374F81223CC122BC28B09EA4509BD
:1042700070030246857C017D00851882851983AA1A
:1042800082AB83122BAA750AAA750B27E0249E70B5
:104290000302467724FD70030243A224FC601F241E
:1042A000FD70030244F824FC700302456824FE609C
:1042B0001924FC600F147003024466024685124004
:1042C000C6024685123FE202468575080075090060
:1042D000750C00800B1246F94003750C0112352A4B
:1042E0001246EE5006E50CA2E050EAE50CA2E050C2
:1042F0000E7C177D00AA0AAB0B122BA70246851273
:1043000046AE12241712472990F317E4F01246DB49
:104310001223B9850A08850B098A0AF50B740778F8
:104320000A1223B9A80AA90BEAC39408502FE8FE81
:10433000E9801674152EF58274F63FF583E0F912C4
:104340003F3DEE24010EEF3400FFC3EE9508EF95DC
:104350000940E07C107D007A437B27809CEAC3946F
:10436000F0403412468A502FE8FEE9FFC3EE95086C
:10437000EF950950DEEEFAEFFB12297EEAF9123FC3
:104380003DEEFAEFFB12297EEBF9123F3DEE2402DF
:104390000E0EEF340080D47C107D007A647B2702FF
:1043A00042F9750800750900750C00800B1246F97A
:1043B0004003750C0112352A122BC28B0FEA450FF0
:1043C0007006E50CA2E050E5E50CA2E050030242C5
:1043D000F17C017D00AA82AB83122BAAE0249A60B3
:1043E0006324F46003024685750E00850E82AA825E
:1043F0008A08750900740778081223B91246C61294
:1044000023B91246BC50238A081246DF1223B9F59D
:1044100009740778081223B9E50AC39508F8E50B73
:10442000950912469312471C70FB050EE50EC394C6
:104430000840B890FAA97401F07C0F7D007A237BC4
:10444000270242F9750E1EA90E122A1D050EE50E51
:10445000C3942040F290FAA97401F07C117D007A97
:10446000327B270242F9750800750900750C00803F
:104470000B1246F94003750C0112352A1246EE5014
:1044800006E50CA2E050EAE50CA2E050030242F17E
:104490001246AE12241712473BF582AA82C3940833
:1044A000503F8A08750900740778081223B912462C
:1044B000C61223B91246BC4003024433E91246CD6A
:1044C0001223B9F50F7407780E1223B9E508C395C6
:1044D0000EF8E509950F12469312471C70FB024433
:1044E00033E9C394F0500302439712468A40030213
:1044F0004397122A1D0244557E007F008E0C7508DA
:1045000000750900800B1246F94003750C01123545
:104510002A1246EE5004E50C60ECE50C70407C027B
:104520007D008518828519831246B212241712471E
:104530003B123F3D1246A3E50E124712C3EE948094
:10454000EF940040B990F3997401F07C127D007AE9
:10455000747B2712421B90F317E4F00246857C1708
:104560007D00AA0AAB0B80EB750800750900750C7D
:1045700000800B1246F94003750C0112352A1246D1
:10458000EE5006E50CA2E050EAE50CA2E050030272
:1045900042F11246AE12241712472990F399E070A7
:1045A0000B7C117D007A867B270242F91246DB12D2
:1045B00023B9850A08850B098A0CF50D7407780C58
:1045C0001223B9850C0A850D0BE9C39408504B7E64
:1045D000007F00850A0C850B0D1246BC4020C3EEFF
:1045E0009480EF940040EC90FAA97401F07C117D66
:1045F000007A537B27122BA790F399024559124654
:10460000A3E0C0E0124696D0E0124712E50C240168
:10461000F50CE50D3400F50D80BFE9C394F040546E
:1046200012468A504F7E007F00850A0C850B0D12C2
:1046300046BC400BC3EE9480EF940050AA80EA740D
:10464000182EF874F33FF988828983A3E0FB8882EF
:104650008983E0FCEBFDAA0CAB0D1229A4EE240229
:104660000E0EEF3400FFE50C2402F50CE50D3400CE
:10467000F50D80BB0243977C137D007A977B271250
:10468000421B12351F74080240B8C3E49401C3658D
:10469000D03322F97AFF7415250CF58274F6350DA6
:1046A000F5832274182EF58274F33FF583227C0281
:1046B0007D00AA82AB83122BAA740122C3E50C955C
:1046C00008E50D95092285080C85090DEA2401F5F8
:1046D00008E43400F50974077808228982AA82EA7E
:1046E0002401F50AE43400F50B7407780A22122B32
:1046F000C2C3EA9402EB9400221253DFA808A9096E
:10470000E82401F508E93400F509C3E89431E99497
:104710007522F0EE24010EEF3400FF22EAF0A3E848
:1047200024FF18E934FFF9482212472D22E0FA85C8
:104730001882851983E0F9123FAA2212472DE9F564
:104740000E22D083D08222C082C083E9FCEAFD7AA7
:10475000007B0080081890F39BE012479E90F39A2C
:10476000E0F8A3E0F990FA9AE0687003A3E06960CA
:104770002B90F39AE0240108A3E03400F9888289A1
:1047800083E4936C700E90F39AE0FAA3E0FB1812A6
:10479000479E8008E4936D70BCED60B980A4F583FA
:1047A0008882E493F890F39AE028F8A3E03400F9C3
:1047B00090F39AE8F0A3E9F022C082C08312480285
:1047C0007A00790112474702474274F7122423E91D
:1047D000FEEAFF1248027A007902124747EA4B606C
:1047E0001CEE60108A828B83A3A3A3A3A3E4936E21
:1047F00070E48009EFF874FF281F0470D97F02026B
:10480000248990FA98E0F8A3E0F990F39AE8F0A3ED
:10481000E9F02274F5122423EAFF8B087A0012478C
:10482000CA7A027904124747EA4B60188A828B835E
:10483000A3A3E4936F70EA8A828B83A3A3A3E49378
:10484000650870DD7F0402248974F7122423E9FED1
:104850001248027A007903124747EEF874FF281EC7
:104860000470F08098C082C0837A0079011247CA30
:104870008A828B83A3A3A3A3A3A3A3E493A2E6901A
:10488000F3AF500474018001E4F090F3AEE4F04320
:10489000BE80D2BDD083D08222C082C08390F39CE0
:1048A0007402F0A3E4F090F3A3F07903124AED75DB
:1048B000210075220080DD74F612242390DE0EE0C4
:1048C000FEE4F090DE11E0F50AA2E4501D7480F0E1
:1048D00090F3A37407F0E5214522600985218285C4
:1048E000228312242190F3A3E4F0E50AA2E2500B04
:1048F00090DE11E4F090F3A3F0807890F3A3E0F859
:10490000740268705790DE16E0FF90F3B0122595A0
:10491000EFF97A207BDE124B2574031223E28F0815
:1049200090F3B3124AC2124ACDE0F8A3E0F9E84985
:10493000600474408002744890DE11F0E8497014FD
:10494000E521452260098521828522831224219058
:10495000F3A3E4F0EE90DE0EF0024B6B7406687089
:104960000985218285228312242190F3A3E060032C
:10497000024A59E50AA2E050DB7508B57509F375DE
:104980000A00780812258079087A207BDE124B25F0
:1049900074031223E275210075220090F3B5E054F0
:1049A000E0601C24E07003024A3324E0606F24C0FE
:1049B000604524E07003024A3E24E0606B8030A32F
:1049C000E014601C24FE601324FE600A24FC6015C1
:1049D00024FE60168019124E77806C124E6B806731
:1049E000124E5F80621251DD805D12530B80589031
:1049F000F3A37404F08058A3E0600E24FA600F243F
:104A0000FE601024FE601180E6124C9B8039124E2D
:104A1000BF80341251AD802F1252AB802A752126EF
:104A200075223F123F26801F75212875223F123FB5
:104A30002880147521AC75223E123EAC8009752188
:104A4000F575223E123EF590F3A3E0640470047401
:104A5000608002744090DE11F090F3A3E0F87401DE
:104A600068704B750A0290F3B3E0F8A3E0F9C3E86D
:104A70009420E994005007E8FF750A0A80027F201D
:104A800090F3B0122595EFF97A207BDE124B497432
:104A9000031223E28F08124ACD124AC2E50A90DEC1
:104AA00011F0EFC3942040030249540249407405B9
:104AB00068600302495485218285228312242102E1
:104AC0004954C3E09508F0A3E09400F02290F3B0BD
:104AD000E0F9A3E0FAA3E0FBE92508F9EA3400FADB
:104AE00090F3B0E9F0A3EAF0A3EBF0A32274F7127D
:104AF00024237800880874A42508F58274F3124BE7
:104B00001940F17800880874A92508F58274F31219
:104B10004B1940F17F020224893400F583E9F00843
:104B2000E8C394052274F6122423EAFCEBFDE9F8AD
:104B3000740A122417124B7B600D8C828D83E01255
:104B40001D72124B7070F3802274F6122423EAFC5B
:104B5000EBFDE9F8740A122417124B7B600D121D4D
:104B6000588C828D83F0124B7070F37F030224897E
:104B7000E9240109EA3400FA18E822E0F508A3E084
:104B8000F509A3E0A908AA09FBE82274F712242377
:104B90007523007524007525008A268B27EA90DE90
:104BA0000BF08A088B09740478081223AAE5089090
:104BB000DE07F08A088B09740978081223AAE50831
:104BC000543E90DE09F0438C10758900C2C5758B88
:104BD00000C2E8439A027F02022489C0E074F11205
:104BE00024C9E5BEA2E650FA90DE06E0FAA2E25041
:104BF00035A826E890DE0BF0F508852709740478BF
:104C0000081223AAE50890DE07F085260885270903
:104C1000740978081223AAE508543E90DE09F09042
:104C2000DE01E0D2E0F07823EA46F690DE02E0F51D
:104C300008750900740478081223B97823E508463A
:104C4000F608E50946F690DE04E0F50875090074FB
:104C50000978081223B97824E50946F6EAA2E0505B
:104C60000375250174065A6003752500123F3C75D3
:104C70008B00C2E87F02022528C0E074F21224C92A
:104C8000E5BEA2E650FAE589A2E75005C2BD12537F
:104C90008A758900C2C57F0102252874F712242372
:104CA0001252A07011A3E0F8A3E0700AA3E064021E
:104CB0007002A3E0600890F3A37404024D6E90F3B9
:104CC000B5E02480600814602A14603780E8E8703A
:104CD000E590F3AFE0600478018002780090F3BDC6
:104CE000E8F0A3E4F090F3AEE0606890F3BDE04438
:104CF00002805C90F39CE0640470BB90F3BDE4F030
:104D0000A3804FE8547FF50890F39CE0640470A6FC
:104D1000E508C39406509F749C2508F58274F3340B
:104D200000F583E854806010A3A3A3A3A3A3A3E08A
:104D30006403701578018013E582240CF582E58305
:104D40003400F583E0640360EB780090F3BDE8F095
:104D5000A3E4F090F3A3E06404601490F3B074BD96
:104D6000F0A374F3F0A3E4F0A37402125302F07FF3
:104D70000202248974F7122423E9FE90F3BB125235
:104D8000A3701090F39CE06404601090F3B9125289
:104D9000A3600890F3A37404024E5990F3B5E05455
:104DA0001F600814600D14602480E890F3B7E0647D
:104DB0000160057900024E5CEE90F3AEF06004797C
:104DC00005800279067A00123F3B024E5A90F3B9F1
:104DD000E0547FFA90F3B7E070D9EAC3940650B379
:104DE000EA90DE0EF08A08749C2508F874F334000B
:104DF000F990F3B9E05480602CEE600474108002E6
:104E0000744090DE11F0EE600474038001E4888247
:104E10008983A3A3A3A3A3A3A3F0EE6004790880CE
:104E2000317907802DEE600474208002748090DE5A
:104E300014F0EE600474038001E4C0E0E8240CF593
:104E400082E93400F583D0E0F0EE6004790A800254
:104E50007909123F3B90DE0EE4F07901024D6F7943
:104E600000124D74E97003123F2A227901124D7429
:104E7000E97003123F3922C082C08390F3B9125205
:104E8000A37015A31252A3700F90F3B7125044549D
:104E900080FAE9FBEA4B600790F3A37404801AE8F8
:104EA00090DE00F090F39C6009E06402700C7403E3
:104EB0008007E0640370037402F0D083D082227410
:104EC000F312242390F3B7E0FAA3E014600814600F
:104ED00019146047804C1247B9125025A37B8012E9
:104EE0001D58A3F0A3E4F0024FDF79001247CA1265
:104EF00050257B80E924020909EA3400FA121D5882
:104F0000FC1919E0FAA3E92403090909EA3400FAB3
:104F1000121D58F9ECA3F0A3E980CBEAF912484935
:104F200080B790F3B0E4F0A3F0A3F0F50B90FA9CF7
:104F3000E0FAA3E0FB024FBA750900740378081287
:104F400023B9EA2508F8EB3509F990F3B712503A7E
:104F5000E493C0E0EFFCD0E06C705DA3E4936E706E
:104F60005790F3B912503AA3A3E493C0E0EFFCD0FA
:104F7000E06C704488828983A3A3A3E4936E7038A5
:104F800088828983A3A3A3A3E493F508740193F50E
:104F90000990F3B0E508F0A3E509F0A37480F08868
:104FA000828983A3A3A3A3A3A3E493F8740193F931
:104FB00090F3B3E8F0A3E9F0050B850B0890FA9E97
:104FC000125044C39AF50CE99BF50D7403780C124A
:104FD00023AAC3E508950CE4950D5003024F3890C1
:104FE000F3B0E0FCA3E0FDA3E0FEEC4D4E90F3A394
:104FF000700474048029E06404602590F3BBE0FA37
:10500000A3E0FB90F3B3E0F8A3E0F9C3EA98EB99CF
:10501000500890F3B3EAF0A3EBF090F3A37401F01F
:105020007F0602248990F3B0EAF0A3EBF0A374802A
:10503000F090F3B0E0F9A3E0FA22E0FEA3E0FF88ED
:1050400082898322E0F8A3E0F9E82274EE12242397
:10505000EA2404F8EB3400F9880889098882F5838A
:10506000E493602590FAA0125044FEE98007EE24F4
:1050700004FEEF3400FF8E828F83E493F874019373
:10508000F9EA687002EB6970E5750C00804090DE0B
:10509000147490F074101251A17003750D408E823B
:1050A0008F83A3A3A3E49355106006E50DD2E0F52A
:1050B0000DE50D90DE15F0EA90DE13F0EC240CF512
:1050C00082ED3400F583E4F090DE0EF0050C8508E7
:1050D00082850983E493F8E50CC398400302519C50
:1050E0007A0079051247478A0E8B0FEA450F60DC7C
:1050F000EA2402F8EB3400F9880A890B8882F583E8
:10510000E493540FF51290DE0EF0750D008A828B39
:1051100083A3A3A3A3E4932407F510A3E49334008B
:10512000F511740378101223AAAA10851210749C2A
:105130002510F874F33400F9E8FCE9FD75100175E9
:105140001100E51278101223B9E50E2403F8EB34B0
:1051500000F9850A82850B83E493A2E7400302509D
:105160008E90DE117448F074081251A17003750D11
:10517000408E828F83A3A3E49355106006E50DD281
:10518000E0F50DE50D90DE12F0EA90DE10F08C8275
:105190008D83A3A3A3A3A3A3A30250C67F0B0224C2
:1051A00089F088828983E4935403640122C082C019
:1051B000831252A07010A31252A3700AA3E06401DC
:1051C0007002A3E0600790F3A37404800C90F3B026
:1051D000749DF0A374F31252F8F0024EBA74F412F4
:1051E000242390F39CE06402601490F3B91252A35C
:1051F000700CA31252A3700690F3B8E0600990F30C
:10520000A37404F002529B7A007901123F3B90F3A1
:10521000B7E060727A00F91247CA8A088B09EA453A
:1052200009605B90F39C7404F090F3B7E090F39DF9
:10523000F0750C00850882850983A3A3A3A3E493DA
:10524000F8E50CC398504D850C0A749E250AF87435
:10525000F33400F9E8FEE9FF8E828F83E4F07A00F0
:1052600079041247478A828B83A3A3A3E493F88E21
:10527000828F83E06870E712504B050C80B690F384
:10528000A37404F0800E90F39DF090F39C7403F0EF
:10529000F9124AED7A007902123F3B7F0502248918
:1052A00090F3B7E0F8A3E0F9E8492274F61224235A
:1052B00090F39CE06404701990F3B5E06481701180
:1052C0001252A0700C90F3BBE064017002A3E06086
:1052D0000790F3A37404801A90F3B9E0249EF508B4
:1052E000A3E034F3F50990F3B0E508F0A3E5091263
:1052F00052F8F07F03022489F0A3E4F0A3041253D0
:105300000222F0A3E4F090F3A3042274F712242302
:1053100090F39CE06404701090F3B5E064017008B1
:1053200090F3BB1252A3600890F3A37404F0805270
:1053300090F3B7E0FB90F3B9E0FA90F39DE0F91237
:1053400048138A088B09AE08AF09EE4F60DA90F374
:10535000B9E0FA7903123F3B90F3B7E0C0E090F375
:10536000B9E0249EF8A3E034F3F988828983D0E081
:10537000F0EEFAEFFB12504B90F3B9E0FA79041219
:105380003F3B024D6FD083D08222C082C08390F316
:10539000C4E4F0A3F0A3F0A3F080EA74F512242390
:1053A0008A088B098C0A8D0B90F3CD78081222891C
:1053B000A3E4F0A3F0A37408F090F3D4E4F0A3F016
:1053C00090F3D604F01248657AFF7BFF124B8B53A3
:1053D000F5FED2A043FF01122A937F0402248974B0
:1053E000F2122423A823E8540460097823E654FB2E
:1053F000F6124899A823E8541060097823E654EF80
:10540000F61248B7A823E8A2E0500E782354FEF61F
:105410001228A87823E654FDF690F3D6E070030234
:1054200054F990F3D4E0F8A3E0F9E849700302548A
:10543000F9122A9690DE0E125518750CD7750DF3D9
:10544000750E0090DE14E0A2E0505C90DE16E0F8ED
:10545000A3E088081254FEF895E0F985080AC3E82D
:10546000950AE99400A2D265D03350061254FEFE8C
:105470008002AE08EE6030780C122580EEF97A28B2
:105480007BDE124B2574031223E2EEF97CD77DF309
:105490007A0F7BF1125C3AEE6508700B90DE0E74A9
:1054A00004F090DE14E4F012550C122A96125518EE
:1054B00090DE11E0A2E0403E7A527BF1125D4BE9B2
:1054C000FF6033C3944140027F40EFF97CD77DF306
:1054D0007A527BF1125CC9780C122580EFF97A2898
:1054E0007BDE124B4974031223E290DE0E7404F04B
:1054F00090DE117401F012550C7F070224897A0F97
:105500007BF1125D4BE9F87440C3982290F417E0E8
:1055100090DE0EF0122A9322E090F417F090DE0E47
:105520007404F02274ED12242374FA1223CCE9FEE1
:105530008A088B098C0A8D0B780A12262500000236
:105540000001005055FF0060564B55AF080256EA67
:105550001259191259287583FA7582A6C3E098A3C7
:10556000E09950119026F31225C2790090F5181297
:105570005BFF1223E2125919C082C0831259257AA7
:10558000027B00122339880A890BD083D082E0C3C2
:10559000950AFAA3E0950BFB125D5E8A0C8B0DEB6E
:1055A0003395E0F50EF50F1259257A047B0012238E
:1055B000398810E9F5113395E0F512F513780C7977
:1055C000101222537401780C12222190F60C780CE0
:1055D0001222899026F3780C1222767583F6758252
:1055E0000C780C121D4350109026F3780C12227682
:1055F00090F60C780C12228990F60C781012226723
:105600009027DE780C1222767810790C12209F9069
:10561000FAA6E0F50CA3E0F50D3395E0F50EF50FD5
:105620007810790C1221B9E5093395E0F50AF50BEC
:105630007810790812209F74017810122221902688
:10564000FB7808122276781079081221B990F60CAE
:10565000781012228990F60C780812226702554BB6
:1056600090FAA8E060667F0512285E8A088B098C94
:105670000A8D0B9026DF780C1222767808790C12AE
:105680001F1F7808121DE5A808A909C3E89468E956
:10569000940150047E0080207E03C3E89472E99454
:1056A0000140010EC3E8949AE9940140027E01C3CF
:1056B000E894A5E9940150DC12592E602D90FAA8C7
:1056C000E4F09026FF1225C2790380157F0012595D
:1056D0002E601790FAA87401F09026FB1225C2796B
:1056E0000090F51A125BFF1223E2EE1225EF001173
:1056F0006558165736574C5763576D577A578C571E
:105700009C57AC57C457D257DC57ED57FE57ED574F
:1057100017582858345885188285198374FFF0A3C8
:10572000E4F07402122417E4F0A3F07404122417B6
:10573000E4F0A3025864851882851983E4F0A3F08D
:10574000740212241774FFF0A3E480DE1258FD12D5
:105750002417E4F0A3F0740412241774FFF0A3E4F8
:1057600002586412590A122417741E80DA12590A58
:1057700012241774FFF0A3E480DB1258FD122417E3
:1057800074641258EF12241774FF80D112590A1250
:1057900024171258F6122417742380C112590A12C2
:1057A00024171258F6122417745080B18518828578
:1057B000198374961259121224171258F6122417CC
:1057C00074CD809985188285198374FFF0A3E40253
:1057D000573F85188285198374C880F01258FD12CE
:1057E00024171258ED122417740F02575D1258FD3A
:1057F0001224171258ED12241774AF02575D851842
:105800008285198374961259121224171258F612AF
:105810002417749602575D1258FD1224171258F679
:1058200012241774FE02575D851882851983E4F0EF
:10583000A302572190FA901259288518828519835E
:10584000E8F0A3E9F090FA92125928740212241792
:10585000E8F0A3E9F090FA9412592874041224177E
:10586000E8F0A3E9F08F82AC828518828519831253
:10587000593B1223418808ECF88508F0A4C8AAF027
:1058800089F0A42AF9851882851983E8F0A3E9F044
:10589000740212241712593B1223418808ECF88530
:1058A00008F0A4C8AAF089F0A42AF97402122417F7
:1058B000E8F0A3E9F0740412241712593B122341B3
:1058C000EC88F0A4CCA8F089F0A428FD740412247C
:1058D00017ECF0A3EDF0851882851983AA82AB83BB
:1058E00012342C74061223E27F0C02248974FFF018
:1058F000A3E4F0740422E4F0A3F074042285188277
:10590000851983E4F0A3F074022285188285198337
:1059100074FFF0A3E4F074022290F518E0F8A3E01D
:10592000F58388822290FAA6E0F8A3E0F92290F5A8
:105930001AE0FAA3E0FB123DA2E922E0F8A3E0F9A5
:10594000E875F0FFA4F8AAF075F0FFE9A42AF97A47
:10595000647B002274F3122423790712365D7900E8
:10596000123DC090F516EAF0A3EBF07900123DC0AD
:1059700090F512EAF0A3EBF07901123DC090F51416
:10598000EAF0A3EBF0123513122BCD122BF090FAA4
:10599000A47401F090FAA57405F090F610E4F0FC00
:1059A000FD7A05FB7901125524750A00125BCB12B2
:1059B000239AA3E508125BF140F27F060224897462
:1059C000F312242390FAA9E064017016750A0012FC
:1059D0005BCB12239AA3E508F090FAA9E4125BF1DD
:1059E00040ED90F512125931601B90F611E07007EE
:1059F00090F613E4F0800E14F09026FF1225C212E8
:105A00005BFA1223E290F516125931604190F612BA
:105A1000E0603B9027E21225C2790190F516125BF7
:105A2000FF1223E27508967509F478081225847927
:105A3000087C1C7DF57A7E7BF51238707402122387
:105A4000E27AF67BF5122D2890F612E014F0123768
:105A50003BE960207A187BF412375390F494E060AD
:105A60001390F418E06424700B90F613E4F090FAAD
:105A7000A47402F0122C64E97003025BB57AE07B37
:105A8000F5122C6E7C167D007AE07BF5122BA79028
:105A9000F5E1E0640A6003025BB590F613E0600391
:105AA000025BB590F5F674AAF0A3740CF09027E6AB
:105AB000780812227690F5F8780812228990F5E29B
:105AC00012229890F5FC1222A490FA15E090F602AA
:105AD000F090FA16E090F603F090FA17E090F604D2
:105AE000F090FA18E090F605F090FA19E090F606BA
:105AF000F090FA1AE090F607F090FA1BE090F608A2
:105B0000F090FA1CE090F609F090FA1DE090F60A89
:105B1000F090FA1EE090F60BF090F6017455F090BC
:105B2000FAA4E064017004740480027401F090FA35
:105B3000A57464F07AF67BF5122D2890F5117405A2
:105B4000F090F4967425F090F5E5E090F497F090DD
:105B5000F5E4E090F498F090F5E3E090F499F0909B
:105B6000F5E2E090F49AF07508967509F478081259
:105B7000258479087C1C7DF57A7E7BF5123870745B
:105B8000021223E29026FF1225C2125BFA1223E2D0
:105B90009027E21225C2790190F516125BFF1223BD
:105BA000E290FA17E090F611F090F6127404F0907B
:105BB000F6137401F090F610E0FC7D007A057B008E
:105BC00090FAA4E0F91255240259BAE50AC333FE4B
:105BD000E433FFEEFAEF3478FB12297E8A088B0952
:105BE00074152EF58274FA3FF583EAF0740878088C
:105BF00022F0050AE50AC3944022790390F512E0E9
:105C0000FAA3E0FB123D4074042274F7122423EA45
:105C1000FEEBFF122A99EE2440125C30EE24411272
:105C20005C30EE2442125C30122AA57F02022489E5
:105C3000F582EF3400F583E4F02274F3122423EAB2
:105C4000FEEBFF8C088D09890A122A99EE2440F890
:105C5000EF3400F988828983E0850A0C250CFCE486
:105C60003400FDEC9440ED9400C365D033750B0017
:105C7000504DEE2442FCEF3400FD8034850B0CE5E2
:105C800008250CF582E509125D45C0E08C828D8304
:105C9000E0F50CEE250CF582EF3400F583D0E0F052
:105CA0008C828D83E004F0E064407002E4F0050B28
:105CB000E50BC3950A40C588828983E0250BF01265
:105CC0002AA5A90B7F0602248974F3122423EAFE75
:105CD000EBFF8C088D09890A122A99750B00EE24B6
:105CE00041F8EF3400F9EE2440FCEF3400FD803140
:105CF00088828983E0F50CEE250C125D42C0E085B8
:105D00000B0CE508250CF582E5093400F583D0E09D
:105D1000F088828983E004F0E064407002E4F005DA
:105D20000BE50BC3950A500E8C828D83E0F50CE5D4
:105D30000BC3950C40BA8C828D83E0C3950BF002A7
:105D40005CBFF582EF3400F583E022C082C083EAB5
:105D50002440F582EB125D45F9D083D08222C3EB5B
:105D60009400A2D265D0334005EAF8EB8006C3E484
:105D70009AF8E49BF9E8FAE9FB2274F712242374F9
:105D800009122417E0FEA3E0FFEAF8EBF980188C73
:105D9000828D83E088828983F0A3A882A9838C8284
:105DA0008D83A3AC82AD838E088F09E50824FF1E86
:105DB000E50934FFFFE508450970D47F0202248914
:105DC000FFFFFFFFFFFFFFFFFFFFFFFFFFFFFFFFE3
:105DD000FFFFFFFFFFFFFFFFFFFFFFFFFFFFFFFFD3
:105DE000FFFFFFFFFFFFFFFFFFFFFFFFFFFFFFFFC3
:105DF000FFFFFFFFFFFFFFFFFFFFFFFFFFFFFFFFB3
:0400000500001C5B80
:00000001FF
