:020000040000FA
:10000000021C5BFFFFFFFFFFFFFFFF022935FFFF21
:10001000FFFFFFFFFFFFFFFFFFFFFFFFFFFFFFFFF0
:10002000FFFFFFFFFFFFFFFFFFFFFF0242F5FFFFA4
:10003000FFFFFF0251D4FFFFFFFFFFFFFFFFFFFFA6
:10004000FFFFFFFFFFFFFFFFFFFFFFFFFFFFFFFFC0
:10005000FFFFFFFFFFFFFFFFFFFFFF023361FFFF17
:10006000FFFFFFFFFFFFFFFFFFFFFF025272FFFFD7
:10007000FFFFFFFFFFFFFFFFFFFFFF02364DFFFF08
:06008000FFFFFF023B61DF
:101C000000000080FB121C6AB90003021C55E47935
:101C1000217807B800028004F709D8FCE490F100AD
:101C200078B6790A8002F0A3D8FCD9FA90FAB5AA5E
:101C300082AB83901C6D782479018015E493A3AC6A
:101C400082AD838A828B83F0A3AA82AB838C828D40
:101C500083D8E9D9E71237D1121C0075D0007581FD
:101C6000BF7518007519F1021C057901229CF10657
:101C70000606060606040000DFBE000720429A1C86
:101C8000471D471D471D471D4F1D04B80B0114017B
:101C900043AE010022FF43AE022212010002020005
:101CA00000205104A61609000102030109024300A5
:101CB0000201008064090400000102020100052401
:101CC000001001042402020524060001052401007D
:101CD000010705820340004009040100020A0000D8
:101CE00000070584024000010705040240000104CA
:101CF0000309042403540065007800610073002088
:101D00000049006E0073007400720075006D00657C
:101D1000006E00740073001E034300430031003165
:101D200000310031002000550053004200200043E4
:101D30000044004300120330003000300030003017
:101D400000300030003000B51C0000D81C0000E05E
:101D500066701008A3E066700A08A3E066700408C5
:101D6000A3E06622C3E09608A3E09608A3E09608E5
:101D7000A3E096A2D265D03322BB0102E722C08243
:101D8000C08389828A83BB0003E08002E493D0830E
:101D9000D08222BB000EC082C0838A838982F0D0A9
:101DA00083D08222BB0101F722E9799EC608CAC608
:101DB00008CBC608CCC6C370207996CACBCC7019A4
:101DC000798ECBCC70137986CC700EF9802ACA3309
:101DD000CACB33CBCC33CC331930E7F2CCCBCA33BC
:101DE00050147004EA30E00DE4CA3ACACB3BCBCCC5
:101DF0003CCC500209C3E913C6CC182313C6CB1838
:101E0000C6CA18C6F922121E4620F01430E72B74F9
:101E1000FFFCFBFA747F8022E4FCFBFA7480801ADA
:101E2000B48008BC00F2BB00EF800F50EBF9E4C3B4
:101E30009AFAE49BFBE49CFCE499C6CC18C6CB1848
:101E4000C6CA18C6F922E4C9C608CAC608CBC6D392
:101E5000330308CCC63392F0C3947F402E941840CD
:101E600019C9B90704CACBCC225025C309CA33CA41
:101E7000CB33CBCC33CC33D9F422F4600DC9CCC3F3
:101E800013CB13CBCA13CAD9F6CC22E4FCFBFA223B
:101E900014FCFBFA22E6C33318461846184622E71C
:101EA000C33319471947194722181818E608460876
:101EB000700AE608C3337005E633F42208221919C4
:101EC00019E7094709700AE709C3337005E733F4D6
:101ED000220922E6084608C3134608336002E633A7
:101EE000F422E7094709C3134709336002E733F4D3
:101EF00022121ED3601C121EE26017121E9570077C
:101F0000121E9F7001D322C0D0121E9F7006D0D027
:101F1000B322C32233D0D0501430E0F6C3E7960882
:101F200009E7960809E7960809E796B32220E0D565
:101F3000E6970809E6970809E6970809E697B322A5
:101F400000121ED3604F121EE26012E7548066F644
:101F5000121EA97011121E9F703B090909F4F61890
:101F6000F618F618F622121EBE7015121E950808F5
:101F70000860EAE6447FF618768018E4F618F62240
:101F8000121E956016121E9F7012E4F608F608F6EF
:101F900008E65480F609090918181822EAC0E0EB8F
:101FA000C0E0ECC0E0EDC0E0E687F0A4FBACF008D8
:101FB000E687F0A42CFCE435F0FA1809E687F0A4D3
:101FC0002C4B60027401CA35F0FCE433FB09E68750
:101FD000F0D2F7A42CCB35F0FC1908E687F0A42B3F
:101FE000CC35F0FBE433FD0819E687F0D2E7A42CEA
:101FF0004ACB35F0CD3400FC09E687F0D2E7A42DBA
:10200000CC35F0FDE433FA0918E687F0D2F7A42CBA
:10201000CD35F0CA3400FC08E687F0D2E7D2F7A449
:102020002ACC35F07A7E20E70B0ACB33CBCD33CDEB
:10203000CC33CC33CB3350147004ED30E00ED2F1FE
:10204000E4CD3DCDCC3CCC3B5005DA05C2F1EB54A0
:102050007FC63308E63392F0FBE73309E733C39AD0
:10206000502D2B70190C0D4C4D70151806E608C339
:1020700033700D20F10AA2F013F6E418800B40240F
:10208000E4F630F002768018F618F618F68024D3BD
:102090003B14501074FFA2F013F6187680E418F683
:1020A00018F6800FA2F013F618E63303F618ECF6D4
:1020B00018EDF6D0E0FDD0E0FCD0E0FBD0E0FA2255
:1020C000080808EAC0E0EBC0E086F0E7A4FA1809C7
:1020D00086F0E7A42AFA180986F0E7A42AFA180974
:1020E00086F0E7A42AFA1986F0E7A4FBE5F02AFABD
:1020F000190886F0E7A42BFBE5F03AFA190886F0F8
:10210000E7A42BFBE5F03AFA18180986F0E7A4C516
:10211000F02BFBE43AFA1908E7C5F0C6A426F6E569
:10212000F03BFBE43AFA1886F0E7A4F6E5F008265F
:10213000F6E43B08F6E43A08F6D0E0FBD0E0FA22F9
:10214000E4CFC0E0E4CEC0E0E4CDC0E0E4CCC0E049
:1021500075F020C3E633F608E633F608E633F608F2
:10216000E633F6181818EC33FCED33FDEE33FEEFD2
:1021700033FFC3EC9709ED9709EE9709EF9719190B
:1021800019400FFFEC97FC09ED97FD09EE97FE193A
:102190001906D5F0BEECF709EDF709EEF709EFF7F0
:1021A000191919D0E0FCD0E0FDD0E0FED0E0FF220C
:1021B0001222181818181221401222071919192270
:1021C000122207191919080808E618181820E7E05C
:1021D00012214012221818181822090909E71919A2
:1021E0001920E7DC080808E618181820E703022180
:1021F0004012221818181812214012221818181804
:1022000012220719191922E4C397F709E497F7096D
:10221000E497F709E497F722E4C396F608E496F604
:1022200008E496F608E496F6226016080808C6C385
:1022300013C618C613C618C613C618C613C6D5E0EB
:10224000EA227009080808226016181818C6C33355
:10225000C608C633C608C633C608C633C6D5E0EAC4
:1022600022E627F60809E637F60809E637F60809F0
:10227000E637F622C3E697F60809E697F60809E678
:1022800097F60809E697F622E0F608A3E0F608A319
:10229000E0F608A3E0F622E493F608740193F6084A
:1022A000740293F608740393F622E6F008A3E6F0AE
:1022B00008A3E6F008A3E6F022E0FAA3E0FBA3E01F
:1022C000FCA3E0FD22EAF0A3EBF0A3ECF0A3EDF019
:1022D00022CAC0E0E6F0A308DAFAD0E0FA22CAC0C7
:1022E000E0E0A3C582CCC582C583CDC583F0A3C57C
:1022F00082CCC582C583CDC583DAE6D0E0CA22CAC6
:10230000C0E0E493A3C582CCC582C583CDC583F06C
:10231000A3C582CCC582C583CDC583DAE5D0E0CA2A
:1023200022C3E498F8E499F91223628026C3E49A60
:10233000FAE49BFBE920E7E9122362E498F8E499C8
:10234000F922C3E498F8E499F9122362E498F8E4D6
:1023500099F9C3E49AFAE49BFB22EB20E7CFE9204A
:10236000E7E0B90010BB0008E88AF084F8AAF02280
:10237000E4FBC8FA22EB70227B10C833C8C933C90A
:10238000335007C39AC3DBF280069A50012ADBEA76
:10239000C833F4C8C933F4C9FA2275F008E4C83365
:1023A000C8C933C933C99AC99B5004C92AC93BD586
:1023B000F0ECFBC833F4C8E4C9FA22600D08C6A2E9
:1023C000E713C618C613C6D5E0F322600C08C6C3CF
:1023D00013C618C613C6D5E0F422700422600D1887
:1023E000C6C333C608C633C6D5E0F4182225181074
:1023F000AF08F518400215198008F51840021519A4
:10240000D2AF22C0D0251810AF08F5185002051918
:102410008008F51850020519D2AFD0D0222518F542
:102420008210AF08F518400215198008F51840020F
:102430001519D2AF851983222518F582E43519F5CF
:102440008322E4732518C582C0E0E51934FFC583F3
:10245000C0E0E518C3958224F910AF08858319857B
:1024600082188008858319858218D2AFCEF0A3E543
:1024700020F0A37808E608F0A3DEFAEFF0A3E581E8
:1024800024FBF8E608F0A3E608F0A30808E608F045
:10249000A3E608F0A315811581D0E0FED0E0F81581
:1024A000811581E8C0E0EEC0E0228519838518829D
:1024B000E0A3FEE0A3F5207808E0A3F608DFFAE049
:1024C000A3FFE0A3C0E0E0A3C0E0E0A3C0E0E0A37E
:1024D000C0E010AF088582188583198008858218AE
:1024E000858319D2AFD083D08222C0D02518C5826F
:1024F000C0E0E51934FFC583C0E0E518C395822428
:10250000F310AF08858319858218800885831985A3
:102510008218D2AFC8F0A3E9F0A3EAF0A3EBF0A3CE
:102520007908E709F0A3D8FAECF0A3EDF0A3EEF0F8
:10253000A3EFF0A3D0E0F0A3D0E0F0A3D0E0F0A3AD
:10254000E520F0A3E5F0F0A322851983851882E049
:10255000C0E0A3E0F9A3E0FAA3E0FBA37808E0F66B
:1025600008A3DFFAE0FCA3E0FDA3E0FEA3E0FFA3E5
:10257000E0C0E0A3E0C0E0A3E0F5D0A3E0F520A335
:10258000E0A3F5F010AF08858319858218800885CF
:102590008319858218D2AFD082D083D0E0F8D0E002
:1025A00032740480087403800474028000C0E0F474
:1025B0000412241DD0E01222D12274038000CCC06A
:1025C000E0EDC0E0E518C39CCCAD1950011D10AF83
:1025D000068C188D1980068C188D19D2AF1222DE48
:1025E000D0E0FDD0E0FC2274048000CCC0E0EDC05F
:1025F000E0E518C39CCCAD1950011D10AF068C1836
:102600008D1980068C188D19D2AF1222FFD0E0FDF3
:10261000D0E0FC22D083D082C5F0E493A3C5F0C300
:1026200095F0F5F0E493A3C395F04005E5F0048040
:1026300001E475F002A42582F582E5F03583F58387
:10264000E493A3C0E0E493C0E022D083D082E9C049
:10265000E0E493A3C386F0C5F095F0F908E493A3F2
:1026600086F0C5F095F0700BE493A3C3994005E99B
:10267000048002A3E475F002A42582F582E5F0351A
:1026800083F583D0E0F9E493A3C0E0E493C0E022B3
:10269000D083D082ECC0E0EDC0E0E493A3FCE493EF
:1026A000A3FDED4C600D1226DCEC24FFFCED34FFA5
:1026B000FD80EFE493A3FCE493A3FDED4C600D12C9
:1026C000271BEC24FFFCED34FFFD80EFD0E0FDD0B4
:1026D000E0FCE493A3C0E0E493C0E022C0E0C3E4E4
:1026E0009396087401939618400FE4936670080857
:1026F000740193661870007019A3A3C3E49396083D
:102700007401939618A3A3400DD0E0D0E0D0E0026E
:1027100026CCA3A3A3A3A3A3D0E022C0E0C0F0884B
:10272000F0E4936670080874019366187000A8F0CE
:10273000A3A3700BD0F0D0E0D0E0D0E00226CCA371
:10274000A3D0F0D0E0229B9999400000C84217B76F
:10275000513B0096000000E1000000C201000000B3
:102760000000E8030000640000000A00000001000F
:102770000000456D62726163656C656420004261B2
:10278000747465727920737461747573200052617A
:102790006D206572617365204F4B0A0D00466C61B8
:1027A0007368206572617365204F4B0A0D00426C9F
:1027B0006F636B2072656164204F4B0A0D00426CA1
:1027C0006F636B207772697465204F4B0A0D00426E
:1027D0006C6F636B20696E76616C69640A0D000A28
:1027E0000D426C6F636B206C6F6164204F4B0A0D60
:1027F0000042756666657220696E76616C69640A6E
:102800000D00537461727420626F6F746C6F616439
:1028100065720A0D00436F6D6D756E636174696F4B
:102820006E2074696D656F75740A0D000A0D0020C5
:102830002D204368617267696E670A0D00202D20A4
:1028400046756C6C0A0D002D00630000000200004C
:102850000032000000050000003C0000001E0000E7
:1028600000280000002300000043F30143F201436D
:10287000B43375B5B043A902D2A9D2AF53F4FE5315
:10288000FEFE53F3DF53FDDF438F2053F4FB43FE83
:1028900004C2922274F112244443B44375B6B012B8
:1028A00029278A088B09AE08AF091228EC8A088B01
:1028B00009EE5508F8EF5509F9E849601B90F10059
:1028C0007808122288902746780C12229778087987
:1028D0000C121EF15002D2927F080224AAC082C0BC
:1028E0008390F1001222B9D083D0822274F1122495
:1028F0004490F100780812228890274A780C12221E
:10290000977808790C121F407808121E06C3E50854
:102910009496E5099401A2D265D03340047A0080F0
:10292000027A017B0080B1A28550057A007B0022EB
:102930007A017B0022C0E074EB1224EAE5BAF508C4
:10294000E5BBF509740478081223CBF50AF50B787A
:1029500008121DA990274E780C1222977808790C3E
:10296000121F4090F10078081222AA7F0802254920
:1029700053F4F753FEF722C082C083A29390F10470
:10298000E04006C33344018002C313F0D083D082F9
:1029900022C082C08390F104E0C3941F40047901F7
:1029A0008002790080E674EB12244475140D7515CD
:1029B000007510037511008C828D83122BFA8A82A8
:1029C0008B8378081222AA8A828B83780812228845
:1029D000740878081222428C828D83A3E0F50CE4FF
:1029E000F50DF50EF50F7808790C1222618A828BAD
:1029F0008378081222AA8A828B837808122288742C
:102A00000878081222428C828D83A3A3122C2112F3
:102A100022618A828B8378081222AA8A828B837829
:102A200008122288740878081222428C828D83A3AF
:102A3000A3A3122C211222618A828B83780812228E
:102A4000AA8C828D83A3A3A3A3E0F98C828D831229
:102A50002BE7F0A3E9122BE0122BE7A3A3F08C8263
:102A60008D83122C05122BE0122C05A3F08C828D85
:102A700083122C12122BE0122C12A3F0EA240BF575
:102A800012EB3400F513EC240BF582ED3400F583E2
:102A9000E0F9EC240CF582ED3400F583E085128238
:102AA000851383F0A3E9F0EA245EFEEB3400FFEC2B
:102AB0002477F582ED3400F583122BFA8E828F8312
:102AC00078081222AA8E828F8378081222887408CE
:102AD0007808122242EC2478122C1A1222618E827B
:102AE0008F8378081222AA8E828F83780812228818
:102AF00074087808122242EC2479122C1A122261EE
:102B00008E828F8378081222AA750A008512828528
:102B10001383E05510F508A3E05511F509E50AC344
:102B20003378081223CBAE08AF0985100885110948
:102B3000740278081223DA850810850911EEF8EF7F
:102B4000F9E875F003A4F885F00875F003E9A42509
:102B500008F9EE4F7003022BDB750B00850B8285A5
:102B60008208E50A75F00AA4FE85F00CAF0CEA2E87
:102B7000FEEB3FFFEE2508FEEF3400FFEE240DFED6
:102B8000EF3400FFC3E89508E99400A2D265D03382
:102B900050078E828F83E4801AE5082514F508E437
:102BA0003515F509EC2508F582ED3509F583E08E3C
:102BB000828F83F0050BE50BC3940A409FE8240144
:102BC00008E93400F9E51428F514E51539F515057B
:102BD0000AE50AC394085003022B0C7F0E0224AAB4
:102BE000F08C828D83A322122BEB22A3A3A3A3A399
:102BF000E08A828B83A3A3A3A322E0F508E4F5096E
:102C0000F50AF50B22122C0922A3A3122BEBA3A386
:102C1000A322A3A3122C09A3A322F582ED3400F56D
:102C200083E0F50C7808790C22E5C65480F853BE91
:102C3000FB53C6BFE5C6A2E640FA88C6E5C6687083
:102C4000FB43BE04E5C654C74410F5C653E4F37510
:102C5000E200E5E454FC4401F5E42274F712244454
:102C6000E5E2F508E5E3FF8A828B83E0F8A3E0F96B
:102C7000E508C398F8EF99F9C3EC98ED99500F8ADD
:102C8000828B83E02CF0A3E03DF079018002790093
:102C90007F020224AA74F7122444C3EB9480500EDE
:102CA0008A828B83E0F508A3E0AA08FB80047A00FF
:102CB0007B007F020224AA74F51224448A088B093F
:102CC000EA2400EB34E4C394644011EA24F0F8EB06
:102CD00034FCF9C3E89410E994005047ED90F106F4
:102CE000F0EC90F105F0122D6DE5AEA2E740FA751B
:102CF000AB1185080A85090B7409780A1223BBE514
:102D00000AF5AD740178081223BBE508F5AC43D68B
:102D100002121C96E5D1A2E150FAE5AE54C070FA59
:102D200053D1FD7F040224AA74F5122444E9FE8ED7
:102D30000A750B00740A780A1223DAF508850B0964
:102D40002400E50934E4C394645020E5AEA2E740D2
:102D5000FA740978081223CBE508F5AD75AC007557
:102D6000AB11121C90E5AEA2E740FA80B6C082C05B
:102D70008374F190F107F0A37405F0A374DFF0A35E
:102D800074AFF0A3E4F0A37402F0A37412F0A37480
:102D900042F074F1F5D375D207D083D08222D2AF3E
:102DA00022C2AF22E5A8C2AFA2E7E433FA7B002239
:102DB000EAA2E092AF22EBC313FBEA13FAC3EA9450
:102DC00002EB94004014000000000000000000002E
:102DD000EA24FFFAEB34FFFB80E32274F812244468
:102DE000EAFEEBFFEEF8EFF9E824FFFEE934FFFF1F
:102DF000E84960097AE87B03122DB680E77F01027B
:102E000024AA74F5122444E9FE7A0F7BF112694476
:102E10007A527BF1126944EE24FC6005146007804D
:102E20000A9027528008902756800390275A7808E6
:102E3000122297AA08AB09AC0AAD0B12599490F371
:102E4000D97401F07F040224AA74F31224448A8204
:102E50008B838C088D097E007F00800A880AEE250E
:102E60000AFEEF3400FFC3EE9508EF9509503AE5EE
:102E7000822EF50CE5833FF50DEEF8E508C398F5D5
:102E80000AF9AC0CAD0D7A527BF1126974E9F87055
:102E9000CB7A057B00122DDBA90AAC0CAD0D7A5262
:102EA0007BF1126974E9F870B3EEFAEFFB7F06026A
:102EB00024AA022E49C008ECF9EAFCEBFD7A0F7B4C
:102EC000F1126A038908AA087B00D00822C0087A98
:102ED0000F7BF1126A8580EC53F47F43FE80D2971A
:102EE00053F4DF43FE20C29553F4EF53FEEF53A992
:102EF000F743B90853A9EF43B91022C29743FE2004
:102F0000022F14D29753FEDF53CBEFC2BB539AEF7D
:102F1000538DEF22C082C083D2BB90F1B4E4F09015
:102F2000F19A123648F0538AEFC2EB439A10438D60
:102F300010438C028001F9D083D08222C082C083EA
:102F400090F1B47401F0539AEF538DEF90F199E43E
:102F5000F090F198123631F075CD2775CB3E80D7C1
:102F6000C082C083A297401690F1B2E0601090F149
:102F7000B4E064016008122F3C90F1B2E4F080B735
:102F8000C082C08390F1B3E080AC74F5122444EAAF
:102F9000FEEBFF90F1B3E06401600302303F90F17B
:102FA000CBE08E828F83F0A385820885830990F120
:102FB000CCE0850882850983F090F1CDEE2402FCF7
:102FC000EF3400FD74041222DE750A0AF50B780A4C
:102FD0001225A97CD77DF1EE240CFAEF3400FB1208
:102FE0006AB47402122403EE2406FCEF3400FD855B
:102FF0000882850983E0640B700A90F1D174041291
:1030000022DE801190275E78081222978C828D83B1
:1030100078081222AA90F1D5E08E828F83A3A3A311
:10302000A3A3A3A3A3A3A3F090F1D6E0C0E0EE2452
:103030000BF582EF12330CD0E0F090F1B3E4F07FA7
:10304000040224AA74F412244490F1B2E060030252
:103050003175A29750030231758A828B83E090F11B
:103060009C123311A882A983E090F19D123311A321
:10307000E090F19E123311A3A3E090F19F12319CD6
:10308000E090F1A012319CA3E090F1A1F088828938
:1030900083E0F50CEA240BF8EB3400F9E8FEE9FFD5
:1030A000EA240A18EB3400F988088909EA24091887
:1030B000EB3400F9EA2408FCEB3400FDEA2407F5C0
:1030C0000AEB3400F50B740B650C70141231A37904
:1030D0000912317C90F1A612319590F1A702316B63
:1030E000740C650C70771231A3EA240C12318C90A9
:1030F000F1A6F0EA240D12318C90F1A7F0EA240E2B
:1031000012318C90F1A8F0EA240F12318C90F1A9C1
:10311000F0EA241012318C90F1AAF0EA2411123155
:103120008C90F1ABF0EA241212318C90F1ACF0EA01
:10313000241312318C90F1ADF0EA241412318C90EA
:10314000F1AEF0EA241512318C90F1AFF079131240
:10315000317C90F1B012319590F1B1800E79051269
:10316000317C90F1A212319590F1A3F090F1B274FC
:1031700001F0F9800279007F050224AA7A9D7BF193
:103180001231D0E9850882850983F022F582EB347B
:1031900000F583E022F08E828F83E022123315A3A4
:1031A000A3A3228A828B83A3A3A3A3A3A3E090F16A
:1031B000A2F0850A82850B83E090F1A3F08C828DCA
:1031C00083E090F1A4F088828983E090F1A5F02259
:1031D000C082C083E9FC78007900800D8A828B83ED
:1031E000E028F8A3AA82AB8309E9C39C40EE74FFF0
:1031F0006804022F3674F81224448A828B83E08C90
:10320000828D83123311AA82AB838C828D83A3A813
:1032100082A9838A828B83E08882898312333B125E
:10322000333BA31233288C828D8312334512331C17
:10323000640A70030232E28A828B83E08C828D837F
:10324000A3A3123345A3A312335A12335AA3123342
:103250001C640C60030232E28A828B83E0C0E0ECE3
:10326000240C123309D0E0123328C0E0EC240D12F4
:103270003309D0E0123328C0E0EC240E123309D019
:10328000E0123328C0E0EC240F123309D0E01233EF
:1032900028C0E0EC2410123309D0E0123328C0E03B
:1032A000EC2411123309D0E0123328C0E0EC2412D0
:1032B000123309D0E0123328C0E0EC241312330992
:1032C000D0E0123328C0E0EC2414123309D0E0120D
:1032D0003328C0E0EC2415123309D0E01233110A70
:1032E000AB838A828B83E08C828D83A3A3A3A3A369
:1032F000A3A3A3A3A3123311E0C0E0EC240B123369
:1033000009D0E0F07F010224AAF582ED3400F583B4
:103310002212331522F08A828B83A3221233150ADC
:10332000AB8388828983E02212332C22123330222D
:10333000F08A828B83A30AAB83E02212332C8C8227
:103340008D83A3A322A3A3A3A312334D2212333050
:103350008C828D83A3A3A3A3A32212334DA3A3A383
:1033600022C0E074F21224EA90F1B4E06401600338
:1033700002342990F198E004F024FE602624FB60DA
:103380002724FC602F24FB603424FB603724FC607E
:103390003A24FB603D24FC604024FB604324F5603C
:1033A00046800CD29502361F123624A2E050F4C299
:1033B0009502361F123624A2E140F480E61236242C
:1033C000A2E280F5123624A2E380EE123624A2E4B3
:1033D00080E7123624A2E580E0123624A2E680D9E6
:1033E000123624A2E780D2E4F090F199E004F09044
:1033F000F19DE0640A700478088002781690F199D3
:10340000E0C398501690FAB5E02401F8A3E0340028
:10341000F990FAB5E8F0A3E902361E53CBEFE412B7
:103420003631F0122F1402361F53CBEF90F19AE48D
:10343000F090F197E0700302361F90F1B6E0F8903B
:10344000F19BE012261400151A3676348D349C3424
:10345000AB34BA34C934D834E7342A353935483531
:10346000573584359335A135AF35BD35CB35D93595
:10347000E735F535033690F196E090F1B5F064AAA2
:10348000600302361F90F19B740102361E90F19684
:10349000E090F1B6123648740202361E90F196E0C2
:1034A00090F1B7123648740302361E90F196E09000
:1034B000F1B8123648740402361E90F196E090F18D
:1034C000B9123648740502361E90F196E090F1BAB2
:1034D000123648740602361E90F196E090F1BB1247
:1034E0003648740702361E740A6890F196702FE011
:1034F00090F1BCF079057AB67BF11231D0E9F89001
:10350000F1BBE06870117CCB7DF17AB57BF11231B3
:10351000F590F1B37401F090F19BE4023422E09055
:10352000F1BC123648740802361E90F196E090F114
:10353000BD123648740902361E90F196E090F1BE35
:10354000123648740A02361E90F196E090F1BF12CE
:103550003648740B02361E740B6890F1967019E0B1
:1035600090F1C0F079097AB67BF11231D0E9F89088
:10357000F1BFE06870A1808EE090F1C0123648740F
:103580000C02361E90F196E090F1C1123648740D8F
:1035900002361E90F196E090F1C2123648740E8009
:1035A0007D90F196E090F1C3123648740F806F90D1
:1035B000F196E090F1C41236487410806190F19653
:1035C000E090F1C51236487411805390F196E09066
:1035D000F1C61236487412804590F196E090F1C71A
:1035E0001236487413803790F196E090F1C8123685
:1035F000487414802990F196E090F1C9123648740D
:1036000015801B90F196E090F1CA12363C90F1952E
:1036100012363CF890F1C902357290F19BE4F07FCC
:103620000102254990FAB5E0F8A3E0F5838882E02D
:1036300022F090FAB5749CF0A374F122F079137A19
:10364000B67BF11231D0E922F090F19B22C0E0C0AC
:10365000D0C082C083E58AA2E44003023701538AC6
:10366000EFC2EB90F19AE0701975CDBA75CBBE90B0
:10367000F19674FFF090F197F090F19A7401F002D6
:103680003712E5CAC3941E500890F196E0C2E0805C
:10369000EDE5CAC39432500890F196E0C2E180DEB5
:1036A000E5CAC39445500890F196E0C2E280CFE5A8
:1036B000CAC39459500890F196E0C2E380C0E5CAAD
:1036C000C3946D500890F196E0C2E480B1E5CAC39E
:1036D0009480500890F196E0C2E580A2E5CAC394B8
:1036E00093500890F196E0C2E68093E5CAC394A790
:1036F000500890F196E0C2E7808490F197E402369A
:103700007EE58AA2E3500B538AF7C2EB53BEFC431B
:10371000FE04D083D082D0D0D0E03275E51C75E6AF
:103720001C75E71C75DBFF75DAFF75DDFF75DCFFC7
:1037300075DFFF75DEFF53F1BF43F103E5FF543F33
:103740004480F5FF43F31C2274F8122444EAF8EB9A
:10375000F988828983E0FCA3E0FD88828983A3A3A2
:10376000A3A3E0FAA3E0FB88828983A3A3E0F8A3E4
:10377000E0F974FF6C700374FF6D70047CFE7DFFD4
:1037800074FF68700374FF69700478FE79FF74FF3A
:103790006A700374FF6B70047AFE7BFFECF4FEED3D
:1037A000F4FFEEFCEFFDE8F4FEE9F4FFEEF8EFF9CC
:1037B000EAF4FEEBF4FFEEFAEFFBEDF5DBECF5DA05
:1037C000E9F5DDE8F5DCEBF5DFEAF5DE7F01022463
:1037D000AA90F1E17469F0A3E4F0A374C8F0A3E443
:1037E000F0124304122C2912286912297012371B77
:1037F000123856122ED87904122E0212430012608B
:103800009D80031244277C887D177AE17BF1122C7E
:103810005BE970EF7C407DBC7AE37BF1122C5BE9C5
:10382000600512430180DF12415312384680D7539E
:10383000C9FCE5C954FB4408F5C92243C90353C96F
:10384000FB43C90880FEE5C95408F874A048F5C9CF
:10385000745048F5C922C082C08390DF2FE4F0A3E2
:10386000F0A3F090DF027478F090DF097412F0A3F7
:103870007410F0A3E4F090DF1774C7F0A3E4F0A392
:1038800074B0F090DF037404F0A37445F090DF0788
:103890007412F0A3E4F090DF0C741DF0A37455F0E3
:1038A000A37417F0A37423F0A37411F0A37463F04E
:1038B00090DF137430F0A37438F0A3741DF0A314D8
:1038C000F090DF1A74B6F090DF1C74EAF0A3742A4B
:1038D000F0A3E4F0A3741FF090DF237488F0A374C6
:1038E00031F0A37409F090DF2774C0F0A374C8F01E
:1038F000A37484F0A37460F0A3742CF0A37434F068
:10390000A3741DF0A3740EF043E10490DF3BE05478
:103910001F640170F643E101E0541F640170F990E7
:10392000F2E274DFF0A374D9F074F1F8A3F079E94E
:10393000E9A3F0A37480F0A3747BF0A37413F0A345
:1039400014F0E890F2EAF0E9A3F0A374DFF0A374B6
:10395000D9F0A37420F0A37479F0A37413F0A374C6
:1039600042F043B90143A901439140439180790456
:10397000123979123A29023A49C082C08390DF1B7A
:10398000E054F849F0023A49C082C08390F1E7E080
:10399000607690F1E9E090F2DFF0F874E928F874CD
:1039A000F13400F988828983A3E090F2E1F0E82401
:1039B000020808E9123B58A2E790F2E050047401B3
:1039C0008001E4F088828983E4F0FC80238C82AA61
:1039D0008274EA2AF874F1123B58C0E074642AF544
:1039E0008274F2123ADBD0E0F088828983E4F00C32
:1039F00090F2DFE0F8ECC39840D390F1E57401F069
:103A000090F1E7E4F0123A29803FC082C08390F140
:103A1000E67410F043D68074F2F5D575D4EA43D637
:103A200001123A4E43E1038020C082C08390F1E648
:103A30007420F074F2F5D575D4E243D60175E9002F
:103A4000539BFC123A4E43E102D083D08222439A28
:103A500001439110D2AF22C082C08390F1E5E060B3
:103A60000A90F2E0E0600479018002790080DAC017
:103A700082C08390F1E5E06401705A90F2DFE0C00B
:103A8000E0EA247B123AD8D0E0F090F2E0E0C0E027
:103A9000EA247C123AD8D0E0F090F2E1E0C0E0EA0B
:103AA000247D123AD8D0E0F07C00801A8C82A88263
:103AB000746428F58274F2123ADBE0C0E0EA28125E
:103AC0003AD8D0E0F00C90F2DFE0F8ECC39840DC9C
:103AD00090F1E5E4F0023A49F582EB3400F58322F7
:103AE000C082C08343D68090F1E7E4F043E1045301
:103AF0009AFE75E900539BFCC289023A4974F81298
:103B0000244490F1E6E06420704790DF3BE06401DC
:103B1000600375E104EA247BF8EB123B5890F1E96D
:103B2000F07E00801A8E82AC82EA2C123AD8E0C075
:103B3000E074EA2CF58274F1123ADBD0E0F00E88E2
:103B4000828983E0FCEEC39C40DB123A0A79018053
:103B50000279007F010224AA3400F988828983E077
:103B600022C0E074F21224EA53E9EF539BFC90F177
:103B7000E6E06420700590F1E78006123A2990F1A2
:103B8000E87401F0E5E95480F5E9600953E97F4301
:103B9000E104123A0AE5E9A2E6500953E9BF43E11C
:103BA00004123A297F0102254974E912244474FF62
:103BB0001223EDE9851882851983F08A0C8B0D7428
:103BC00018122438E0FAA3E0FB790E751003751182
:103BD00000EA247BF512EB3400F513EA2404F51611
:103BE000EB3400F517EA2403F514EB3400F515EA7D
:103BF0002402F50EEB3400F50F8A828B83A3AE828C
:103C0000AF83851882851983E0604B147003023DF1
:103C1000EB147003023E8C147003023E8C1470038C
:103C2000023ED9147003023EEB147003023F3814B5
:103C30007003023F7C1470030240C3147003023F00
:103C4000E6147003023FA4147003023FEF147003E4
:103C50000240790240C68A828B83740212414B1261
:103C60002288741878081222298E828F8312414983
:103C700012228874107808122229124143122288D5
:103C8000E50985148285158312414B122288851619
:103C900082851783E508F0EC2404FEED3400FF8EE6
:103CA000828F831240D8A3A3A3A31240EA1240DE5E
:103CB0001240F01240D91240F0A31240DE12410629
:103CC00012410E8C828D83A3A3A3A3A3A3A3A3124B
:103CD00040D8A3124106A3A3E0C0E0EA240B12409F
:103CE000D0D0E0F0EC240BFEED3400FF8E0A8F0BF9
:103CF0008E82F583A3E0C0E0EA240C1240D0D0E02D
:103D00001240EAE0C0E0EA240D1240D0D0E0F07E9C
:103D1000007F00850A82850B83E05510F508A3E03B
:103D20005511F509EEC33378081223CBE508F50CDD
:103D3000851008851109740278081223DA850810A5
:103D4000850911E50C7003023DD575F003A404F557
:103D50000E7800805D888285820C8E088F09E508C8
:103D600075F00AA4F50885F00F75F00AE509A42599
:103D70000FF509EC2508F508ED3509F509E50825E5
:103D80000CF508E5093400F509E508240DF582E590
:103D9000091240D3E0C0E08908E50C2508F508E4E5
:103DA0003400F509EA2508F582EB3509F583D0E002
:103DB000F008E8C3950E409DE50E29F9EE24010EAA
:103DC000EF3400FFC3EE9408EF9400A2D265D03325
:103DD0005003023D138908EA25081240D0A374035A
:103DE000F0298512828513830240C28A828B8374F4
:103DF0000212414B122288741878081222298E82EE
:103E00008F831241491222887410780812222912D5
:103E10004143122288E50985148285158312414B9E
:103E200012228885168285178312413712228874E0
:103E30001878081222298A828B8312413212228832
:103E40007410780812222912412D122288E5098A5D
:103E5000828B83A3A3A3A3A3A3A312413912228815
:103E60008A828B83A3A3A3A3A3A3A3A3E508F0E55E
:103E70000C245DF582E50D1240D312410E8A828B2F
:103E800083A3A3A312411C740B0240C28A828B83BA
:103E9000740212414B122288741878081222298E5B
:103EA000828F8312414912228874107808122229C5
:103EB000124143122288E509851482851583124137
:103EC0004B122288851682851783E508F08A828B3B
:103ED0008312411E74060240C28A828B837402F0F0
:103EE000850E82850F8304F0023DE28A828B837403
:103EF000D012414B122288741878081222298E821F
:103F00008F831241491222887410780812222912D4
:103F10004143122288E50985148285158312414B9D
:103F2000122288851682851783E508F08A828B83A2
:103F300012411C74080240C21240E474E012414B6A
:103F400012228874187808122229124143122288FA
:103F5000741078081222298514828515831241492C
:103F6000122288E50985168285178312414B122299
:103F7000888A828B83A3A3A3A3A380AD1240E40409
:103F8000F0850E82850F83E4F08514828515837495
:103F900003F08A828B83A3A3A3A3A3A3A312412527
:103FA000040240C28A828B83742212413912228811
:103FB000741878081222298E828F831241371222B8
:103FC0008874107808122229850E82850F83124189
:103FD00037122288E509851482851583F0850C82C5
:103FE000850D830240B08A828B83742002407F8AD1
:103FF000828B83742112414B122288741878081224
:1040000022298E828F8312414912228874107808E7
:10401000122229124143122288E50985148285154E
:104020008312414B122288851682851783124137ED
:10403000122288741878081222298A828B831241EE
:10404000321222887410780812222912412D12226D
:1040500088E5098A828B83A3A3A3A3A3A3A3124108
:10406000391222888A828B83A3A3A3A3A3A3A3A329
:10407000E508124125740980498A828B83743012C5
:10408000414B122288741878081222298E828F835D
:1040900012414912228874107808122229124143D1
:1040A000122288E509851482851583F08C828D8320
:1040B0007808122288851682851783E50812412523
:1040C0007405F0123AFD74011224037F100224AA31
:1040D000F582EB3400F58322A31240DEA322E08AAE
:1040E000828B83228A828B837402F08E828F83225A
:1040F0001240F422A3A3A3A3A3A3F08C828D83A3D5
:10410000A3A3A3A3A322A3A31240F4A3A322124018
:10411000DEA3A3A3A3A3A3A3A3A3F022A3A3A3A368
:10412000A3A3A37403F0851282851383228A828B52
:1041300083A3A3A3A3A3A3E508F0850C82850D8325
:10414000780822850E82850F83E508F08C828D83A6
:10415000780822C082C08390F2F2E0F8740128F05F
:10416000E8601114601314601514601714601914BA
:10417000601BE4F012398880171229778012122808
:1041800094800D1259D88008122F6080031261CAE2
:10419000D083D0822274F712244474FE1223EDE5FA
:1041A000D5C0E07401122438D0E01242EA8A088BAC
:1041B00009740578081223DAE58DA2E490F2F35031
:1041C000087401F0122F038002E4F090DF1BE090EE
:1041D000F2F5F0123AE0E5F390F2F4F075F30053E3
:1041E000FEFBC2A053BE7F439A10538AF7438D084B
:1041F000C2C753A1FE43A110D2ADD2AF53BEFBE55F
:10420000BEA2E550FAE5C654F84441F5C6E5C6A29B
:10421000E650FA43BE0443C680E5D5C0E0740112FF
:104220002438D0E01242EA43D68174FA90FABEF004
:10423000A374B7F074FAF5D575D4BE75D601E5A2AE
:1042400054FC4402F5A243A204E5A5F8E5A5686084
:10425000FBE5A5F8E5A56860FBE509F5A4E508F52B
:10426000A343C70275BE06000000E5BE5403600804
:1042700075D701004387010053C7FD74011224382C
:10428000E0F5D5851882851983E0F5D475D60153FC
:10429000BEFCE5BEA2E550FA7A017B00122DDB538D
:1042A000C6BFE5C6A2E640FA53C6F843BE0490F284
:1042B000F4E0F5F390F2F3E064017003122EFBE5F5
:1042C000FEA2E250047E01800543FE047E00123807
:1042D0005690F2F5E090DF1BF07904122E02EEF911
:1042E00074021224037F020224AAF0E5D485188206
:1042F000851983F022C2C753A1FE53BEFCC2AD3262
:1043000022024857C082C0837B05EB75F006A4F8F3
:10431000A9F074F828F58274F239F583E4F01BEB08
:1043200070E88012C082C083EA4B600A8A828B8365
:10433000A3A3E054FBF0D083D0822274F112244472
:10434000E9FE740F1224387808122288EA4B60487C
:10435000EE14601014600814700F902762800D90A6
:104360002766800890276A800390276E780C1222B7
:1043700097E508850CF0A4C508A8F0850DF0A428E1
:10438000F8850CF0E509A428F5098A828B83E508F5
:10439000F0A3E509F01243247F080224AAC082C0DA
:1043A00083EA4B60118A828B83E0F8A3E0F9E84945
:1043B000600479008002790102433674F5122444C6
:1043C00089087E067AF67BF2EA2402F8EB3400F9DB
:1043D00088828983E054087039E054087004E0440E
:1043E00008F0E054F8FCA3E0FD85080AE50A540350
:1043F000FEEC4E441088828983F0A3EDF08A828B14
:1044000083E4F0A3F08A828B83A3A3A3A3F0A3F099
:104410008010EA2406FAEB3400FB1EEE70AA7A0044
:104420007B007F040224AA74F81224447EF67FF2F3
:104430007508068E828F83A3A3E0F8540C6408707D
:1044400053E854038E828F837041E0F8A3E0F9E8CB
:1044500049600E8E828F83E024FFF0A3E034FF805A
:1044600032EE2404F8EF3400F9E8FAE9FB8A828B93
:1044700083E0F8A3E0F98A828B83E4F0A3F0E849B3
:104480006012888289831224428009E02401F0A30B
:10449000E03400F0EE2406FEEF3400FF1508E508D6
:1044A00070917F010224AAC082C08390F3B9E0F822
:1044B000742268701D90F3A6E0703390F3BAE0F8B0
:1044C000A3E0F990F3D7E8F0A3E9F090F3A6740223
:1044D000801B74206890F3A67011E0701190F3B304
:1044E00074D0F0A374F3F0A3E480DF7404F0803F91
:1044F000C082C08390F3B9E0642190F3A6701DE000
:10450000701D90F3B374D0F0A374F3F0A3E4F0A3A0
:104510007407F0A3E4F090F3A60480027404F08022
:104520000E80028000C082C08390F3A67404F0D095
:1045300083D0822280EF222274F812244474FD1268
:1045400023EDE9FE12481E5004243080022437F087
:10455000740F5EC0E07401122438D0E01246BB50E4
:1045600004243080022437F074021224387420F0BE
:104570007C037D00851882851983AA82AB83122E65
:10458000B290F31AE004F0C39410400CE4F07C0203
:10459000FD7A2C7B28122EB21259D87403122403F0
:1045A0007F010224AAE9FC1245C95003EC80037480
:1045B000C92CC454F0FCEC2AFBEA1245C95005741E
:1045C000D02BF92274C92BF92224D0F8E434FFF956
:1045D000C3E8940AE99400A2D265D0332274F112A0
:1045E000244474FB1223ED7C107D007A7E7B27121D
:1045F00048141228DD8A088B098C0A8D0B90274AF3
:10460000780C1222977808790C121F407808121E35
:1046100006AC08AD09ECF8EDF97A647B0012235A78
:10462000E88518828519831246BB50042430800225
:104630002437F07401122438742EF0ECF8EDF97A76
:10464000647B0012235AEAF875F00A84C0E0740211
:10465000122438D0E01246BB5004243080022437A4
:10466000F0E875F00A847403122438E5F01246BBB2
:104670005004243080022437F07404122438745615
:10468000F07C057D00851882851983AA82AB831290
:1046900048141228EC8B09EA4509600A7C0D7D005C
:1046A0007A2F7B2880087C097D007A3D7B28124880
:1046B0001474051224037F080224AAF0C3940AE0AC
:1046C0002274F112244474FE1223ED7C0C7D007AD6
:1046D000727B271248147A127B03122C958B097A6D
:1046E000127B03122C958A0C7A107B03122C95AE48
:1046F000098E08E4F509F50AF50B7408780812220A
:1047000042F50DF50EF50F7808790C122261740848
:104710007808122242EBFA8A0C7808790C1222618E
:10472000740878081222427A107B03122C958A0CA6
:104730007808790C1222617E037F0085080C8509B8
:104740000D850A0E850B0FEE33333354F8780C12B7
:10475000222912481B5004243080022437F0740FA1
:1047600058C0E07401122438D0E01246BB50042433
:10477000308002243712482D50C17508477509282A
:1047800012480C90F55C7401F0A3E4F07E01FF7513
:104790000C01750D00750E00750F00EE33333354A8
:1047A000F8780C12222912481B500424308002246D
:1047B00037F0740F58C0E07401122438D0E012466C
:1047C000BB500424308002243712482D50C11248B7
:1047D0000C90F55EE0F812481E500424308002244C
:1047E00037F0740F58C0E07401122438D0E012463C
:1047F000BB50042430800224371248447C027D00E0
:104800007A2C7B2812481474020246B37C017D0086
:10481000AA08AB09122EB21259D822A80CE8C45427
:104820000F851882851983F0C3940AE02212484448
:104830001259D8EE24FF1EEF34FFFFC39400A2D21A
:1048400065D03322F07C027D00851882851983AA09
:1048500082AB83122EB22274F112244474F8122314
:10486000ED122ECD8B09EA45097003024C7E7C01C6
:104870007D00851882851983AA82AB83122EB575B7
:104880000A15750B28E0249E7003024C7024FD70FD
:104890000302499B24FC601F24FD7003024AF1249B
:1048A000FC7003024B6124FE601924FC600F14703D
:1048B00003024A5F024C7E1246C1024C7E1245DD65
:1048C000024C7E750800750900750C00800B124CB7
:1048D000F24003750C01123846124CE75006E50C05
:1048E000A2E050EAE50CA2E0500E7C177D00AA0A77
:1048F000AB0B122EB2024C7E124CA7122438124D72
:104900002290F31AE4F0124CD41223DA850A0885B7
:104910000B098A0AF50B7407780A1223DAA80AA988
:104920000BEAC39408502FE8FEE98016745F2EF559
:104930008274F53FF583E0F9124538EE24010EEF5D
:104940003400FFC3EE9508EF950940E07C107D0030
:104950007AAE7B27809CEAC394F04034124C83509B
:104960002FE8FEE9FFC3EE9508EF950950DEEEFA59
:10497000EFFB122C95EAF9124538EEFAEFFB122CF8
:1049800095EBF9124538EE24020E0EEF340080D478
:104990007C107D007ACF7B270248F27508007509EC
:1049A00000750C00800B124CF24003750C0112389C
:1049B00046122ECD8B0FEA450F7006E50CA2E05093
:1049C000E5E50CA2E050030248EA7C017D00AA82E2
:1049D000AB83122EB5E0249A606324F46003024C8A
:1049E0007E750E00850E82AA828A087509007407FA
:1049F00078081223DA124CBF1223DA124CB5502376
:104A00008A08124CD81223DAF509740778081223A1
:104A1000DAE50AC39508F8E50B9509124C8C124D9E
:104A20001570FB050EE50EC3940840B890FAD774D4
:104A300001F07C0F7D007A8E7B270248F2750E1EF6
:104A4000A90E122D28050EE50EC3942040F290FA0F
:104A5000D77401F07C117D007A9D7B270248F275A6
:104A60000800750900750C00800B124CF2400375AC
:104A70000C01123846124CE75006E50CA2E050EA51
:104A8000E50CA2E050030248EA124CA712243812A7
:104A90004D34F582AA82C39408503F8A08750900F4
:104AA000740778081223DA124CBF1223DA124CB5BD
:104AB0004003024A2CE9124CC61223DAF50F7407A0
:104AC000780E1223DAE508C3950EF8E509950F1262
:104AD0004C8C124D1570FB024A2CE9C394F0500324
:104AE000024990124C834003024990122D28024A39
:104AF0004E7E007F008E0C750800750900800B1239
:104B00004CF24003750C01123846124CE75004E594
:104B10000C60ECE50C70407C027D008518828519E4
:104B200083124CAB122438124D34124538124C9C6F
:104B3000E50E124D0BC3EE9480EF940040B990F354
:104B40009C7401F07C127D007ADF7B271248149060
:104B5000F31AE4F0024C7E7C177D00AA0AAB0B80AE
:104B6000EB750800750900750C00800B124CF240C3
:104B700003750C01123846124CE75006E50CA2E012
:104B800050EAE50CA2E050030248EA124CA71224B6
:104B900038124D2290F39CE0700B7C117D007AF16D
:104BA0007B270248F2124CD41223DA850A08850BBF
:104BB000098A0CF50D7407780C1223DA850C0A8526
:104BC0000D0BE9C39408504B7E007F00850A0C85CD
:104BD0000B0D124CB54020C3EE9480EF940040ECD6
:104BE00090FAD77401F07C117D007ABE7B27122EDB
:104BF000B290F39C024B52124C9CE0C0E0124C8FDE
:104C0000D0E0124D0BE50C2401F50CE50D3400F558
:104C10000D80BFE9C394F04054124C83504F7E0086
:104C20007F00850A0C850B0D124CB5400BC3EE942A
:104C300080EF940050AA80EA741B2EF874F33FF9B9
:104C400088828983A3E0FB88828983E0FCEBFDAA4C
:104C50000CAB0D122CB7EE24020E0EEF3400FFE564
:104C60000C2402F50CE50D3400F50D80BB024990D3
:104C70007C137D007A027B2812481412383B74089A
:104C80000246B3C3E49401C365D03322F97AFF74BA
:104C90005F250CF58274F5350DF58322741B2EF516
:104CA0008274F33FF583227C027D00AA82AB8312DB
:104CB0002EB5740122C3E50C9508E50D95092285F2
:104CC000080C85090DEA2401F508E43400F509749F
:104CD000077808228982AA82EA2401F50AE43400CE
:104CE000F50B7407780A22122ECDC3EA9402EB94D6
:104CF00000221259D8A808A909E82401F508E934C6
:104D000000F509C3E89431E9947522F0EE24010E10
:104D1000EF3400FF22EAF0A3E824FF18E934FFF99A
:104D20004822124D2622E0FA851882851983E0F97F
:104D30001245A522124D26E9F50E22D083D08222FB
:104D4000C082C083E9FCEAFD7A007B0080081890ED
:104D5000F39EE0124D9790F39DE0F8A3E0F990FAEE
:104D6000C8E0687003A3E069602B90F39DE0240124
:104D700008A3E03400F988828983E4936C700E9074
:104D8000F39DE0FAA3E0FB18124D978008E4936DC1
:104D900070BCED60B980A4F5838882E493F890F349
:104DA0009DE028F8A3E03400F990F39DE8F0A3E932
:104DB000F022C082C083124DFB7A007901124D406F
:104DC000024D3B74F7122444E9FEEAFF124DFB7AD0
:104DD000007902124D40EA4B601CEE60108A828B13
:104DE00083A3A3A3A3A3E4936E70E48009EFF874F4
:104DF000FF281F0470D97F020224AA90FAC6E0F8A7
:104E0000A3E0F990F39DE8F0A3E9F02274F51224F1
:104E100044EAFF8B087A00124DC37A027904124DDE
:104E200040EA4B60188A828B83A3A3E4936F70EAF5
:104E30008A828B83A3A3A3E493650870DD7F0402B9
:104E400024AA74F7122444E9FE124DFB7A00790378
:104E5000124D40EEF874FF281E0470F08098C08256
:104E6000C0837A007901124DC38A828B83A3A3A3E6
:104E7000A3A3A3A3E493A2E690F3B2500474018029
:104E800001E4F090F3B1E4F043BE80D2BDD083D012
:104E90008222C082C08390F39F7402F0A3E4F0905A
:104EA000F3A6F079031250E675210075220080DD2B
:104EB00074F612244490DE0EE0FEE4F090DE11E081
:104EC000F50AA2E4501D7480F090F3A67407F0E593
:104ED000214522600985218285228312244290F394
:104EE000A6E4F0E50AA2E2500B90DE11E4F090F3A4
:104EF000A6F0807890F3A6E0F8740268705790DE10
:104F000016E0FF90F3B31225BAEFF97A207BDE1298
:104F1000511E74031224038F0890F3B61250BB1273
:104F200050C6E0F8A3E0F9E84960047440800274D8
:104F30004890DE11F0E8497014E5214522600985AA
:104F4000218285228312244290F3A6E4F0EE90DEC3
:104F50000EF00251647406687009852182852283EF
:104F600012244290F3A6E06003025052E50AA2E048
:104F700050DB7508B87509F3750A0078081225A585
:104F800079087A207BDE12511E74031224037521E6
:104F90000075220090F3B8E054E0601C24E0700338
:104FA00002502C24E0606F24C0604524E0700302AE
:104FB000503724E0606B8030A3E014601C24FE6056
:104FC0001324FE600A24FC601524FE60168019126A
:104FD000546E806C1254628067125456806212576D
:104FE000D4805D125902805890F3A67404F0805862
:104FF000A3E0600E24FA600F24FE601024FE60110E
:1050000080E612529480391254B680341257A4802C
:105010002F1258A2802A7521217522451245218020
:105020001F75212375224512452380147521A7750C
:1050300022441244A780097521F07522441244F0DD
:1050400090F3A6E06404700474608002744090DE03
:1050500011F090F3A6E0F8740168704B750A0290A5
:10506000F3B6E0F8A3E0F9C3E89420E99400500710
:10507000E8FF750A0A80027F2090F3B31225BAEF89
:10508000F97A207BDE12514274031224038F081236
:1050900050C61250BBE50A90DE11F0EFC3942040D9
:1050A00003024F4D024F397405686003024F4D856E
:1050B0002182852283122442024F4DC3E09508F0DD
:1050C000A3E09400F02290F3B3E0F9A3E0FAA3E0A8
:1050D000FBE92508F9EA3400FA90F3B3E9F0A3EA12
:1050E000F0A3EBF0A32274F712244478008808742C
:1050F000A72508F58274F312511240F17800880850
:1051000074AC2508F58274F312511240F17F02024B
:1051100024AA3400F583E9F008E8C394052274F664
:10512000122444EAFCEBFDE9F8740A122438125107
:1051300074600D8C828D83E0121D9312516970F39F
:10514000802274F6122444EAFCEBFDE9F8740A129A
:105150002438125174600D121D798C828D83F012E7
:10516000516970F37F030224AAE9240109EA34009B
:10517000FA18E822E0F508A3E0F509A3E0A908AAD7
:1051800009FBE82274F71224447523007524007586
:1051900025008A268B27EA90DE0BF08A088B09749B
:1051A0000478081223CBE50890DE07F08A088B0903
:1051B000740978081223CBE508543E90DE09F043C9
:1051C0008C10758900C2C5758B00C2E8439A027FB6
:1051D000020224AAC0E074F11224EAE5BEA2E6505D
:1051E000FA90DE06E0FAA2E25035A826E890DE0B3F
:1051F000F0F508852709740478081223CBE5089098
:10520000DE07F0852608852709740978081223CB64
:10521000E508543E90DE09F090DE01E0D2E0F0783F
:1052200023EA46F690DE02E0F5087509007404787A
:10523000081223DA7823E50846F608E50946F690D1
:10524000DE04E0F508750900740978081223DA789D
:1052500024E50946F6EAA2E0500375250174065AD2
:105260006003752500124537758B00C2E87F020286
:105270002549C0E074F21224EAE5BEA2E650FAE540
:1052800089A2E75005C2BD125983758900C2C57F46
:105290000102254974F71224441258977011A3E0B3
:1052A000F8A3E0700AA3E064027002A3E060089033
:1052B000F3A6740402536790F3B8E02480600814E6
:1052C000602A14603780E8E870E590F3B2E060048B
:1052D00078018002780090F3C0E8F0A3E4F090F346
:1052E000B1E0606890F3C0E04402805C90F39FE01E
:1052F000640470BB90F3C0E4F0A3804FE8547FF5E2
:105300000890F39FE0640470A6E508C39406509FDC
:10531000749F2508F58274F33400F583E8548060A7
:1053200010A3A3A3A3A3A3A3E06403701578018033
:1053300013E582240CF582E5833400F583E06403F1
:1053400060EB780090F3C0E8F0A3E4F090F3A6E0FF
:105350006404601490F3B374C0F0A374F3F0A3E496
:10536000F0A374021258F9F002597974F712244428
:10537000E9FE90F3BE12589A701090F39FE0640417
:10538000601090F3BC12589A600890F3A67404025F
:10539000545090F3B8E0541F600814600D1460245A
:1053A00080E890F3BAE0640160057900025453EE9E
:1053B00090F3B1F060047905800279067A00124515
:1053C0003602545190F3BCE0547FFA90F3BAE07087
:1053D000D9EAC3940650B3EA90DE0EF08A08749FAF
:1053E0002508F874F33400F990F3BCE05480602C85
:1053F000EE600474108002744090DE11F0EE6004E0
:1054000074038001E488828983A3A3A3A3A3A3A335
:10541000F0EE6004790880317907802DEE60047425
:10542000208002748090DE14F0EE6004740380012A
:10543000E4C0E0E8240CF582E93400F583D0E0F024
:10544000EE6004790A8002790912453690DE0EE496
:10545000F07901025979790012536BE97003124512
:105460002522790112536BE9700312453422C08260
:10547000C08390F3BC12589A7015A312589A700FFB
:1054800090F3BA12563B5480FAE9FBEA4B6007905E
:10549000F3A67404801AE890DE00F090F39F600990
:1054A000E06402700C74038007E06403700374020C
:1054B000F0D083D0822274F312244490F3BAE0FA3D
:1054C000A3E0146008146019146047804C124DB2B8
:1054D00012561CA37B80121D79A3F0A3E4F00255A1
:1054E000D67900124DC312561C7B80E924020909AB
:1054F000EA3400FA121D79FC1919E0FAA3E9240331
:10550000090909EA3400FA121D79F9ECA3F0A3E9BC
:1055100080CBEAF9124E4280B790F3B3E4F0A3F0E7
:10552000A3F0F50B90FACAE0FAA3E0FB0255B175BF
:105530000900740378081223DAEA2508F8EB350924
:10554000F990F3BA125631E493C0E0EFFCD0E06C6E
:10555000705DA3E4936E705790F3BC125631A3A311
:10556000E493C0E0EFFCD0E06C704488828983A3B0
:10557000A3A3E4936E703888828983A3A3A3A3E4D2
:1055800093F508740193F50990F3B3E508F0A3E5EA
:1055900009F0A37480F088828983A3A3A3A3A3A3A3
:1055A000E493F8740193F990F3B6E8F0A3E9F005F9
:1055B0000B850B0890FACC12563BC39AF50CE99B6D
:1055C000F50D7403780C1223CBC3E508950CE49514
:1055D0000D500302552F90F3B3E0FCA3E0FDA3E0D0
:1055E000FEEC4D4E90F3A6700474048029E0640430
:1055F000602590F3BEE0FAA3E0FB90F3B6E0F8A3D9
:10560000E0F9C3EA98EB99500890F3B6EAF0A3EBFF
:10561000F090F3A67401F07F060224AA90F3B3EA97
:10562000F0A3EBF0A37480F090F3B3E0F9A3E0FAF9
:1056300022E0FEA3E0FF8882898322E0F8A3E0F95C
:10564000E82274EE122444EA2404F8EB3400F988CA
:105650000889098882F583E493602590FACE125672
:105660003BFEE98007EE2404FEEF3400FF8E828FBC
:1056700083E493F8740193F9EA687002EB6970E5CA
:10568000750C00804090DE147490F07410125798DE
:105690007003750D408E828F83A3A3A3E4935510EE
:1056A0006006E50DD2E0F50DE50D90DE15F0EA900F
:1056B000DE13F0EC240CF582ED3400F583E4F09079
:1056C000DE0EF0050C850882850983E493F8E50C6D
:1056D000C39840030257937A007905124D408A0E11
:1056E0008B0FEA450F60DCEA2402F8EB3400F988FE
:1056F0000A890B8882F583E493540FF51290DE0E2D
:10570000F0750D008A828B83A3A3A3A3E4932407DF
:10571000F510A3E4933400F511740378101223CB31
:10572000AA10851210749F2510F874F33400F9E85C
:10573000FCE9FD751001751100E51278101223DAED
:10574000E50E2403F8EB3400F9850A82850B83E427
:1057500093A2E7400302568590DE117448F0740866
:105760001257987003750D408E828F83A3A3E49324
:1057700055106006E50DD2E0F50DE50D90DE12F056
:10578000EA90DE10F08C828D83A3A3A3A3A3A3A32E
:105790000256BD7F0B0224AAF088828983E49354C9
:1057A00003640122C082C0831258977010A312585C
:1057B0009A700AA3E064017002A3E0600790F3A668
:1057C0007404800C90F3B374A0F0A374F31258EF38
:1057D000F00254B174F412244490F39FE064026028
:1057E0001490F3BC12589A700CA312589A70069039
:1057F000F3BBE0600990F3A67404F00258927A00BB
:10580000790112453690F3BAE060727A00F9124DD0
:10581000C38A088B09EA4509605B90F39F7404F022
:1058200090F3BAE090F3A0F0750C0085088285092A
:1058300083A3A3A3A3E493F8E50CC398504D850C70
:105840000A74A1250AF874F33400F9E8FEE9FF8E22
:10585000828F83E4F07A007904124D408A828B8330
:10586000A3A3A3E493F88E828F83E06870E71256B7
:1058700042050C80B690F3A67404F0800E90F3A05D
:10588000F090F39F7403F0F91250E67A0079021257
:1058900045367F050224AA90F3BAE0F8A3E0F9E8C0
:1058A000492274F612244490F39FE0640470199026
:1058B000F3B8E064817011125897700C90F3BEE059
:1058C00064017002A3E0600790F3A67404801A904C
:1058D000F3BCE024A1F508A3E034F3F50990F3B399
:1058E000E508F0A3E5091258EFF07F030224AAF0BF
:1058F000A3E4F0A3041258F922F0A3E4F090F3A675
:10590000042274F712244490F39FE0640470109012
:10591000F3B8E06401700890F3BE12589A600890E2
:10592000F3A67404F0805290F3BAE0FB90F3BCE06D
:10593000FA90F3A0E0F9124E0C8A088B09AE08AF7A
:1059400009EE4F60DA90F3BCE0FA79031245369025
:10595000F3BAE0C0E090F3BCE024A1F8A3E034F394
:10596000F988828983D0E0F0EEFAEFFB125642907C
:10597000F3BCE0FA79041245367F020224AAD083F0
:10598000D08222C082C08390F3C7E4F0A3F0A3F0DA
:10599000A3F080EA74F51224448A088B098C0A8DDE
:1059A0000B90F3D078081222AAA3E4F0A3F0A3741A
:1059B00008F090F3D7E4F0A3F090F3D904F0124E7E
:1059C0005E7AFF7BFF12518453F5FED2A043FF01A4
:1059D000122D9E7F040224AA74F2122444A823E804
:1059E000540460097823E654FBF6124E92A823E88B
:1059F000541060097823E654EFF6124EB0A823E85D
:105A0000A2E0500E782354FEF61229277823E6549C
:105A1000FDF690F3D9E07003025AF290F3D7E0F864
:105A2000A3E0F9E8497003025AF2122DA190DE0EAC
:105A3000125B11750CDA750DF3750E0090DE14E033
:105A4000A2E0505C90DE16E0F8A3E08808125AF756
:105A5000F895E0F985080AC3E8950AE99400A2D20E
:105A600065D0335006125AF7FE8002AE08EE603061
:105A7000780C1225A5EEF97A287BDE12511E7403EC
:105A8000122403EEF97CDA7DF37A0F7BF11269744C
:105A9000EE6508700B90DE0E7404F090DE14E4F0F6
:105AA000125B05122DA1125B1190DE11E0A2E04005
:105AB0003E7A527BF1126A85E9FF6033C39441401C
:105AC000027F40EFF97CDA7DF37A527BF1126A03B0
:105AD000780C1225A5EFF97A287BDE125142740367
:105AE00012240390DE0E7404F090DE117401F012A3
:105AF0005B057F070224AA7A0F7BF1126A85E9F819
:105B00007440C3982290F41AE090DE0EF0122D9E9D
:105B100022E090F41AF090DE0E7404F02274ED127C
:105B2000244474FA1223EDE9FE8A088B098C0A8D4D
:105B30000B780A122690000002000100495BFF006A
:105B4000595C445BAF08025CCA125F02125EFC75CE
:105B500083FA7582D3C3E098A3E099501190275E31
:105B60001225E7790090F4231261BF122403125F1B
:105B700002C082C083125EF97A027B0012235A8827
:105B80000A890BD083D082E0C3950AFAA3E0950B73
:105B9000FB126A988A0C8B0DEB3395E0F50EF50F2E
:105BA000125EF97A047B0012235A8810E9F511334A
:105BB00095E0F512F513780C7910122274740178BF
:105BC0000C12224290F54E780C1222AA90275E7891
:105BD0000C1222977583F575824E780C121D645055
:105BE0001090275E780C12229790F54E780C1222B6
:105BF000AA90F54E7810122288902849780C12222B
:105C0000977810790C1220C090FAD3E0F50CA3E03D
:105C1000F50D3395E0F50EF50F7810790C1221DAB9
:105C2000E5093395E0F50AF50B781079081220C0E4
:105C30007401781012224290276678081222977811
:105C40001079081221DA90F54E78101222AA90F5F8
:105C50004E7808122288025B4490FAD5E0604A7FB1
:105C60000512608C1222977808790C121F40780870
:105C7000121E06A808A909C3E89468E99401500413
:105C80007E00800E7E04C3E89490E9940140031ED8
:105C90001E1E90F42512604D603090FAD5E4F0900D
:105CA000276A1225E7790380187F0090F425126097
:105CB0004D601790FAD57401F09027661225E779A8
:105CC0000090F4251261BF122403EE122614001175
:105CD000455EF65C165D2C5D435D4D5D5A5D6C5D09
:105CE0007C5D8C5DA45DB25DBC5DCD5DDE5DCD5D3A
:105CF000F75D085E145E85188285198374FFF0A332
:105D0000E4F07402122438E4F0A3F074041224388E
:105D1000E4F0A3025E44851882851983E4F0A3F0C1
:105D2000740212243874FFF0A3E480DE125EDD12E8
:105D30002438E4F0A3F0740412243874FFF0A3E4D0
:105D4000025E44125EEA122438741E80DA125EEAA1
:105D500012243874FFF0A3E480DB125EDD122438D5
:105D60007464125ECF12243874FF80D1125EEA127E
:105D70002438125ED6122438742380C1125EEA12CF
:105D80002438125ED6122438745080B1851882856A
:105D900019837496125EF2122438125ED6122438D9
:105DA00074CD809985188285198374FFF0A3E4026D
:105DB0005D1F85188285198374C880F0125EDD121C
:105DC0002438125ECD122438740F025D3D125EDD60
:105DD000122438125ECD12243874AF025D3D85184E
:105DE000828519837496125EF2122438125ED612DE
:105DF00024387496025D3D125EDD122438125ED6A0
:105E000012243874FE025D3D851882851983E4F002
:105E1000A3025D0190F553125EFC851882851983FB
:105E2000E8F0A3E9F090F555125EFC7402122438F4
:105E3000E8F0A3E9F090F557125EFC7404122438E0
:105E4000E8F0A3E9F08F82AC82851882851983126D
:105E50005F0E1223628808ECF88508F0A4C8AAF047
:105E600089F0A42AF9851882851983E8F0A3E9F05E
:105E70007402122438125F0E1223628808ECF8852F
:105E800008F0A4C8AAF089F0A42AF97402122438F0
:105E9000E8F0A3E9F07404122438125F0E122362B2
:105EA000EC88F0A4CCA8F089F0A428FD7404122496
:105EB00038ECF0A3EDF0851882851983AA82AB83B4
:105EC00012374874061224037F0C0224AA74FFF0D0
:105ED000A3E4F0740422E4F0A3F074042285188291
:105EE000851983E4F0A3F074022285188285198352
:105EF00074FFF0A3E4F074022290FAD3E0F8A3E078
:105F0000F92290F423E0F8A3E0F583888222E0F8F8
:105F1000A3E0F9E875F0FFA4F8AAF075F0FFE9A492
:105F20002AF97A647B002274F512244490FAD6741C
:105F30000BF090275E780812229790FA3C780812AE
:105F400022AA90F55BE0600F146029146039147088
:105F500003025FF902603112603FF090284D122574
:105F6000E7790390F4251261BF12240390F55B7466
:105F70000102603090F42512604D70030260319090
:105F8000F55B740202603012603F7410F07C007D9B
:105F9000007A057B00F9125B1D7A0F7B0012419598
:105FA000E9601D12603F04F090276A1225E779022C
:105FB00090F4251261BF12240390F55B7403807086
:105FC00012289490FAD3E4F0A31268E21260361219
:105FD000688E60151228EC8B09EA450990FAD260A8
:105FE00004740380087401800490FAD2E4F09028CD
:105FF000511225E77900025F6390F42512604D602D
:106000003090F55274FFF09028551225E77903126D
:1060100061BC1224039028591225E7790390F41FDC
:106020001261BF12240390FAD67401F090F55BE47C
:10603000F07F040224AA7405F090F552E4F0229057
:10604000F54D12603690FAD222F090F41DE0FAA3DA
:10605000E0FB12439DE92274F112244412608C1279
:1060600022977808790C121F407808121E06C3E5A3
:10607000089468E5099401A2D265D03350097427C9
:1060800044297003125F277F080224AA1228DD8AA0
:10609000088B098C0A8D0B90274A780C2274F11218
:1060A000244412382F12289479001243BB90F41D17
:1060B000EAF0A3EBF09028551225E779031261BCB2
:1060C00012240379001243BB90F41FEAF0A3EBF013
:1060D0009028591225E7790390F41F1261BF12240A
:1060E0000379001243BB90F41BEAF0A3EBF07900B4
:1060F0001243BB90F4251261B11225E7790390F4A5
:10610000251261BF12240379011243BB90F42112BE
:1061100061B11225E7790090F4211261BF122403C6
:1061200079001243BB90F4231261B11225E7790084
:1061300090F4231261BF1224037907123979122FC8
:106140000390FAD77401F012608C122297780879C4
:106150000C121F407808121E06C3E5089491E50949
:106160009401A2D265D03390FAD24011740412681F
:10617000E7126038FCFD7A64FB7904800F1268E056
:10618000E4F090F552F0FCFDFAFB7910125B1D75FE
:106190000A001268A51223BB1268D440F57C5F7D0B
:1061A000F97ADA7BF91229A690FAD67401F0026026
:1061B00087EAF0A3EBF090276E22790090F41DE0BF
:1061C000FAA3E0FB12433B74042274ED12244490C2
:1061D000FAD7E06401701E750A001268A51223BB8D
:1061E0001268D440F57C5F7DF97ADA7BF91229A632
:1061F00090FAD7E4F0126057123A57E9700302653B
:10620000127A277BF4123A6F90F4A3E070030265D0
:106210001290F42AE0F50C12691112264A010001CD
:1062200012652662FC6490FAB3E070030265129076
:10623000F428E0F510E4F511F512F513A3E0F508E4
:1062400090F427E024E0601B1470030262FF1470D6
:10625000030264011470030264B61470030264C282
:1062600002651290FAD6E06414600302651290FA97
:10627000B4E060030264A990FA3C78101222AA905C
:10628000FA3C781012228874087810122242F5091C
:10629000F50AF50B7810790812226190FA3C781013
:1062A0001222AA90FA3C7808122288740878081200
:1062B0002242F50DF50EF50F7808790C1222619047
:1062C000FA3C78081222AA90FA3C780C12228874C0
:1062D00008780C12224212691E12226190FA3C7850
:1062E0000C1222AA90FAD67415F090285D1225E7B8
:1062F0001261BA12240390FAA6740AF00265129091
:10630000FAD6E06412600302651290FA3C7810122B
:1063100022AA90FA3C78101222887408781012226F
:1063200042F509F50AF50B7810790812226190FA06
:106330003C78101222AA90FA3C780812228874083D
:106340007808122242F50DF50EF50F7808790C1237
:10635000226190FA3C78081222AA90FA3C780C123A
:1063600022887408780C12224212691E122261904F
:10637000FA3C780C1222AA90F42CE0F50874087804
:1063800008122242A3E0F50CE4F50DF50EF50F78A6
:1063900008790C12226174087808122242A3E0F5F1
:1063A0000C7808790C12226174087808122242A332
:1063B000E0F50C7808790C12226190FAA2780812A4
:1063C00022AA90F9DA78081222887583FA7582A2D7
:1063D0007808121D4F600302653290FAD67413F0EC
:1063E00090FAA67404F09028611225E71261BA129F
:1063F000240390FA3C1222B990FA9E1222C502653B
:106400001290FAD6E06415600302651290FA3C78A7
:10641000101222AA90FA3C78101222887408781080
:10642000122242F509F50AF50B781079081222615B
:1064300090FA3C78101222AA90FA3C781012228826
:1064400074087810122242850C08781079081222FC
:106450006190FA3C78101222AA90FA3C780C122231
:10646000887408780C12224290F42BE0F508780C1E
:10647000790812226190FA3C780C1222AA90F9DA7B
:1064800078081222887583FA75823C7808121D4FAD
:1064900090FAD670117412F09028651225E71261F7
:1064A000BA122403806C7414F090FAAEE090FAD221
:1064B0001268E702664990FAD67414F090FAB4E4D0
:1064C00080E674016508704A90FAABE0650C7002D2
:1064D000A3E0703E90F4A2E06404703690FAD674A3
:1064E00001F090FAB3E4F012688E90FAD2700302D1
:1064F000664574091268E2740502664990FAB3E0D1
:10650000601090F427E06424700890F429E064029D
:1065100060B690FAD6E01460CE24EF601514604B9C
:106520001460861470030265D214700302661702A9
:10653000664D90FAAF126934F090FAD3F0A312606E
:1065400049700302664D1269089028651225E7120A
:1065500061BA1224037508A57509F478081225A9F3
:10656000790912689712240302664D90FAB11269F4
:1065700034126049700302664D7508A57509F478F8
:10658000081225A9790A126897122403902861122B
:1065900025E71261BA12240390FAA6E014F0600312
:1065A00002664D90FAB2E0640290FAD6602074144C
:1065B000F090FAA712692978081225A1790390F4BE
:1065C000231261BF12240390FAB47401807E741206
:1065D000807A90FAB0E090FAD21268E274141268ED
:1065E000EE126049606790285D1225E71261BA12C9
:1065F00024031269087508A57509F478081225A9FD
:10660000790B12689712240390FAA6E014F0703DFB
:1066100090FAD67414803512604A60319028551271
:1066200025E779011261BC1224037508A57509F4E8
:1066300078081225A9790C12689712240390FAD2CF
:1066400074040264B01268E0E41268EEF090FAB3E9
:10665000E060030266F7122991E9602790F559E09E
:1066600070217401F090276E1225E7790090F421D3
:106670001261BF12240390FAD27408F090F55A7494
:10668000018073122991E9605A90F559E0605490A5
:10669000F421125F05C3E094E9A3E094034058900D
:1066A000F55AE0605290FAD27401F0902855122504
:1066B000E7790290F41B1261BF12240390FAD6749A
:1066C00011F090276A1225E7790390F41F1261BF39
:1066D000122403122ED8122EFB90F55AE4F090FAF1
:1066E000AD8013122991E9700E90F559E06008E42D
:1066F000F090FAD27406F0122F80E970030267D886
:106700007A217BF5122F8A90F522E0640C60030257
:1067100067D890FAB37401F090F52EE0FA90F52D59
:10672000E0F9EA90FAA9F0A3E9F090F52FE090FAE9
:10673000ADF012691112264A010001C36741678A50
:106740006790276A1225E7790390F41F1261BF1240
:10675000240390F530E090FAAEF090F531E090FA35
:10676000AFF090FAB07404F090F532E090FAA7F030
:1067700090FAB174041268CBF090F534E090FAB25C
:106780001268FB90FAD67414804A90276A1225E7A3
:10679000790390F41F1261BF12240390285512252B
:1067A000E779011261BC12240390FAD674161268BC
:1067B000CB1268FB7C01FD7AA87BFA122EB212691B
:1067C00008801290FAD67401F090FAD21268E0E4D0
:1067D000F090FAB3F0122F0390F41B12604DF89072
:1067E000FAD6E064117004D2F08002C2F0E8A2E0B0
:1067F00082F0504690F53774AAF0A3740AF090F92D
:10680000DA1222B990F5391222C590F5427455F08A
:1068100090FAD2E06401700474048002740112687A
:10682000E7F07A377BF51230449028551225E77946
:106830000290F41B1261BF12240390F42312604DE6
:10684000600590FAB4E4F090F41F12604D60269059
:10685000FAADE0601514F090276A1225E7790390ED
:10686000F41F1261BF122403800B90FAD67401F05A
:1068700090FAB3E4F090F552E0FC7D0090F54DE025
:10688000FA7B0090FAD2E0F9125B1D025EC8122971
:10689000278B09EA4509227CDA7DF97A3C7BFA12DA
:1068A0003BA9740222E50AC333FEE433FFEEFAEF9C
:1068B0003478FB122C958A088B09745F2EF582744C
:1068C000F93FF583EAF07408780822F090F533E098
:1068D00090FAA822A3E508F0050AE50AC39440222D
:1068E0007410F090F54D22F090F54D746422126012
:1068F0003890FAD37488F0A3741322F090F536E040
:1069000090FAABF0A3E4F02290FAA8E0F9123979FA
:106910002290FAA9E0F508A3E0F50978082290F49E
:106920002B126929780C790822E0F508E4F509F5BD
:106930000AF50B22E090FAD2F090F54D7464F090D5
:10694000F552E42274F7122444EAFEEBFF122DA460
:10695000EE244012696AEE244112696AEE24421262
:10696000696A122DB07F020224AAF582EF3400F585
:1069700083E4F02274F3122444EAFEEBFF8C088DCA
:1069800009890A122DA4EE2440F8EF3400F9888218
:106990008983E0850A0C250CFCE43400FDEC94406E
:1069A000ED9400C365D033750B00504DEE2442FCCE
:1069B000EF3400FD8034850B0CE508250CF582E5ED
:1069C00009126A7FC0E08C828D83E0F50CEE250C05
:1069D000F582EF3400F583D0E0F08C828D83E00403
:1069E000F0E064407002E4F0050BE50BC3950A404B
:1069F000C588828983E0250BF0122DB0A90B7F0694
:106A00000224AA74F3122444EAFEEBFF8C088D09D9
:106A1000890A122DA4750B00EE2441F8EF3400F919
:106A2000EE2440FCEF3400FD803188828983E0F55C
:106A30000CEE250C126A7CC0E0850B0CE508250CD9
:106A4000F582E5093400F583D0E0F088828983E09F
:106A500004F0E064407002E4F0050BE50BC3950A16
:106A6000500E8C828D83E0F50CE50BC3950C40BA7B
:106A70008C828D83E0C3950BF00269F9F582EF34C7
:106A800000F583E022C082C083EA2440F582EB1245
:106A90006A7FF9D083D08222C3EB9400A2D265D062
:106AA000334005EAF8EB8006C3E49AF8E49BF9E882
:106AB000FAE9FB2274F71224447409122438E0FE28
:106AC000A3E0FFEAF8EBF980188C828D83E08882DE
:106AD0008983F0A3A882A9838C828D83A3AC82AD25
:106AE000838E088F09E50824FF1EE50934FFFFE5C2
:106AF00008450970D47F020224AAFFFFFFFFFFFFB1
:106B0000FFFFFFFFFFFFFFFFFFFFFFFFFFFFFFFF95
:106B1000FFFFFFFFFFFFFFFFFFFFFFFFFFFFFFFF85
:106B2000FFFFFFFFFFFFFFFFFFFFFFFFFFFFFFFF75
:106B3000FFFFFFFFFFFFFFFFFFFFFFFFFFFFFFFF65
:0400000500001C5B80
:00000001FF
